:100000000C9498140C94C9140C94C9140C94C9142D
:100010000C94C9140C94C9140C94C9140C94C914EC
:100020000C94C9140C94C9140C94C9140C94C914DC
:100030000C94C9140C94C9140C94C9140C94C914CC
:100040000C94C9140C940C5B0C94C9140C94C91432
:100050000C94C9140C94C9140C9422770C949845F0
:100060000C94C9140C94A8390C94C9140C94C91498
:100070000C94C9140C94C9140C94C9140C94C9148C
:100080000C94C9140C94C9140C94C9140C94C9147C
:100090000C94C9140C94C9140C94C9140C94C9146C
:1000A0000C94C9140C94C9140C94C9140C94C9145C
:1000B0000C94C9140C94C9140C94C9140C94C9144C
:1000C0000C94C9140C94C9140C94C9140C94C9143C
:1000D0000C94C9140C94C9140C94C9140C94C9142C
:1000E0000C94C91410431343024306430C434A4380
:1000F00017431B432143254329432F4333433743AE
:100100004A433D4341434543B444B944BE44C844D3
:10011000D2444B45DC44E444EC44F64400450A45F3
:10012000194523454B452D4537454145D277D7776E
:1001300001780678E677F277BC77084AD73B3BCE62
:10014000016E84BCBFFDC12F3D6C74319ABD5683D6
:100150003DDA3D00C77F11BED9E4BB4C3E916BAA8E
:10016000AABE000000803F05A84CCDB2D44EB938DD
:1001700036A9020C50B9918688083CA6AAAA2ABEC4
:10018000000000803F004E414E494E495459494EAF
:1001900046CDCCCC3D0AD7233C17B7D13877CC2BF2
:1001A000329595E6241FB14F0A000020410000C897
:1001B0004200401C4620BCBE4CCA1B0E5AAEC59D18
:1001C00074434F4D4D554E49434154494F4E0044A1
:1001D000525952554E004552524F525300494E46C5
:1001E0004F004543484F0020746F6F206C6F6E675F
:1001F00020657874727573696F6E207072657665AC
:100200006E7465640A0020636F6C64206578747294
:100210007573696F6E2070726576656E7465640AB9
:100220000047322F47332062616420706172616D34
:1002300065746572730A00536C6565702E2E2E000E
:100240004E6F206D6F76652E002569730025696DF0
:1002500020256973002569682025696D202569734B
:1002600000256964202569682025696D202569734A
:100270000025697920256964202569682025696D34
:1002800020256973005072696E742074696D653A37
:10029000200050726F7465637465642050696E0A43
:1002A00000452569202573003344205072696E741F
:1002B00065722072656164792E00E201DD01D6016C
:1002C000CF01C1016F66660044454255473A004B75
:1002D000494C4C45442E20004D3131332053006FA2
:1002E0006B0048656174696E6720646F6E652E00EF
:1002F00020573A0045256920257300334420507269
:10030000696E7465722072656164792E004265645D
:1003100020646F6E652E0020573A004265642048C5
:10032000656174696E672E003344205072696E7483
:100330006572204F66662E00454D455247454E4337
:10034000595F50415253455200434153455F4C4918
:100350004748545F4252494748544E45535300540E
:100360004F47474C455F4C494748545300534F460D
:1003700054574152455F504F574552004255494CE2
:10038000445F50455243454E54004C4556454C49F8
:100390004E475F44415441005A5F50524F4245001E
:1003A0004155544F4C4556454C005052494E545FB0
:1003B0004A4F420050524F47524553530041555403
:1003C0004F5245504F52545F54454D5000564F4C7C
:1003D000554D455452494300454550524F4D0053E9
:1003E000455249414C5F584F4E5F584F4646004674
:1003F00049524D574152455F4E414D453A4D61720C
:100400006C696E20312E312E38202847697468754A
:10041000622920534F555243455F434F44455F5532
:10042000524C3A68747470733A2F2F676974687508
:10043000622E636F6D2F4D61726C696E4669726DCD
:10044000776172652F4D61726C696E2050524F5406
:100450004F434F4C5F56455253494F4E3A312E3021
:10046000204D414348494E455F545950453A334425
:10047000205072696E746572204558545255444537
:10048000525F434F554E543A3220555549443A63D2
:10049000656465326132662D343161322D34373412
:1004A000382D396231322D63353563363266333655
:1004B0003766660A002F2F20007A5F6D696E3A203A
:1004C00000795F6D696E3A2000785F6D696E3A2041
:1004D000005265706F7274696E6720656E64737424
:1004E0006F70207374617475730A004D3134352058
:1004F000533C696E6465783E206F7574206F66208A
:1005000072616E67652028302D31290A00536574A9
:1005100074696E672054726176656C20416363650F
:100520006C65726174696F6E3A200053657474690A
:100530006E67205265747261637420416363656CF9
:1005400065726174696F6E3A200053657474696EE8
:1005500067205072696E7420416363656C657261D7
:1005600074696F6E3A200053657474696E67205029
:1005700072696E7420616E642054726176656C20BD
:10058000416363656C65726174696F6E3A20002027
:100590005A00205900580020204D61783A20002050
:1005A0005A00205900580020204D696E3A20004F13
:1005B0006E20004F666600536F667420656E64732C
:1005C000746F70733A2000486F74656E64206F66B4
:1005D00066736574733A00000136372603FF3C3DAD
:1005E000380EFF2E303E12FFFF0C0809FFFFFF1AE6
:1005F0001C18FFFF24221EFFFF08440AFF4307FFC9
:1006000045FFFFFFFFFFFF20643A0020693A00200A
:10061000703A0043290A0061626C656420286D69A4
:100620006E2074656D702000436F6C642065787473
:100630007275646573206172652000236465666964
:100640006E65202044454641554C545F4B64200064
:1006500023646566696E65202044454641554C54C7
:100660005F4B69200023646566696E652020444500
:100670004641554C545F4B70200050494420417511
:10068000746F74756E652066696E69736865642140
:100690002050757420746865206C617374204B70F1
:1006A0002C204B6920616E64204B6420636F6E7355
:1006B00074616E74732066726F6D2062656C6F7703
:1006C00020696E746F20436F6E666967757261741E
:1006D000696F6E2E680A00504944204175746F742A
:1006E000756E65206661696C6564212074696D654D
:1006F0006F75740A00544845524D414C2052554E76
:100700004157415900546865726D616C2052756E95
:10071000617761790048656174696E672066616917
:100720006C65640048656174696E67206661696C18
:10073000656400504944204175746F74756E65207E
:100740006661696C6564212054656D7065726174C1
:1007500075726520746F6F20686967680A00204BA6
:10076000643A2000204B693A2000204B703A200068
:100770000A20436C617373696320504944200A0066
:100780002054753A2000204B753A2000206D617886
:100790003A2000206D696E3A200020643A20002043
:1007A000626961733A20004F6666736574732061F5
:1007B00070706C696564004572723A20546F6F20E6
:1007C0006661722100546F6F206661722066726FDD
:1007D0006D207265666572656E636520706F696E07
:1007E000740A00454550524F4D2064697361626C34
:1007F00065640A004E6F2063617365206C696768E9
:10080000740A00556E6B6E6F776E20636F6D6D614D
:100810006E643A202200656E7175657565696E6754
:100820002022004C696E65204E756D6265722069EC
:1008300073206E6F74204C617374204C696E652058
:100840004E756D6265722B312C204C617374204C97
:10085000696E653A20004B494C4C45442E200053AC
:10086000544F505045442E20005072696E7465728A
:100870002073746F707065642064756520746F20D8
:100880006572726F72732E204669782074686520D5
:100890006572726F7220616E6420757365204D39C8
:1008A000393920746F20726573746172742E202838
:1008B00054656D706572617475726520697320721C
:1008C000657365742E2053657420697420616674A5
:1008D00065722072657374617274696E67290A00AB
:1008E0004E6F20436865636B73756D20776974681C
:1008F000206C696E65206E756D6265722C204C618E
:100900007374204C696E653A2000636865636B738D
:10091000756D206D69736D617463682C204C617313
:1009200074204C696E653A20004D31313000204909
:100930006E76616C69642065787472756465722086
:10094000000000000000000000000000000000485F
:10095000430000484300004843526573756D696E5B
:1009600067207072696E74003344205072696E742F
:1009700065722072656164792E00436C69636B2037
:10098000746F20726573756D652E2E2E00205A3A95
:100990000020593A0020436F756E7420583A0020A9
:1009A000453A00205A3A0020593A00583A003A0095
:1009B0004361703A004B494C4C45442E2000202D99
:1009C00020496E76616C696420657874727564651F
:1009D00072206E756D62657220210A001FFFFFFF95
:1009E000FFFFFF600000000001FF4000000000006A
:1009F000FF8000000000007F83CF00000C303F87A5
:100A0000FF80000C301F867980000C000F8C30C7EF
:100A1000838C30E78C30CFC7CC31F38C30DCECECFE
:100A200033B98C30D86C6C33198C30D06C0C3319D2
:100A30008C30D86C0C33198C30DC6C0E3B198C303C
:100A4000CF7C079F198C30C77C038F1940000000B2
:100A5000000002600000000000061FFFFFFFFFFF14
:100A6000F82020506C616E6E657242756666657224
:100A700042797465733A20002046726565204D65A1
:100A80006D6F72793A2000436F6D70696C65643ADE
:100A9000204D617920313720323031380A00207CF6
:100AA00020417574686F723A20286E6F6E652C2035
:100AB00064656661756C7420636F6E666967290A88
:100AC00000323031372D31322D32352031323A304B
:100AD0003000204C61737420557064617465643A11
:100AE0002000312E312E380A004D61726C696E0083
:100AF00020536F6674776172652052657365740A5E
:100B000000205761746368646F6720526573657471
:100B10000A002042726F776E206F757420526573E1
:100B200065740A002045787465726E616C205265A8
:100B30007365740A00506F77657255700A0073749C
:100B40006172740A00456E6473746F70732025635C
:100B500020256320256320256300205A3A00205970
:100B60003A0020583A00656E6473746F70732068A1
:100B700069743A200048617264636F64656420445C
:100B8000656661756C742053657474696E67732053
:100B90004C6F616465640A00E8030000E80300002C
:100BA000640000001027000000007A4400007A442E
:100BB000000040400000C8410000C841C9B61F43C2
:100BC00048112143F9BA9F45933845432D7242435A
:100BD00020440020490020204D3330312050002097
:100BE000440020490020500020204D333031204562
:100BF000005049442073657474696E67733A0A0043
:100C000020460020420020480020204D313435206D
:100C100053004D6174657269616C2068656174751B
:100C20007020706172616D65746572733A0A00209C
:100C3000590020580020204D323138205400486F90
:100C400074656E64206F6666736574733A0A00207B
:100C50005A0020590020204D323036205800486F6D
:100C60006D65206F66667365743A0A002045002042
:100C70005A00205900205800204200205400202013
:100C80004D323035205300416476616E6365643ABD
:100C900020533C6D696E5F66656564726174653E84
:100CA00020543C6D696E5F74726176656C5F666539
:100CB0006564726174653E20423C6D696E5F736568
:100CC000676D656E745F74696D655F75733E2058FE
:100CD0003C6D61785F78795F6A65726B3E205A3C43
:100CE0006D61785F7A5F6A65726B3E20453C6D612D
:100CF000785F655F6A65726B3E0A0020540020527F
:100D00000020204D323034205000416363656C6513
:100D1000726174696F6E2028756E6974732F7332F7
:100D2000293A20503C7072696E745F616363656C30
:100D30003E20523C726574726163745F61636365E7
:100D40006C3E20543C74726176656C5F61636365D0
:100D50006C3E0A0020450020204D323031205400E6
:100D6000205A0020590020204D3230312058004DAB
:100D70006178696D756D20416363656C657261743E
:100D8000696F6E2028756E6974732F7332293A0A61
:100D90000020450020204D323033205400205A00DE
:100DA00020590020204D3230332058004D617869A1
:100DB0006D756D2066656564726174657320287554
:100DC0006E6974732F73293A0A0020450020204D64
:100DD0003932205400205A0020590020204D393249
:100DE00020580053746570732070657220756E69A9
:100DF000743A0A0020204D3230302044300A00205E
:100E0000204D32303020543120440020204D3230EB
:100E1000302044002044697361626C65640A0046B6
:100E2000696C616D656E742073657474696E677347
:100E30003A0020204D3134392043203B20556E6943
:100E4000747320696E2043656C736975730A0020A2
:100E500020473231202020203B20556E69747320BA
:100E6000696E206D6D0A0000002100240027002A11
:100E7000002D003000330001010000040107010AC9
:100E80000100002200250028002B002E0031003434
:100E90000002010000050108010B010000200023F1
:100EA00000260029002C002F003200000100000362
:100EB00001060109010505050507050808080802DE
:100EC0000202020A0A0808040404040101010101E3
:100ED0000101010303030303030303040707070CD2
:100EE0000C0C0C0C0C0C0C02020202060606060688
:100EF0000606060B0B0B0B0B0B0B0B010210202035
:100F0000080810204010204080020102010804025D
:100F100001010204081020408080402010080402D3
:100F2000018004020180402010080402010804022C
:100F30000101020408102040800102040810204032
:100F40008000000A0B02090C0D0E080703040100C3
:100F50000000000000000000000000000000000091
:100F6000000000000000000000000000001211104E
:100F70000000000000000000000000000000000071
:100F80000000000000000050726568656174205028
:100F90004C4120416C6C0050726568656174205052
:100FA0004C4120456E642045320050726568656191
:100FB0007420504C41203200507265686561742085
:100FC000504C412042656400507265686561742030
:100FD000504C4120456E6420453100507265686573
:100FE000617420504C41203100507265706172650F
:100FF00000507265686561742041425320416C6CF9
:1010000000507265686561742041425320456E64EA
:10101000204532005072656865617420414253205A
:101020003200507265686561742041425320456EFC
:1010300064204531005072656865617420414253F7
:1010400020426564005072656865617420414253B6
:1010500020310050726570617265004D3432380085
:101060005072656865617420504C4100436F6F6C2D
:10107000646F776E005072656865617420414253F9
:101080000044697361626C65207374657070657289
:1010900073004D38340053657420686F6D65206FA0
:1010A000666673657473004175746F20686F6D6553
:1010B00000473238004D6F76652061786973004DC6
:1010C00061696E004D6F76652058004D6F76652022
:1010D00059004D6F7665205A0045787472756465C5
:1010E000723200457874727564657231004D6F76A6
:1010F0006520302E316D6D004D6F766520316D6D40
:10110000004D6F76652031306D6D004D6F76652036
:1011100061786973004578747275646572004D6F0B
:101120007665205A004D6F76652059004D6F7665C3
:101130002058004578747275646572320045787481
:1011400072756465723100457874727564657200F9
:101150004D6F7665205A004D6F76652059004D6FB2
:101160007665205800507265706172650052657333
:10117000746F7265206661696C73616665004669AB
:101180006C616D656E74004D6F74696F6E005465AF
:101190006D7065726174757265004D61696E0050A5
:1011A0007265686561742041425320636F6E66000A
:1011B0005072656865617420504C4120636F6E66A3
:1011C000005049442D44005049442D4400504944A6
:1011D0002D49005049442D49005049442D5000509C
:1011E00049442D50002008204661637400200820E7
:1011F00046616374002008204D6178002008204D6E
:101200006178002008204D6178002008204D696E2B
:10121000002008204D696E002008204D696E004FA7
:101220006666004F6E20004175746F74656D7000C6
:1012300046616E2073706565640046616E20737050
:101240006565640042656400426564004E6F7A7AA9
:101250006C652032004E6F7A7A6C652032004E6FDA
:101260007A7A6C652031004E6F7A7A6C6520310095
:10127000436F6E74726F6C00426564004265640077
:101280004E6F7A7A6C65004E6F7A7A6C65004661B3
:101290006E2073706565640046616E2073706565CD
:1012A000640054656D70657261747572650024F434
:1012B000D43050C38E20C2A24017828B7011127A94
:1012C000910D816CD90AA861E108C7586607615180
:1012D00043061E4B5D05C145A7041A411104093D93
:1012E0009803713931034036DB0265339102D43003
:1012F0005402802E1D02632CEE01752AC501B02810
:10130000A001102781018F2564012B244B01E022CD
:101310003401AC211F018D200D01801FFC00841EB3
:10132000ED00971DDF00B81CD200E61BC600201B95
:10133000BC00641AB200B219A8000A19A0006A1809
:101340009900D117910040178B00B5168400311613
:101350007E00B31579003A157300C7146F00581456
:101360006A00EE1366008813630025135E00C7123F
:101370005B006C12570015125400C111510070111E
:101380004F0021114B00D61049008D104700461028
:10139000440002104200C00F4000800F3E00420F88
:1013A0003C00060F3B00CB0E3800930E37005C0E5E
:1013B0003500270E3400F30D3200C10D3100900DC1
:1013C0003000600D2E00320D2D00050D2C00D90CC3
:1013D0002B00AE0C2900850C29005C0C2700350C75
:1013E00027000E0C2600E80B2400C40B2400A00BE1
:1013F00023007D0B23005A0B2100390B2100180B11
:101400002000F80A1F00D90A1E00BB0A1E009D0A10
:101410001D00800A1D00630A1C00470A1B002C0ADD
:101420001B00110A1A00F7091A00DD091900C40986
:101430001900AB091900920917007B09180063090C
:1014400017004C09160036091600200916000A0973
:101450001500F5081500E0081400CC081400B808C1
:101460001400A4081400900813007D0812006B08F3
:10147000130058081200460812003408110023080F
:1014800011001208110001081100F0071000E00718
:101490001000D0071000C0071000B0070F00A10710
:1014A000100091070E0083070F0074070F006507F7
:1014B0000E0057070E0049070E003B070D002E07D0
:1014C0000E0020070D0013070D0006070D00F9069A
:1014D0000C00ED060D00E0060C00D4060C00C8065A
:1014E0000C00BC060C00B0060C00A4060B0099060C
:1014F0000C008D060B0082060B0077060B006C06B5
:101500000B0061060A0057060B004C060A00420653
:101510000A0038060A002E060A0024060A001A06E7
:101520000A001006090007060A00FD050900F40577
:101530000900EB050900E2050900D9050900D005FD
:101540000900C7050900BE050900B5050800AD057D
:101550000800A50509009C050800940508008C05F5
:101560000800840508007C050800740508006C0567
:101570000700650508005D050700560508004E05D3
:10158000070047050700400508003805070031053A
:1015900007002A050700230507001C05060016059D
:1015A00007000F0507000805060002050700FB04F9
:1015B0000600F5040700EE040600E8040600E20455
:1015C0000700DB040600D5040600CF040600C904AA
:1015D0000600C3040600BD040600B7040600B104FB
:1015E0000500AC040600A6040600A00405009B0448
:1015F000060095040500900406008A040500850491
:101600000500800406007A040500750405007004D6
:1016100005006B04050066040500610405005C0418
:10162000050057040500520405004D040500480458
:101630000500430405003E0404003A040500350497
:101640000500300404002C040500270404002304D2
:1016500005001E0404001A04040016040500110409
:1016600004000D040400090405000404040000043F
:101670000400FC030400F8030400F4030400F00376
:101680000400EC030400E8030400E4030400E003A6
:101690000400DC030400D8030400D4030400D003D6
:1016A0000400CC030400C8030300C503030024F4B2
:1016B00004D9201BC40C5C0E9804C4095F026507A2
:1016C0007101F405F900FB04B30048048700C1036D
:1016D00069005803550003034500BE023A00840226
:1016E000310053022A002902250004022000E401EF
:1016F0001C00C8011900AF011700980114008401F3
:101700001300710110006101100051010E0043012E
:101710000D0036010B002B010B0020010B00150101
:1017200009000C01090003010800FB000800F30098
:101730000800EB000700E4000600DE000600D80009
:101740000600D2000600CC000500C7000500C2005C
:101750000500BD000400B9000400B5000400B1009C
:101760000400AD000400A9000400A5000300A200CD
:1017700003009F0004009B000300980003009500F5
:10178000020093000300900003008D0002008B0014
:10179000030088000200860002008400030081002C
:1017A00002007F0002007D0002007B000200790041
:1017B000020077000100760002007400020072004F
:1017C0000100710002006F0002006D0001006C005A
:1017D00002006A0001006900020067000100660063
:1017E0000100650001006400020062000100610068
:1017F0000100600001005F0002005D0001005C006C
:1018000001005B0001005A0001005900010058006E
:10181000010057000100560001005500010054006E
:10182000010053000000530001005200010051006C
:101830000100500001004F0001004E0000004E006A
:1018400001004D0001004C0001004B0000004B0066
:1018500001004A0001004900010048000000480062
:10186000010047000100460000004600010045005D
:101870000000450001004400010043000000430057
:101880000100420000004200010041000000410050
:101890000100400001003F0000003F0001003E0049
:1018A00000003E0001003D0000003D0001003C0042
:1018B00000003C0000003C0001003B0000003B0039
:1018C00001003A0000003A00010039000000390030
:1018D0000100380000003800000038000100370027
:1018E000000037000100360000003600000036001E
:1018F0000100350000003500000035000100340013
:101900000000340000003400010033000000330008
:1019100000003300010032000000320000003200FD
:1019200001003100000031000000310001003000F2
:10193000000030000000300001002F0000002F00E8
:1019400000002F0000002F0001002E0000002E00DC
:1019500000002E0001002D0000002D0000002D00D1
:1019600000002D0001002C0000002C0000002C00C5
:1019700000002C0001002B0000002B0000002B00B9
:1019800000002B0001002A0000002A0000002A00AD
:1019900000002A00010029000000290000002900A1
:1019A0000000290000002900010028000000280094
:1019B0000000280000002800000028000100270087
:1019C000000027000000270000002700000027007B
:1019D000010026000000260000002600000026006E
:1019E0000000260001002500000025000000250061
:1019F0000000250000002500000025000100240053
:101A00000000240000002400000024000000240046
:101A10000100230000002300000023000000230039
:101A2000000023000000230000002300010022002A
:101A3000000022000000220000002200000022001E
:101A40000000220001002100000021000000210010
:101A50000000210000002100000021000000210002
:101A600001002000000020000000200000002000F5
:101A700000002000000020000000200000002000E6
:101A800001001F0000001F0000001F0000001F00D9
:101A900000001F0000001F0000001F0001001E00CA
:101AA00000001E0000001E0000001E0000000006D6
:101AB0000900FE0701920321207FFF07FF07FF00B7
:101AC0000000060000010707060200808080808079
:101AD0000080030202060105A0A00507070600001A
:101AE0005050F850F850500507070600002078A025
:101AF0007028F020050707060000C0C81020409895
:101B0000180507070600006090A040A8906802032F
:101B100003060104C040800307070601002040803F
:101B200080804020030707060100804020202040DD
:101B30008005050506000120A870A82005050506FA
:101B400000012020F820200203030602FFC040808D
:101B5000050101060003F8020202060200C0C005EA
:101B60000505060001081020408005070706000053
:101B70007088888888887003070706010040C04085
:101B8000404040E00507070600007088087080802C
:101B9000F8050707060000F81020100808F00507F0
:101BA0000706000010305090F810100507070600D7
:101BB00000F880F0080888700507070600007080AC
:101BC00080F0888870050707060000F808102020BC
:101BD0002020050707060000708888708888700537
:101BE0000707060000708888780808700205050657
:101BF0000200C0C000C0C00206060602FFC0C0004E
:101C0000C0408004070706000010204080402010DC
:101C1000050303060002F800F80407070601008028
:101C2000402010204080050707060000708808103B
:101C300020002005070706000070880868A8A87023
:101C4000050707060000708888F888888805070758
:101C5000060000F08888F08888F005070706000075
:101C600070888080808870050707060000F08888EB
:101C7000888888F0050707060000F88080F08080DB
:101C8000F8050707060000F88080F08080800507CF
:101C900007060000708880B888887005070706006E
:101CA00000888888F88888880107070602008080F5
:101CB0008080808080050707060000381010101013
:101CC00090600507070600008890A0C0A0908805D6
:101CD0000707060000808080808080F805070706DF
:101CE000000088D8A888888888050707060000882B
:101CF00088C8A89888880507070600007088888823
:101D0000888870050707060000F08888F0808080CA
:101D100005070706000070888888A89068050707EF
:101D2000060000F08888F0A09088050707060000EC
:101D3000788080700808F0050707060000F820206A
:101D400020202020050707060000888888888888CA
:101D500070050707060000888888888850200507D6
:101D6000070600008888888888A8500507070600AD
:101D7000008888502050888805070706000088885A
:101D80008850202020050707060000F80810204092
:101D900080F8030707060100E08080808080E0056E
:101DA0000505060001804020100803070706010012
:101DB000E02020202020E0050303060004205088B6
:101DC000050101060000F802020206020580400536
:101DD00005050600007008788878050707060000EA
:101DE0008080B0C88888F0050505060000708080F6
:101DF0008870050707060000080868988888780535
:101E000005050600007088F88070050707060000C9
:101E10003048E0404040400506060600FF708888D4
:101E20007808700507070600008080B0C888888899
:101E30000107070602008000808080808003080878
:101E40000601FF200020202020A0400407070600F4
:101E500000808090A0C0A090030707060100C0404A
:101E600040404040E0050505060000D0A8A8A8A80D
:101E7000050505060000B0C8888888050505060028
:101E80000070888888700506060600FFF08888F0D4
:101E900080800506060600FF788888780808050512
:101EA00005060000B0C880808005050506000070AA
:101EB000807008F00407070600004040E040404002
:101EC0003005050506000088888898680505050620
:101ED000000088888850200505050600008888A82D
:101EE000A850050505060000885020508805060604
:101EF0000600FF888888780870050505060000F848
:101F0000102040F8030707060100204040804040B1
:101F10002001070706020080808080808080030700
:101F20000706010080404020404080050202060074
:101F3000026890000000060000486F6D6520257360
:101F40002573257320666972737400206669727345
:101F5000740A005A0059005800486F6D65200065EA
:101F600063686F3A00000048420000484200008069
:101F700040000000004572726F723A006265640AA8
:101F8000002C2073797374656D2073746F707065A5
:101F90006421204865617465725F49443A200048B5
:101FA000656174696E67206661696C656400486587
:101FB0006174696E67206661696C6564004865617B
:101FC00074696E67206661696C6564004865617458
:101FD000696E67206661696C65640010006003507B
:101FE000012C0190012201D001180110020E017094
:101FF000020401E002FA006003F0000004E600B011
:1020000004DC00A005D200B006C8000008BE00A095
:1020100009B400800BAA00D00DA00090109600C05B
:10202000138C0070178200901B780010206E00C087
:10203000246400E02D500080353C00A03A2800A028
:102040003D1400003F0000A03FECFF544845524DB6
:10205000414C2052554E4157415900546865726DAC
:10206000616C2052756E61776179004572723A2019
:102070004D494E54454D5020424544004572723AF8
:10208000204D494E54454D50004D494E54454D50FC
:1020900020747269676765726564004572723A20E0
:1020A0004D415854454D5020424544004572723AC6
:1020B000204D415854454D50004D415854454D50C8
:1020C0002074726967676572656400202F00204084
:1020D000002042403A0020403A0056652D6A657261
:1020E0006B0056652D6A65726B0056652D6A6572C8
:1020F0006B00567A2D6A65726B00567A2D6A65728E
:102100006B0056792D6A65726B0056792D6A65727F
:102110006B0056792D6A65726B0056782D6A657270
:102120006B0056782D6A65726B0056782D6A657261
:102130006B004D6F74696F6E004532737465707318
:102140002F6D6D00453273746570732F6D6D004592
:102150003173746570732F6D6D00453173746570E4
:10216000732F6D6D004573746570732F6D6D004531
:1021700073746570732F6D6D005A73746570732F6F
:102180006D6D005A73746570732F6D6D00597374A3
:102190006570732F6D6D005973746570732F6D6D5D
:1021A000005873746570732F6D6D0058737465708B
:1021B000732F6D6D004D6F74696F6E005374657091
:1021C000732F6D6D004A65726B00416363656C65CA
:1021D000726174696F6E0056656C6F636974790023
:1021E000436F6E74726F6C0046696C2E2044696197
:1021F0002E20320046696C2E204469612E20320068
:1022000046696C2E204469612E20310046696C2E8F
:10221000204469612E20310046696C2E204469619A
:102220002E0046696C2E204469612E004F666600C0
:102230004F6E20004520696E206D6D3300436F6E38
:1022400074726F6C0020746F6F206C6F6E67206506
:102250007874727573696F6E2070726576656E74CE
:1022600065640A0020636F6C64206578747275730E
:10227000696F6E2070726576656E7465640A001011
:1022800000C90210012C014001220170011801B0A7
:10229000010E01F00104015002FA00B002F000301A
:1022A00003E600D003DC009004D2007005C800A053
:1022B00006BE000008B400B009AA00D00BA0006060
:1022C0000E960060118C000015820020197800C065
:1022D0001D6E00A0226400B0275A00902C50000010
:1022E000314600E0343C0010383200903A2800605B
:1022F0003C1E00A03D1400803E0A00203F0000006C
:10230000060900FE000000000001090008FE0000B0
:1023100005080806000040F0C8888898781005086D
:1023200008060000C0F88888888888F80505050632
:1023300000012030F830200508080600002070F861
:1023400020202020E00509090600FF2070A8A8B879
:10235000888870200509090600FFE080C0B0A82821
:102360003028280509090600FFF8A8888888888889
:10237000A8F8050A0A0600FE205050505088A8A868
:10238000887003030306000340A0405A0059005818
:102390000009200000000000000000000000000014
:1023A0007FFFE0000000000000000000000000705F
:1023B00000E000000000000000000000000061F8E4
:1023C0006000000000000000000000000041F82054
:1023D00000000000000000000000000040F02000AD
:1023E000000000000000000000000040602000002D
:1023F000000000000000000000005801A07F8000E5
:102400003FC0000000004104005C63A0FBC00079F5
:10241000E0000000002082005EF7A0F3C00076E03C
:10242000000000002082005EF7A0EBC0007EE0000C
:102430000000004104005C63A07B80003DC0000000
:1024400000008208005801A07B80003BC000000013
:1024500001041000406020FBC00077E00000000194
:1024600004100040F020FBC00070E000000000827B
:10247000080041F820FFC0007FE000000000410498
:102480000061F8603F00001F8000000000000000B5
:102490007000E01E00000F0000000001FFFF807FC1
:1024A000FFE00C0000060000000001FFFF800000BC
:1024B000000000000000000000000000007FFFE0BE
:1024C0000000000000000000000000007000E000BC
:1024D0000000000000000000000000630C6000002D
:1024E00000000000000000000000470E2000000077
:1024F0000000000000000000004F0F20000000005E
:1025000000000000000000005F0FA00000000000BD
:10251000000000000000005E07A07F80003FC000B8
:10252000000000410400406020FBC00079E0000092
:10253000000020820040F020F3C00076E0000000A0
:102540000020820040F020EBC0007EE00000000090
:102550004104004060207B80003DC00000000082FC
:1025600008005E07A07B80003BC000000001041053
:10257000005F0FA0FBC00077E00000000104100026
:102580004F0F20FBC00070E00000000082080047F1
:102590000E20FFC0007FE000000000410400630C3B
:1025A000603F00001F80000000000000007000E09D
:1025B0001E00000F0000000001FFFF807FFFE00C05
:1025C0000000060000000001FFFF800000005265CF
:1025D00073656E643A20006F6B00627573793A2000
:1025E00070617573656420666F7220696E707574B2
:1025F0000A00627573793A207061757365642066AC
:102600006F7220757365720A00627573793A207073
:10261000726F63657373696E670A004B494C4C4572
:10262000442E20004B494C4C206361757365642037
:102630006279204B494C4C20627574746F6E2F7018
:10264000696E0A004B494C4C45442E20004B494CC6
:102650004C2063617573656420627920746F6F200C
:102660006D75636820696E6163746976652074694D
:102670006D65202D2063757272656E7420636F6DB9
:102680006D616E643A2000506C65617365207265FF
:10269000736574005052494E5445522048414C5481
:1026A0004544005072696E7465722068616C74658F
:1026B000642E206B696C6C28292063616C6C6564E6
:1026C000210A000000000000000000000000005788
:1026D00061726E696E673A20486F6D696E6720425D
:1026E000756D702044697669736F72203C20310AE1
:1026F000000202040000A0400000A04000000040D2
:10270000000048430000484300004843FFFFFF41EA
:1027100063746976652045787472756465723A20D1
:10272000005654726176206D696E0056547261765F
:10273000206D696E005654726176206D696E005688
:102740006D696E00566D696E00566D696E00566D4E
:10275000617820453200566D617820453200566D13
:10276000617820453200566D617820453100566D04
:10277000617820453100566D617820453100566DF5
:102780006178204500566D6178204500566D61786E
:10279000204500566D6178205A00566D6178205AA8
:1027A00000566D6178205A00566D617820590056A8
:1027B0006D6178205900566D6178205900566D6121
:1027C00078205800566D6178205800566D61782049
:1027D00058004D6F74696F6E00416D61782045320D
:1027E00000416D617820453200416D6178204532AD
:1027F00000416D617820453100416D61782045319F
:1028000000416D617820453100416D6178204500BF
:10281000416D6178204500416D6178204500416D32
:102820006178205A00416D6178205A00416D6178CD
:10283000205A00416D6178205900416D617820591E
:1028400000416D6178205900416D61782058004148
:102850006D6178205800416D6178205800412D74D9
:10286000726176656C00412D74726176656C004111
:102870002D7265747261637400412D7265747261AA
:10288000637400416363656C00416363656C004D74
:102890006F74696F6E00436F6E74726F6C0050726C
:1028A00065706172650054756E6500496E666F20D3
:1028B00073637265656E00466C6F77203200466CFC
:1028C0006F77203200466C6F77203100466C6F774F
:1028D000203100466C6F7700466C6F770046616E62
:1028E0002073706565640046616E20737065656471
:1028F0000042656400426564004E6F7A7A6C652020
:1029000032004E6F7A7A6C652032004E6F7A7A6CA4
:10291000652031004E6F7A7A6C6520310053706506
:102920006564005370656564004D61696E0085B033
:1029300011241FBECFEFD1E2DEBFCDBF00E00CBF40
:1029400013E0A0E0B2E0E8E4FFE701E00BBF02C063
:1029500007900D92A838B107D9F72FE0A8E8B3E0A7
:1029600001C01D92A638B207E1F714E1C8E9D4E12D
:1029700000E006C021970109802FFE010E944EBF92
:10298000C739D10780E00807A9F70E9420A90C9455
:10299000A2BF0C9400002F923F924F925F926F92D1
:1029A0007F928F929F92AF92BF92CF92DF92EF92DF
:1029B000FF920F931F93CF93DF93CDB7DEB7CC5722
:1029C000D1090FB6F894DEBF0FBECDBF81E090E015
:1029D0009093140F8093130F809152048D3409F457
:1029E000CCC6843511F40C948A2B873411F00C94E6
:1029F000B92B80915004909151048430910509F4D1
:102A000003C554F497FF02C00C94D32B2091750298
:102A1000823091054CF523C08A35910509F4FDC536
:102A20002CF44C9709F436C50C94D32B8B359105B7
:102A300009F4F7C58C35910511F00C94D32B0E9445
:102A4000B65AFDE92F2EF2E03F2EA2E2CA2EAFE0E9
:102A5000DA2EE12CF12C00E010E01C8E23C62111AF
:102A60000C94DA2B0C94D32B222311F40C94D32B3B
:102A700011E0029709F010E00E94D03382E50E9435
:102A8000C433882309F42AC10E9462336B017C019C
:102A90004090B80B5090B90B6090BA0B7090BB0B84
:102AA0002091BC0B3091BD0B4091BE0B5091BF0BE0
:102AB0002C8F3D8F4E8F5F8F8091A80B9091A90B2B
:102AC000A091AA0BB091AB0B88A399A3AAA3BBA317
:102AD0002091AC0B3091AD0B4091AE0B5091AF0BF0
:102AE0002CA73DA74EA75FA720E030E0A901C701B2
:102AF000B6010E9446B8882309F46CC4A301920170
:102B000068A179A18AA19BA10E9446B881110DC03C
:102B10002C8D3D8D4E8D5F8D6CA57DA58EA59FA5C1
:102B20000E9446B8882309F455C420E030E0A9018A
:102B3000C701B6010E9446B8881F8827881F18134E
:102B400009C080E090E0A0E8BFE38CAB9DABAEABEA
:102B5000BFAB08C020E030E040E85FEB2CAB3DAB02
:102B60004EAB5FABA301920168A179A18AA19BA1A1
:102B70000E9446BC68A779A78AA79BA72C8D3D8D8C
:102B80004E8D5F8D6CA57DA58EA59FA50E9446BC30
:102B900068AB79AB8AAB9BAB28A539A54AA55BA5E9
:102BA000CA01B9010E94ABB84B015C0128A939A93F
:102BB0004AA95BA9CA01B9010E94ABB89B01AC014B
:102BC000C501B4010E9447BC0E94B2BE6CA37DA3A4
:102BD0008EA39FA320E030E040E05FE30E94ABB80B
:102BE0004B015C01A7019601C701B6010E94ABB879
:102BF0006B017C01A5019401C501B4010E94ABB831
:102C00009B01AC01C701B6010E9446BC0E94B2BE46
:102C10009B01AC016CA97DA98EA99FA90E94ABB8AC
:102C20004B015C0128A139A14AA15BA1C301B201FA
:102C30000E9447BC20E030E040E05FE30E94ABB878
:102C40006B017C0168A979A98AA99BA990582CA13C
:102C50003DA14EA15FA10E9423BD9B01AC01C50116
:102C6000B4010E94ABB89B01AC01C701B6010E9440
:102C700047BCA30192010E9446BC6B017C012CA5BC
:102C80003DA54EA55FA56C8D7D8D8E8D9F8D0E947F
:102C900047BC20E030E040E05FE30E94ABB82B018E
:102CA0003C012CA13DA14EA15FA168A579A58AA5F3
:102CB0009BA50E9423BD9B01AC01C501B4010E94EC
:102CC000ABB89B01AC01C301B2010E9447BC2C8D83
:102CD0003D8D4E8D5F8D0E9446BC14C089E40E94DC
:102CE000C433882329F00E9462336B017C0103C046
:102CF000C12CD12C76018AE40E94C4338823D9F0F8
:102D00000E9462336CA77DA78EA79FA720E030E0CA
:102D1000A901C701B6010E9446B881111AC020E07E
:102D200030E0A9016CA57DA58EA59FA50E9446B89F
:102D300081110FC04FC320E030E0A901C701B601E7
:102D40000E9446B8882309F445C31CA61DA61EA6EA
:102D50001FA6D701C601B0588C8F9D8FAE8FBF8F35
:102D60002CA53DA54EA55FA5505828A339A34AA37D
:102D70005BA39C01AD01BC01CD010E94ABB84B012E
:102D80005C0128A139A14AA15BA1CA01B9010E9435
:102D9000ABB89B01AC01C501B4010E9447BC0E94C5
:102DA000B2BE28966CAF7DAF8EAF9FAF2897809153
:102DB000B80B9091B90BA091BA0BB091BB0B8CA33F
:102DC0009DA3AEA3BFA3A7019601BC01CD010E94A4
:102DD00047BC6CAB7DAB8EAB9FAB2091BC0B3091F5
:102DE000BD0B4091BE0B5091BF0B28AB39AB4AAB2A
:102DF0005BAB2CA53DA54EA55FA568A979A98AA9BD
:102E00009BA90E9447BC68AF79AF8AAF9BAF809106
:102E1000A80B9091A90BA091AA0BB091AB0B8CAF12
:102E20009DAFAEAFBFAF2CA93DA94EA95FA9BC0114
:102E3000CD010E9446BC6B017C012091AC0B30910E
:102E4000AD0B4091AE0B5091AF0B24962CAF3DAF24
:102E50004EAF5FAF249728AD39AD4AAD5BAD249638
:102E60006CAD7DAD8EAD9FAD24970E9446BC4B01ED
:102E70005C018091C00B9091C10BA091C20BB091ED
:102E8000C30B60968CAF9DAFAEAFBFAF60979C0198
:102E9000AD016091B00B7091B10B8091B20B90912C
:102EA000B30B0E9446BC68A779A78AA79BA720916D
:102EB000B40B3091B50B4091B60B5091B70B2C96DB
:102EC0002CAF3DAF4EAF5FAF2C978091C40B90916C
:102ED000C50BA091C60BB091C70B64968CAF9DAF8C
:102EE000AEAFBFAF6497A70196016C8D7D8D8E8DBF
:102EF0009F8D0E94ABB82B013C01A501940168A1F4
:102F000079A18AA19BA10E94ABB89B01AC01C3012E
:102F1000B2010E9447BC2B013C01A50194016C8DBC
:102F20007D8D8E8D9F8D0E94ABB84B015C01A701FA
:102F3000960168A179A18AA19BA10E94ABB89B01CF
:102F4000AC01C501B4010E9446BCA30192010E94DC
:102F5000BABC6B017C0120E030E0A9010E9446B8B8
:102F600087FF0AC02BED3FE049EC50E4C701B601F2
:102F70000E9447BC6B017C01112351F02BED3FE017
:102F800049EC50E4C701B6010E9446BC6B017C01CC
:102F900020E030E0A901C701B6010E9446B88111C6
:102FA00022C02CAD3DAD4EAD5FAD6CA17DA18EA11B
:102FB0009FA10E9446B8811116C024962CAD3DAD4C
:102FC0004EAD5FAD249768A979A98AA99BA90E94F3
:102FD00046B8811108C01BEDC12E1FE0D12E19EC9F
:102FE000E12E10E4F12E28962CAD3DAD4EAD5FAD37
:102FF0002897C701B6010E94ABB89B01AC010E94A3
:10300000ABB84B015C0128A539A54AA55BA5CA014F
:10301000B9010E94ABB89B01AC01C501B4010E948B
:1030200047BC0E94B2BE4B015C012FE632E143E88F
:103030005AE30E9446B887FDC9C1C501B4010E9488
:10304000BCBD0E9490BD1B01672B19F42224239460
:10305000312CB10180E090E00E944AB84B015C0144
:103060009B01AC01C701B6010E9423BD6CA37DA3E7
:103070008EA39FA3A501940168A579A58AA59BA508
:103080000E9423BD28966CAF7DAF8EAF9FAF28976F
:1030900064962CAD3DAD4EAD5FAD64972C966CAD96
:1030A0007DAD8EAD9FAD2C970E9446BCA5019401CD
:1030B0000E9423BD2C966CAF7DAF8EAF9FAF2C9737
:1030C0002CA13DA14EA15FA1CA01B9010E94ABB8DC
:1030D00020E030E040E05FE30E94ABB89B01AC0130
:1030E00060E070E080E89FE30E9446BC6CAF7DAF7B
:1030F0008EAF9FAF60962CAD3DAD4EAD5FAD60978E
:1031000029873A874B875C8764968CAD9DADAEADC1
:10311000BFAD64978D879E87AF87B88B60919B0208
:1031200070919C02072E000C880B990B0E944CB8E2
:1031300020912D0230912E0240912F0250913002A9
:103140000E94ABB82AE037ED43E25CE30E94ABB8E3
:103150006E8B7F8B888F998F0E948C459B01AC0171
:1031600028533F4F4F4F5F4F24962CAF3DAF4EAF8C
:103170005FAF24974C8C5D8C6E8C7F8C41E050E06F
:1031800059AB48AB59E158A7A8A9B9A9A215B305ED
:1031900009F40BC10E94157A0E948C45DC01CB0119
:1031A00024962CAD3DAD4EAD5FAD2497821B930BA5
:1031B000A40BB50BB7FD10C00E948C459B01AC0160
:1031C00028533F4F4F4F5F4F24962CAF3DAF4EAF2C
:1031D0005FAF24970E94259C38A5315038A7332330
:1031E000E9F12CAD3DAD4EAD5FAD68A179A18AA1ED
:1031F0009BA10E94ABB86B017C012CA13DA14EA10B
:103200005FA1B201C3010E94ABB8A70196010E9461
:1032100047BC7B018C012CAD3DAD4EAD5FADB20125
:10322000C3010E94ABB84B015C012CA13DA14EA192
:103230005FA168A179A18AA19BA10E94ABB89B0163
:10324000AC01C501B4010E9446BC2B013C01C70181
:10325000D80188A399A3AAA3BBA351C048A959A97F
:10326000BA0180E090E00E944AB82CA13DA14EA195
:103270005FA10E94ABB84B015C010E9420BD6B01B5
:103280007C01C501B4010E94A8BE4B015C01A701ED
:1032900096016C8D7D8D8E8D9F8D0E94ABB82B011C
:1032A0003C01A50194016CA57DA58EA59FA50E945A
:1032B000ABB89B01AC01C301B2010E9447BC2B011A
:1032C0003C01A50194016C8D7D8D8E8D9F8D0E949A
:1032D000ABB84B015C01A70196016CA57DA58EA53D
:1032E0009FA50E94ABB89B01AC01C501B4010E942F
:1032F00046BC68A379A38AA39BA359E158A792016E
:10330000A3016CA97DA98EA99FA90E9447BC6983CE
:103310007A838B839C8328A139A14AA15BA168ADE4
:1033200079AD8AAD9BAD0E9447BC6D837E838F8350
:10333000988728962CAD3DAD4EAD5FAD2897698539
:103340007A858B859C850E9447BC69877A878B87A5
:103350009C872C962CAD3DAD4EAD5FAD2C976D8509
:103360007E858F8598890E9447BC6D877E878F8771
:10337000988BCE0101960E94C59EE0902B0D8E0188
:103380000A5E1F4F9E01235F3F4FAE01475F5F4FB5
:10339000BE016B5F7F4FCE0101960E94CA8F88A944
:1033A00099A9019699AB88ABEFCEE0902B0D8E01D9
:1033B0000A5E1F4F24EB3BE040EB5BE06CEA7BE0F6
:1033C00088EA9BE00E94CA8F0E94D1340E94DB34BD
:1033D0000C94D32BE5E7FFE184918F010F5F1F4F22
:1033E000882321F00E948A35F801F6CFE1E2F2E06D
:1033F00084918F010F5F1F4F882311F40C94D32BFE
:103400000E948A35F801F4CF80E50E94C4338823F6
:1034100029F00E9422336B017C0103C0C12CD12C06
:10342000760183E50E94C433882361F00E946233F1
:1034300020E030E04AE754E40E94ABB80E9490BD1F
:103440006B017C010E94B65A80913202811105C045
:1034500060E087E392E00E94846A0E94DB348091FE
:103460001A0F90911B0FA0911C0FB0911D0FC80E49
:10347000D91EEA1EFB1E0E948C45DC01CB018C1973
:103480009D09AE09BF09B7FD02C00C94D32B0E9461
:10349000259CF1CF0E94B65AF0902B0D21E040E020
:1034A00050E0BA0180E00E94D49980912D02909161
:1034B0002E02A0912F02B091300280939B03909333
:1034C0009C03A0939D03B0939E0380919B029091D7
:1034D0009C0290939A038093990384E690E09093E2
:1034E0009C0280939B020E94DB3481E08093360C27
:1034F00088E50E949533D82E89E50E949533082FE0
:103500008AE50E949533E82ED11005C0011105C04F
:1035100011E0182705C0011102C010E001C0182FEA
:103520000E94C734111104C0D11002C00023D1F190
:1035300080E090E0A0EAB0E48093B00B9093B10BF0
:10354000A093B20BB093B30B9C01AD016091C00B83
:103550007091C10B8091C20B9091C30B0E9446B831
:1035600087FF0DC019821A821B821C82AE014F5F39
:103570005F4F6CEB7BE088EB9BE00E94B06F11111A
:1035800005C0D11003C0011107C00CC080E090E05D
:103590000E94D39A1123B9F381E090E00E94D39A5C
:1035A000111102C0EE2021F082E090E00E94D39A37
:1035B0000E94A5328091350C8093360C80919B033C
:1035C00090919C03A0919D03B0919E0380932D0246
:1035D00090932E02A0932F02B09330028091990312
:1035E00090919A0390939C0280939B020E94DB34FB
:1035F000B1E0BF1520F48F2D0E94B03707C021E045
:1036000040E050E0BA018F2D0E94D49983E080936E
:1036100031020E94DA380C94D32B109298030C9448
:10362000D32B81E0809398030C94D32B0E946233B8
:103630004B015C010330110559F0F701E159F14FDD
:1036400020813181428153810E9446BC4B015C0143
:10365000F701E854F44F2081318142815381C50143
:10366000B4010E9446BC2B013C012DEB37E346E838
:1036700055EB0E946DBE87FD1DC02DEB37E346E87C
:1036800055E3C301B2010E9446B818169CF00F5FC3
:103690001F4FF4E0CF0ED11C24E0E20EF11C0430E9
:1036A000110541F1F10181911F010E94C43388236A
:1036B00071F3BCCF0330110559F48092C40B909282
:1036C000C50BA092C60BB092C70BF1E0FC8FDFCF09
:1036D000A3019201D6016D917D918D919C910E94E3
:1036E00047BCF6016083718382839383C8010E9483
:1036F0006432CDCF3C8D3323E1F1E0912B0DE0938B
:103700005506C090C40BD090C50BE090C60BF0904E
:10371000C70BED5F44E0E49FF0011124E15FF24F3D
:103720002081318142815381C701B6010E94ABB82B
:103730000E9478BE60932F0C7093300C8093310CF4
:103740009093320CC701B6010E948BBD2FB7F8943D
:103750006093770C7093780C8093790C90937A0C2B
:103760002FBF10921F0C1092200C1092210C10925F
:10377000220C0E94DA380C94D32B80915004909143
:1037800051048737910509F442C60CF08DC08C3581
:10379000910509F4F7C40CF052C08B34910509F47B
:1037A0006EC2D4F48131910509F435C144F4029715
:1037B00010F00C94D32B0E94E6340C94D32B8F3151
:1037C000910509F43BC18A32910509F418C2429768
:1037D00011F00C94D32B84C48235910509F477C47D
:1037E00014F58D34910509F468C20CF44CC281358E
:1037F000910511F00C94D32B0E94A5750E94B65A26
:103800000E94B09B109236061092350668EE73E067
:1038100080E090E00E94AA6960E088E293E00E9464
:10382000846A0C94D32B8435910509F459C40CF4A3
:1038300052C48535910509F48AC40C94D32B8E3675
:10384000910509F4A0C2B4F48A36910509F408C4BC
:1038500054F48836910509F434C28936910509F487
:1038600085C30C94D32B8C36910509F42DC30CF42D
:103870001CC4C0C38237910509F41CC53CF48037D1
:10388000910509F425C30CF491C226C3853791052F
:1038900009F468C50CF07CC58337910511F00C94D0
:1038A000D32BEFEEF3E00CC58C3D910511F40C9495
:1038B0008F250CF052C0883C910509F48FC614F591
:1038C0008C38910509F434C37CF48837910509F4E8
:1038D00004C68937910511F00C94D32B1092360C45
:1038E0001092350C0C94D32B8B39910509F45BC3E2
:1038F0008E3B910509F49AC38139910511F00C941E
:10390000D32BF2C58D3C910509F495C764F48B3C2B
:10391000910509F4FBC60CF024C7893C910509F414
:10392000C2C60C94D32B833D910511F40C94A224B0
:103930008A3D910511F40C9482258E3C910511F07D
:103940000C94D32BFDE9CF2EF2E0DF2EA0E2EA2E7D
:10395000A4E0FA2E00E010E0E3C7803951E09507BB
:1039600011F40C94522A5CF58D32B1E09B0711F4EE
:103970000C94352694F4823E910511F40C94E225C2
:103980008C32F1E09F0711F40C940C268D3D9105CB
:1039900011F00C94D32B0C949C258F3221E09207CC
:1039A00011F40C94272714F40C94D32683369140F9
:1039B00011F00C94D32BE5E7FFE10C945F2B853FCE
:1039C00051E0950711F40C944B2BACF48C3AB1E018
:1039D0009B0711F40C94552A843FE1E09E0711F4F3
:1039E0000C94322B8A39914011F00C94D32B0E9405
:1039F0006B340C94D32B873F21E0920711F40C9485
:103A0000542B14F40C94512B873E934011F40C94D6
:103A1000762B0C94D32B60E080E492E00E94846AC1
:103A20005F988A989FB7F894809108018E7F809361
:103A300008019FBF129847980C94D32B8091550C86
:103A40009091560C019719F40E948C4508C0609122
:103A50005F0C7091600C8091610C9091620C0091F0
:103A60005B0C10915C0C20915D0C30915E0C601B26
:103A7000710B820B930B28EE33E040E050E00E9484
:103A80000BBC8091570C9091580CA091590CB0919F
:103A90005A0CBC01CD01620F731F841F951FECE30C
:103AA000CE2ED12CE12CF12CA70196010E940BBC4B
:103AB000762E672ECA01B901A70196010E940BBCA0
:103AC0006B017C01CA01B90128E130E040E050E01F
:103AD0000E940BBC4B015C01C9016DE671E00E94C4
:103AE0000BBF8E010F5F1F4F6115710599F06F922B
:103AF0007F92DF92CF929F928F929F938F937F932B
:103B00006F9381E792E09F938F931F930F930E948F
:103B1000DFB712C00097B1F06F927F92DF92CF9221
:103B20009F928F929F938F9381E692E09F938F93C2
:103B30001F930F930E94DFB70FB6F894DEBF0FBE3E
:103B4000CDBF36C081149104A104B10479F06F9205
:103B50007F92DF92CF929F928F9285E592E09F9322
:103B60008F931F930F930E94DFB7E6CFC114D10448
:103B7000E104F10469F06F927F92DF92CF928DE4BD
:103B800092E09F938F931F930F930E94DFB7D4CF40
:103B90006F927F9289E492E09F938F931F930F938C
:103BA0000E94DFB70F900F900F900F900F900F9023
:103BB0008091C80B81110CC042E450E0B80182E34F
:103BC00092E00E9488BF0E94666A83E0809331027F
:103BD000EFE5FFE184917F013FEFE31AF30A8823C9
:103BE00021F00E948A35F701F5CFB80185E892E00F
:103BF0000E9474628AE00E948A350C94D32B83E57C
:103C00000E94C433882311F40C94D32B0E944233B6
:103C1000E82E80E50E94C433882341F00E943233AD
:103C20008B0177FF02C00C94D32B02C00DE010E093
:103C3000902FE7EDF5E080E38E0F2491921729F0A5
:103C400031968E13FACF0C94B82CE5E7FFE18491FE
:103C50008F010F5F1F4F882321F00E948A35F801E2
:103C6000F6CFE2E9F2E084918F010F5F1F4F8823C6
:103C700011F40C94D32B0E948A35F801F4CF0E94E2
:103C8000456F0C94D32B8091550C9091560C019755
:103C900011F00C94D32B82E090E09093560C80931B
:103CA000550C0E948C4560935F0C7093600C809360
:103CB000610C9093620C0C94D32B0E94C96D0C94F0
:103CC000D32B88E690E00E94D43781110C94D32B3B
:103CD0008091550483FF02C00C94D32B83E50E948E
:103CE000C433882309F44BC00E946233F0907F0CE8
:103CF0000F2D10E0000F111F075C194F0E948BBDA4
:103D0000D8016D937C938F2D0E944D750E94623374
:103D100020E030E04AEA52E40E9446B818163CF02F
:103D20000E94C96D60E088EA92E00E94846A0E9465
:103D3000623300917F0C10E0F801EE0FFF1FEE0FD1
:103D4000FF1FED59F14F20813181428153810E9443
:103D50006DBE1816A4F48CEE92E09F938F930F5FC4
:103D60001F4F1F930F9381EA92E09F938F931F92AF
:103D70000E942B6F0FB6F894DEBF0FBECDBF0E941E
:103D800005AF0C94D32B8EE40E94C433882311F426
:103D90000C94D32B0E9432336093CB0B7093CC0BDB
:103DA0008093CD0B9093CE0B0C94D32B83E50E9484
:103DB0009533882359F083E50E94C433882319F092
:103DC0000E94423301C080E080935504EFE5FFE19B
:103DD00084918F010F5F1F4F882321F00E948A3545
:103DE000F801F6CFE8ECF2E084918F010F5F1F4FEE
:103DF000882321F00E948A35F801F6CF809155047E
:103E00008823A1F13AEBC32E32E0D32EE12CF12C22
:103E100020E08091550490E00E2C02C09595879586
:103E20000A94E2F780FF17C0BB24B394B20E22239A
:103E300019F08CE20E948A35F60125913491F9013E
:103E4000849189010F5F1F4F882321F00E948A35DA
:103E50009801F5CF2B2DFFEFEF1AFF0A32E0C30ECA
:103E6000D11C45E0E416F104A1F629C0E4ECF2E02F
:103E700084918F010F5F1F4F882309F10E948A35BB
:103E8000F801F6CF09EF15E080E20E948A35D801EB
:103E90006D917D918D919D918D0142E00E946938D7
:103EA0008CE20E948A35F801648175818681978150
:103EB00042E00E946938F6E001301F0729F78AE0E6
:103EC0000E948A350C94D32B109200020C94D32BB1
:103ED0008FEC92E00E94C09B83E50E94C43388234C
:103EE00069F00E9442338D3320F480938A020C944F
:103EF000D32B8CE380938A020C94D32BEFE5FFE164
:103F000084918F010F5F1F4F882321F00E948A3513
:103F1000F801F6CF40918A0250E060E070E088ED51
:103F200092E00E9404628AE00E948A350C94D32BAE
:103F30008091550483FF02C00C94D32B83E50E942B
:103F4000C433882311F40C94D32B0E9462330E9453
:103F50008BBD6739710514F066E970E0709338061F
:103F6000609337060E9402750C94D32B89E690E08B
:103F70000E94D437811111C0EFEDF2E084918F01DE
:103F80000F5F1F4F882321F00E948A35F801F6CF7A
:103F90000E9411748AE00E948A351092140F1092C8
:103FA000130F0C949D3183E50E94C433882311F4D0
:103FB0000C94D32B0E944233182F8D3308F01CE34E
:103FC0001093190F0E948C456B017C01212F30E06A
:103FD000A8EEB3E00E9437BCC60ED71EE81EF91E3D
:103FE000C092150FD092160FE092170FF092180F93
:103FF0000C94D32B8DE690E00E94D43781110C9461
:10400000D32B8091550483FF02C00C94D32B83E5FE
:104010000E94C4338CA781110C94CE2C82E50E949F
:10402000C43381110C94CE2C0C94D32B8091550465
:1040300083FF02C00C94D32B60E08BE193E00E94DD
:10404000846A83E50E94C4338CA781110C944F2E9F
:1040500082E50E94C43381110C944F2E0C94D32B13
:1040600080E50E94C433811108C083E50E94C433F7
:10407000811109C03FEF20E00AC00E944233811144
:104080000C94D32BF2CF0E943233362F272F832F5D
:10409000922F8F3F910519F010F08FEF90E09093E1
:1040A0003606809335060C94D32B80E50E94C433EA
:1040B000811106C010923606109235060C94D32B4F
:1040C0000E943233672B11F00C94D32BF3CF109254
:1040D00097030C94D32B81E0809397030C94D32BFC
:1040E00083E50E94C4338823A1F00E94623320E05C
:1040F00030E04AE754E40E94ABB80E9490BD609360
:104100008B0270938C0280938D0290938E020C949C
:10411000D32B88E50E94953381110C94882F89E573
:104120000E94953381110C94882F8AE50E94953363
:1041300081110C94882F85E40E94953381110C9491
:10414000882F0E94B65A0E94B09B0C94D32B83E513
:104150000E949533882311F40C94D32B0E94623370
:1041600020E030E04AE754E40E94ABB80E9490BDE2
:1041700060931E0F70931F0F8093200F9093210F59
:104180000C94D32B8CE590E00E94D43781110C94D1
:10419000D32BADE9B2E0BD8FAC8F4FE0C42E4DE024
:1041A000D42EF12CEC8DFD8D8191FD8FEC8F0E9432
:1041B0009533882309F473C0F3E0FF1268C00E94AE
:1041C00062332B013C0120E030E040EA51E40E94E0
:1041D00046B8E0907F0C87FF4FC00E2D10E00D5FBA
:1041E0001F4F000F111F000F111FF801E15FF24F69
:1041F000A301920160817181828193810E9423BD1C
:104200004B015C019B01AC0160910B0D70910C0D99
:1042100080910D0D90910E0D0E94ABB860930B0D27
:1042200070930C0D80930D0D90930E0D9801205CF2
:10423000304F1901A5019401D1016D917D918D91AE
:104240009C910E94ABB8F101608371838283938358
:10425000065A194FD8016D917D918D919C910E94C4
:104260004AB8A50194010E94ABB80E9490BDF80124
:10427000608371838283938324E0E29EF0011124A2
:10428000E55EF24F408251826282738208C00E94D2
:104290006233D6016D937D938D939C931397F39422
:1042A000B4E0CB0ED11CE4E0FE127CCF0E94EC63A4
:1042B0000C94D32B0E94B65A0E94DA380C94D32B5C
:1042C00084918F010F5F1F4F882321F00E948A3550
:1042D000F801F6CF60E08FED93E00E942A3860E0AD
:1042E00088ED93E00E942A3861E08DEC93E00E9413
:1042F0002A3861E08DEB93E00E942A3860E084EB7D
:1043000093E00E942A3861E08AEA93E00E942A380A
:1043100060E080EA93E00E942A3860E088E993E058
:104320000E942A3860E08AE893E00E942A3860E020
:104330008CE793E00E942A3860E08DE693E00E94CB
:104340002A3860E08FE593E00E942A3860E089E433
:1043500093E00E942A3860E088E393E00E942A38C4
:104360000C94D32B60914E0470914F048091C80B34
:1043700081110C94D32B42E450E082E392E00E943E
:1043800088BF0E94666A83E0809331020C94D32B2D
:1043900085E40E94C433882319F00E94533303C07C
:1043A00085E40E949533882361F0EFE5FFE1849175
:1043B0008F010F5F1F4F882321F00E948A35F8017B
:1043C000F6CF81E40E94C433882319F00E9453334E
:1043D00003C081E40E949533882361F0E5EBF4E0AB
:1043E00084918F010F5F1F4F882321F00E948A352F
:1043F000F801F6CF00914E0410914F04D8018D9131
:104400008D01882309F45BCD0E948A35F7CFE1ED59
:10441000F4E084918F010F5F1F4F882321F00E94E9
:104420008A35F801F6CFE9ECF4E084918F010F5F53
:104430001F4F882321F00E948A35F801F6CF659B33
:1044400003C009ED12E002C00EED12E0F801819107
:104450008F01882319F00E948A35F8CF8AE00E94E4
:104460008A35E1ECF4E084918F010F5F1F4F8823C0
:1044700021F00E948A35F801F6CF8091030181FF77
:1044800003C009ED12E002C00EED12E0D8018D91DB
:104490008D01882319F00E948A35F8CF8AE00E94A6
:1044A0008A35E9EBF4E084918F010F5F1F4F882379
:1044B00021F00E948A35F801F6CF4B9B03C009ED2D
:1044C00012E002C00EED12E0F80181918F01882305
:1044D00009F4F5CC0E948A35F7CF81E08093360C41
:1044E0008093350C0C94D32B83E50E94C43388232E
:1044F00019F00E94323302C060E070E08B01112796
:1045000002301105D4F0E5E7FFE184918F010F5FE0
:104510001F4F882321F00E948A35F801F6CFEBEE79
:10452000F4E084918F010F5F1F4F882311F40C94E6
:10453000D32B0E948A35F801F4CF88E40E94C4335B
:104540008823A9F00E9432336A3A71053CF0653045
:10455000F1E07F072CF064E071E002C06AEA70E0ED
:10456000F801EE0FFF1FEF5BF94F7183608386E464
:104570000E94C4338823A9F00E943233F801EE0F61
:10458000FF1FEB5BF94F718360836F3F710519F07B
:1045900014F06FEF70E077FF02C060E070E07183AD
:1045A000608382E40E94C433882311F40C94D32BDB
:1045B0000E9432336530710534F0683871052CF093
:1045C00067E870E002C065E070E0000F111FF801BD
:1045D000E35CF94F718360830C94D32B88EC90E0FB
:1045E0000E94D43781110C94D32B84E40E9495331C
:1045F000882309F454C00E94623311E020E030E0C7
:10460000A9010E9446B8811101C010E010932C0D41
:10461000112309F444C00E946233E0917F0C24E02E
:10462000E29FF0011124ED5DF24F6083718382837C
:10463000938320E030E0A9016091230D7091240D57
:104640008091250D9091260D0E9446B881110CC0D5
:1046500080E090E0A0EEBFE38093230D9093240DC3
:10466000A093250DB093260D20E030E0A9016091C4
:10467000270D7091280D8091290D90912A0D0E948F
:1046800046B881110CC080E090E0A0EEBFE38093BB
:10469000270D9093280DA093290DB0932A0D0E9409
:1046A000EA820C94D32B89EC90E00E94D4378111DC
:1046B0000C94D32B1DE9C12E12E0D12EF12CD60182
:1046C0008D916D010E9495338823C1F0B3E0FB12F8
:1046D00003C000917F0C01C000E00E9462330F0D07
:1046E000E4E00E9F800111240C5A104F0E9490BDEF
:1046F000D8016D937D938D939C931397F394B4E0BD
:10470000FB12DDCF0E949C620C94D32B8BEC90E0CB
:104710000E94D43781110C94D32BBDE9EB2EB2E06B
:10472000FB2E00E0F70181917F010E9495338823E1
:1047300099F0033019F410917F0C01C010E00E9431
:104740006233100F24E0129FF0011124E05CF04F5F
:1047500060837183828393830F5F043019F70C9415
:10476000D32B83E50E9495338823D9F00E946233CE
:10477000AB01BC014093700F5093710F6093720FA7
:104780007093730F4093680F5093690F60936A0F93
:1047900070936B0F87E695E00E943E628AE00E946C
:1047A0008A3580E50E949533882399F00E94623310
:1047B000AB01BC014093700F5093710F6093720F67
:1047C0007093730F8AE495E00E943E628AE00E9433
:1047D0008A3582E50E949533882399F00E946233DE
:1047E000AB01BC0140936C0F50936D0F60936E0F43
:1047F00070936F0F8BE295E00E943E628AE00E9408
:104800008A3584E50E949533882309F4CCC70E9439
:104810006233AB01BC014093680F5093690F609302
:104820006A0F70936B0F8DE095E00E943E628AE004
:104830000E948A35B8C783E50E949533882351F0DA
:104840000E94623360933C0F70933D0F80933E0F44
:1048500090933F0F84E50E949533882351F00E9486
:1048600062336093380F7093390F80933A0F9093AF
:104870003B0F82E40E949533882351F00E9422333B
:104880006093340D7093350D8093360D9093370DF2
:1048900088E50E949533882351F00E94623360932B
:1048A000FF0C7093000D8093010D9093020D89E52C
:1048B0000E949533882351F00E9462336093030D68
:1048C0007093040D8093050D9093060D8AE50E9468
:1048D0009533882351F00E9462336093070D7093E3
:1048E000080D8093090D90930A0D85E40E9495337D
:1048F000882309F458C70E94623360930B0D7093AC
:104900000C0D80930D0D90930E0D4DC70F5F1F4F33
:10491000F4E0EF0EF11C0330110511F40C94B91BF7
:10492000D6018D916D010E949533882379F30E9401
:104930006233F7016083718382839383C8010E948D
:104940006432E4CFEFE5FFE184918F010F5F1F4FE9
:10495000882321F00E948A35F801F6CF83E50E9472
:104960009533882321F00E94533380931702E7EB9D
:10497000F5E084918F010F5F1F4F882321F00E9483
:104980008A35F801F6CF80911702811103C0E3EB5D
:10499000F5E002C0EFEAF5E084918F010F5F1F4F51
:1049A000882321F00E948A35F801F6CFE7EAF5E086
:1049B00084918F010F5F1F4F882321F00E948A3559
:1049C000F801F6CF20916F0E3091700E4091710E6C
:1049D0005091720E609188037091890380918A03CF
:1049E00090918B030E9447BCAB01BC0185EA95E026
:1049F0000E943E622091730E3091740E4091750EAC
:104A00005091760E60918C0370918D0380918E038E
:104A100090918F030E9447BCAB01BC0182EA95E0F4
:104A20000E943E622091770E3091780E4091790E6F
:104A300050917A0E6091900370919103809192034E
:104A4000909193030E9447BCAB01BC018FE995E0B4
:104A50000E943E62E7E9F5E084918F010F5F1F4FEE
:104A6000882321F00E948A35F801F6CF20916F0E3D
:104A70003091700E4091710E5091720E60910B0248
:104A800070910C0280910D0290910E020E9447BC21
:104A9000AB01BC0185E995E00E943E622091730E56
:104AA0003091740E4091750E5091760E60910F0208
:104AB0007091100280911102909112020E9447BCE5
:104AC000AB01BC0182E995E00E943E622091770E25
:104AD0003091780E4091790E50917A0E60911302C8
:104AE0007091140280911502909116020E9447BCA9
:104AF000AB01BC018FE895E00E943E628AE00E9413
:104B00008A3551C68AED90E00E94D43781114BC698
:104B100080917F0C882309F446C60C94AE2F83E560
:104B20000E94C433882309F43EC60E943233709336
:104B30009C0260939B0237C68DED90E00E94D437B3
:104B4000811131C683E50E94C433882309F42BC642
:104B500000917F0C10E00E943233000F111FF8010A
:104B6000E956FD4F7183608380917F0C90E07C015A
:104B7000EE0CFF1CEE0CFF1C870101571D4F880F28
:104B8000991FFC01E956FD4F60817181072E000CD1
:104B9000880B990B0E944CB82AE037ED43E25CE3A6
:104BA0000E94ABB8F701EA58F04F20813181428171
:104BB00053810E94ABB8D8016D937D938D939C93E4
:104BC0001397F1C580E50E949533882309F4EBC55E
:104BD0000E9432336B017C0183E50E94C433882339
:104BE00021F00E9432338B0102C00FEF1FEFC8018A
:104BF0000196039708F0D7C5D7FCD5C59C2DE7EDE6
:104C0000F5E080E38E0F2491921709F4CCC531961C
:104C10008E13F9CF0C94753183E50E94C433882339
:104C200019F00E94323302C064E071E07F8B6E8B1A
:104C300080E50E94C433882339F00E9432336938FA
:104C4000B3E17B0730F402C068EE73E07A836983D6
:104C500004C088E893E19A838983BE016A5E7F4F2E
:104C6000CE0101960E94F76E9EC585E40E94C43372
:104C7000811110C080E50E949533882391F00E9435
:104C80006233609328067093290680932A069093D6
:104C90002B0607C00E944233823060F3E5E7FFE154
:104CA00071C089E40E949533882381F00E946233A9
:104CB0002CEA35EC47E25EE30E94ABB86093300625
:104CC00070933106809332069093330684E40E94F9
:104CD0009533882381F00E9462332CEA35EC47E259
:104CE0005EE30E9423BD60932C0670932D06809393
:104CF0002E0690932F06EFE5FFE184918F010F5F61
:104D00001F4F882321F00E948A35F801F6CF409189
:104D100028065091290660912A0670912B068FE093
:104D200096E00E943E622CEA35EC47E25EE3609139
:104D300030067091310680913206909133060E94C0
:104D400023BDAB01BC018BE096E00E9421622CEAFE
:104D500035EC47E25EE360912C0670912D06809160
:104D60002E0690912F060E94ABB8AB01BC0187E0E4
:104D700096E00E9421628AE00E948A3514C50E9452
:104D80008A35F80184918F010F5F1F4F8111F7CF92
:104D900007EF12E0F80181918F01882309F48FC891
:104DA0000E948A35F7CF83E50E949533182F882318
:104DB00071F00E9462330E948BBD70937B026093FE
:104DC0007A0221E0672B09F020E02093330D80E583
:104DD0000E949533882359F020917A0230917B020A
:104DE000232B11F00E9453338093330DDCC4111137
:104DF000DAC4EFE5FFE184918F010F5F1F4F882335
:104E000021F00E948A35F801F6CF8091330D81118F
:104E100003C068EE72E002C06BED72E088E296E0DB
:104E20000E94746260917A0270917B0287E196E041
:104E30000E945B62E3E1F6E084918F010F5F1F4FF8
:104E4000882309F4B0C40E948A35F801F5CF85E4BF
:104E50000E94C433882321F00E9432338B0102C0A8
:104E600000E010E083E40E94C433882331F00E9404
:104E70003233A0966FAFA09704C025E0A0962FAF65
:104E8000A09785E50E94C433882319F00E9453330C
:104E900003C085E50E949533AD968FAFAD9717FDA2
:104EA00007C0812C912C96E1A92E93E4B92E06C05F
:104EB000812C912C8CE8A82E82E4B82E83E50E94E8
:104EC000C433882321F00E9462334B015C0102301D
:104ED000110510F400937F0C0E948C452B013C01BE
:104EE000023028F418E0C12E13E0D12E0CC00BE1E3
:104EF00013E0D8018D918D01882311F40C945F1F6C
:104F00000E948A35F6CFF60181916F01882319F04E
:104F10000E948A35F8CFAC960FAFAC97C501B401AB
:104F20000E948BBD072E000C880B990B0E944CB879
:104F30006CA77CA388A798ABA3019201205E314B9C
:104F40004F4F5F4FE9962CAF3DAF4EAF5FAFE99744
:104F50008AE00E948A350E94A575602F000F770BAA
:104F6000FB01E358F34F8FE7808381E080930002D9
:104F7000A7964CAE5DAE6EAE7FAEA797E1964CAEF7
:104F80005DAE6EAE7FAEE197A3961FAEA397E5969A
:104F90001CAE1DAE1EAE1FAEE59718AE30E43CAFA2
:104FA0004CE121964FAF219756E42D965FAF2D9798
:104FB00061961FAE619725961FAE259729961FAE65
:104FC000299765961FAE65976D961CAE1DAE1EAEF9
:104FD0001FAE6D9769961CAE1DAE1EAE1FAE6997D3
:104FE000C12CD12C7601AFE78A2E912CA12CB12CAB
:104FF0008FE790E0A0E0B0E088A399A3AAA3BBA3A9
:10500000AB961CAE1DAE1EAE1FAEAB9791E0A29646
:105010009FAFA2971DAA1CAA10E0212C312C00E002
:10502000660F771F660F771FDB01AD59B14F6F9683
:10503000BFAFAEAF6F97EB96FFAFEEAFEB97A0961B
:10504000EFADA0970E2E000CFF0BA196FFAFEEAFB9
:10505000A19780910002882309F4E0C00E948C454A
:105060006C8F7D8F8E8F9F8F80917B0C882309F4AE
:10507000B9C00E9482766F96AEADBFAD6F971C919E
:1050800011962C90119712963C90129713960C91B2
:10509000212F322D432D502F61966FAD61972596AC
:1050A0007FAD259729968FAD299765969FAD65971A
:1050B0000E9446B887FF0CC061961FAF6197259686
:1050C0002FAE259729963FAE299765960FAF659726
:1050D000212F322D432D502F68AD7CAD21968FAD01
:1050E00021972D969FAD2D970E946DBE181644F402
:1050F00018AF2CAE21963FAE21972D960FAF2D976E
:10510000A296BFADA2972CA53CA148A558A9612F96
:10511000722D832D902FBB2309F44AC00E946DBECF
:1051200018160CF05FC04C8D5D8D6E8D7F8D44190F
:10513000550966097709DB01CA0188589341A1091D
:10514000B109B7FD4FC088A199A1AAA1BBA1881937
:105150009909AA09BB09B595A79597958795EB96E7
:10516000EEADFFADEB978083AB964CAF5DAF6EAF0E
:105170007FAFAB97FCA56196FFAF61972CA12596F9
:105180002FAF259738A529963FAF299748A965964F
:105190004FAF65978C8D9D8DAE8DBF8DA7968CAFD3
:1051A0009DAFAEAFBFAFA797A2961FAEA2971AC092
:1051B0000E9446B887FF16C08C8D9D8DAE8DBF8D29
:1051C000A7962CAD3DAD4EAD5FADA797821B930B5F
:1051D000A40BB50BAC01BD014858534161097109DD
:1051E00077FFFAC620E030E040EA51E46CA57CA1EC
:1051F00088A598A90E9447BC9B01AC01612F722D24
:10520000832D902F0E946DBE18167CF4E3E3F7E027
:1052100084918F010F5F1F4F811103C00E94A575FC
:10522000C2C20E948A35F801F3CF8C8D9D8DAE8D60
:10523000BF8DE1962CAD3DAD4EAD5FADE197821BCC
:10524000930BA40BB50BB7FD92C00E9411748AE0BA
:105250000E948A358C8D9D8DAE8DBF8D8053984F69
:10526000AF4FBF4FE1968CAF9DAFAEAFBFAFE197F1
:10527000A3969FADA39791115DC0E5962CAD3DAD72
:105280004EAD5FADE597612F722D832D902F0E945B
:105290006DBE1816D4F520E030E040EC50E46CA56B
:1052A0007CA188A598A90E9446BC9B01AC01A1E005
:1052B000A396AFAFA397612F722D832D902F0E94DD
:1052C0006DBE18161CF0A3961FAEA39720E030E029
:1052D00040E050E4612F722D832D902F0E9447BC37
:1052E000E5966CAF7DAF8EAF9FAFE5972C8D3D8D72
:1052F0004E8D5F8D205E314B4F4F5F4FE9962CAF47
:105300003DAF4EAF5FAFE99732C08C8D9D8DAE8DB6
:10531000BF8DE9962CAD3DAD4EAD5FADE997821BDB
:10532000930BA40BB50BB7FD22C045E157E064E237
:1053300077E018C020E030E040EA51E46CA57CA1A1
:1053400088A598A90E9446BC9B01AC01612F722DD3
:10535000832D902F0E9446B887FF09C045EF56E085
:1053600065E077E0AC968FADAC970E94B6768C8DF9
:105370009D8DAE8DBF8D880F991FAA1FBB1FA7964D
:105380002CAD3DAD4EAD5FADA797821B930BA40B2B
:10539000B50B84199509A609B70981389F44A24124
:1053A000B10568F0E7EDF6E084918F010F5F1F4FC4
:1053B000882309F433CF0E948A35F801F5CF4CA930
:1053C0005DA9A1968EAD9FADA197841795070CF0AE
:1053D00066C0EAE7F6E084918F010F5F1F4F8823D4
:1053E00021F00E948A35F801F6CFB701A60185E6C3
:1053F00096E00E943E628AE00E948A3569964CAD32
:105400005DAD6EAD7FAD699780E596E00E943E622E
:105410008AE00E948A356D964CAD5DAD6EAD7FAD74
:105420006D978BE396E00E943E628AE00E948A3587
:10543000AD969FADAD97992309F4B5C1C0922806EA
:10544000D0922906E0922A06F0922B062CEA35EC3F
:1054500047E25EE369966CAD7DAD8EAD9FAD699719
:105460000E94ABB860933006709331068093320689
:10547000909333062CEA35EC47E25EE36D966CAD13
:105480007DAD8EAD9FAD6D970E9423BD60932C06C0
:1054900070932D0680932E0690932F0684C10E9450
:1054A000A26AD7CD0E94B65A7EC10E94787081113F
:1054B0007AC143ECA42E46E2B42EA8EBBBE0BD8F2C
:1054C000AC8FFE0131964F010CE017E21F01F3E0B3
:1054D000F00FF8A3F5016591759185919491AC8DCC
:1054E000BD8DCD90DD90ED90FD90BD8FAC8FA7016F
:1054F00096010E9446BC2B013C0120E030E040EACE
:1055000051EC0E946DBE87FD10C020E030E040EA03
:1055100051E4C301B2010E9446B8181634F0F101FB
:1055200040825182628273820DC0F8018491181604
:10553000B4F7F7FAF094F7F8F094F101C082D18251
:10554000E282F382D101CD90DD90ED90FD901D01BE
:1055500020E030E040EA51ECC701B6010E946DBE88
:1055600087FF03C0E5E7FFE10BC020E030E040EA41
:1055700051E4C701B6010E9446B8181674F5F2CF7F
:1055800084918F010F5F1F4F882321F00E948A357D
:10559000F801F6CFE5ECF7E084918F010F5F1F4F24
:1055A000882321F00E948A35F801F6CF61E087EB6D
:1055B00097E00E94846A0E949C9388E290E09F8B0F
:1055C0008E8B88EC90E09B8F8A8FBE016A5E7F4F46
:1055D000CE014A960E94F76EE6C0B4E0AB0EB11C55
:1055E0000F5F1F4FE8A1E01375CF30E2E32E34E0E8
:1055F000F32E00E010E0F40181919191A191B1911D
:105600004F01F70181939193A193B1937F01C80159
:105610005BD70F5F1F4F0330110569F70E94DA381F
:1056200060E087EA97E00E94846A83E992E09B8FBA
:105630008A8F04E610E01F8B0E8BBE01665E7F4FE3
:10564000CE0146960E94F76E8AEB92E09B8F8A8F7E
:105650001F8B0E8BBE01665E7F4FCE0146960E9469
:10566000F76EA1C0E5E7FFE184918F010F5F1F4F47
:10567000882321F00E948A35F801F6CFE3EEF7E0A7
:1056800084918F010F5F1F4F882309F48CC00E9403
:105690008A35F801F5CF0E94104180E00E94503C0D
:1056A00082C00E9410417FC083E50E949533882309
:1056B00019F0F9D791E089270E94503C74C0849179
:1056C0008F010F5F1F4F882321F00E948A35F80158
:1056D000F6CFE4EFF7E084918F010F5F1F4F88232F
:1056E00009F461C00E948A35F801F5CF81E080930A
:1056F00075021092C80B83E50E94C433882311F011
:10570000D2D703C083E50E94953381114CC00E941B
:10571000399F49C01091500480912B0D181759F0F2
:1057200083E50E94C433882311F0BDD702C083E50E
:10573000FCD7082F01C001E086E40E94C43388230F
:1057400011F0C0D703C060E070E0CB01123020F050
:10575000812F0E94B03727C020E030E040E752E4BC
:105760000E9423BDAB01BC01202F812F0E94D49940
:105770001AC0EFE5FFE184918F010F5F1F4F88236F
:1057800021F00E948A35F801F6CF609153047091A0
:10579000540483E098E00E94746282E20E948A3599
:1057A0008AE00E948A351092140F1092130F0E9403
:1057B0001A9FC3C5F5D788EA9BE00E94C59E0E9448
:1057C000DB348091550483FDA3C0C090B40BD0900E
:1057D000B50BE090B60BF090B70B2091C40B309155
:1057E000C50B4091C60B5091C70BC701B6010E9473
:1057F00046B8882309F48CC000912B0D8091330D9D
:1058000081113BC024E0029F800111240D59114FEA
:1058100060917A0270917B02072E000C880B990B25
:105820000E944CB89B01AC01D8016D917D918D9186
:105830009C910E9446B887FF20C0C092C40BD092B2
:10584000C50BE092C60BF092C70BEFE5FFE1849128
:105850008F010F5F1F4F882321F00E948A35F801C6
:10586000F6CFE6E0F2E084918F010F5F1F4F8823AF
:1058700021F00E948A35F801F6CFC090B40BD09089
:10588000B50BE090B60BF090B70B2091C40B3091A4
:10589000C50B4091C60B5091C70BC701B6010E94C2
:1058A00046BC9F77E0912B0DB4E0EB9FF0011124F3
:1058B000E157FD4F20813181428153810E94ABB875
:1058C00020E030E048E453E40E946DBE181604F571
:1058D000C092C40BD092C50BE092C60BF092C70BDE
:1058E000EFE5FFE184918F010F5F1F4F882321F0C7
:1058F0000E948A35F801F6CFE7EEF1E084918F013E
:105900000F5F1F4F882321F00E948A35F801F6CFE0
:1059100060919B0270919C02072E000C880B990BE2
:105920000E944CB820912D0230912E0240912F02FE
:10593000509130020E94ABB82AE037ED43E25CE3BD
:105940000E94ABB86E8B7F8B888F998FE0902B0D68
:105950008E010A5E1F4F24EB3BE040EB5BE06CEAFC
:105960007BE088EA9BE00E94CA8F0E94D1341BCF63
:1059700061E0802F0E9451446E2D802F0E942244AE
:10598000F12CB701802F0E948D440930110509F0D8
:105990000ACFF0923606E092350605CF93D6F09006
:1059A0007F0C0F2D10E0000F111F075C194F0E9494
:1059B0008BBDD8016D937C938F2D0E944D7582D63F
:1059C00020E030E04AEA52E40E9446B8181644F05B
:1059D0000E94C96D60E08BEF92E00E94846A02C071
:1059E0000E94456F00917F0C10E0F801EE0FFF1F41
:1059F000E75CF94F60817181072E000C880B990BD1
:105A00000E944CB8F801EE0FFF1FEE0FFF1FED597B
:105A1000F14F20813181428153810E946DBE181661
:105A2000A4F48CEE92E09F938F930F5F1F4F1F9310
:105A30000F9384EF92E09F938F931F920E942B6F9E
:105A40000FB6F894DEBF0FBECDBF0E9405AF81E058
:105A50008093000218A219A21AA21BA21CA21DA2C6
:105A60001EA21FA21C8E18A69CE398ABACE1ACABA7
:105A7000B6E4B8AFC12CD12CB0E8EB2E1FEBF12E61
:105A8000812C912C540100917F0C10E0F801EE0F55
:105A9000FF1FE75CF94F60817181072E000C880BB6
:105AA000990B0E944CB8762E672E582E492E262F21
:105AB000372F482F592FB601C7010E9446B88823B7
:105AC00029F1000F111F000F111FF801ED59F14FBF
:105AD0002081318142815381672D762D852D942D32
