:100000000C94BE150C94EF150C94EF150C94EF1591
:100010000C94EF150C94EF150C94EF150C94EF1550
:100020000C94EF150C94EF150C94EF150C94EF1540
:100030000C94EF150C94EF150C94EF150C94EF1530
:100040000C94EF150C9485940C94EF150C94EF150B
:100050000C94EF150C94EF150C944F730C94CF7A0D
:100060000C94EF150C94083E0C94EF150C94EF15BE
:100070000C94EF150C94EF150C94EF150C94EF15F0
:100080000C94EF150C94EF150C94EF150C94EF15E0
:100090000C94EF150C94EF150C94EF150C94EF15D0
:1000A0000C94EF150C94EF150C94EF150C94EF15C0
:1000B0000C94EF150C94EF150C94EF150C94EF15B0
:1000C0000C94EF150C94EF150C94EF150C94EF15A0
:1000D0000C94EF150C94EF150C94EF150C94EF1590
:1000E0000C94EF15FF7304742E74337413741F741F
:1000F000E97349784C783B783F7845788378507835
:1001000054785A785E78627868786C7870788378FA
:1001100076787A787E78EB79F079F579FF79097AD3
:10012000827A137A1B7A237A2D7A377A417A507A37
:100130005A7A827A647A6E7A787A084AD73B3BCECA
:10014000016E84BCBFFDC12F3D6C74319ABD5683D6
:100150003DDA3D00C77F11BED9E4BB4C3E916BAA8E
:10016000AABE000000803F05A84CCDB2D44EB938DD
:1001700036A9020C50B9918688083CA6AAAA2ABEC4
:10018000000000803F004E414E494E495459494EAF
:1001900046CDCCCC3D0AD7233C17B7D13877CC2BF2
:1001A000329595E6241FB14F0A000020410000C897
:1001B0004200401C4620BCBE4CCA1B0E5AAEC59D18
:1001C00074434F4D4D554E49434154494F4E0044A1
:1001D000525952554E004552524F525300494E46C5
:1001E0004F004543484F0047322F47332062616438
:1001F00020706172616D65746572730A00536C657D
:1002000065702E2E2E00526573756D696E672070B5
:1002100072696E74003344205072696E7465722086
:1002200072656164792E00436C69636B20746F2082
:10023000726573756D652E2E2E004E6F206D6F7674
:10024000652E002569730025696D202569730025D9
:1002500069682025696D202569730025696420255A
:1002600069682025696D2025697300256979202535
:100270006964202569682025696D2025697300500F
:1002800072696E742074696D653A200050726F74E3
:1002900065637465642050696E0A004525692025F0
:1002A00073003344205072696E7465722072656108
:1002B00064792E00E201DD01D601CF01C1016F6634
:1002C000660044454255473A004B494C4C45442E44
:1002D00020004D3131332053006F6B00486561744D
:1002E000696E6720646F6E652E0020573A004525C1
:1002F00069202573003344205072696E7465722042
:1003000072656164792E0042656420646F6E652EAB
:100310000020573A004265642048656174696E6741
:100320002E003344205072696E746572204F6666E9
:100330002E00454D455247454E43595F504152535B
:10034000455200434153455F4C494748545F425230
:10035000494748544E45535300544F47474C455F17
:100360004C494748545300534F4654574152455FF8
:10037000504F574552004255494C445F50455243F7
:10038000454E54004C4556454C494E475F444154F8
:1003900041005A5F50524F4245004155544F4C4521
:1003A00056454C005052494E545F4A4F42005052FD
:1003B0004F4752455353004155544F5245504F52A9
:1003C000545F54454D5000564F4C554D455452497D
:1003D0004300454550524F4D0053455249414C5FF3
:1003E000584F4E5F584F4646004649524D5741526E
:1003F000455F4E414D453A4D61726C696E20312E1C
:10040000312E3820284769746875622920534F556A
:100410005243455F434F44455F55524C3A687474AC
:1004200070733A2F2F6769746875622E636F6D2F32
:100430004D61726C696E4669726D776172652F4DA0
:1004400061726C696E2050524F544F434F4C5F564F
:10045000455253494F4E3A312E30204D4143484981
:100460004E455F545950453A3344205072696E747A
:1004700065722045585452554445525F434F554E7E
:10048000543A3220555549443A63656465326132C5
:10049000662D343161322D343734382D39623132A2
:1004A0002D6335356336326633363766660A002F7C
:1004B0002F20007A5F6D696E3A2000795F6D696E5A
:1004C0003A2000785F6D696E3A20005265706F7255
:1004D00074696E6720656E6473746F7020737461E5
:1004E0007475730A004D31343520533C696E646570
:1004F000783E206F7574206F662072616E6765208C
:1005000028302D31290A0053657474696E672054B0
:10051000726176656C20416363656C6572617469B4
:100520006F6E3A200053657474696E67205265746B
:100530007261637420416363656C65726174696F95
:100540006E3A200053657474696E67205072696E4C
:100550007420416363656C65726174696F6E3A20E3
:100560000053657474696E67205072696E742061FF
:100570006E642054726176656C20416363656C65BE
:10058000726174696F6E3A2000205A002059005839
:100590000020204D61783A2000205A002059005850
:1005A0000020204D696E3A20004F6E20004F666695
:1005B00000536F667420656E6473746F70733A20B5
:1005C00000486F74656E64206F6666736574733A75
:1005D00000000136372603FF3C3D380EFF2E303E2B
:1005E00012FFFF0C0809FFFFFF1A1C18FFFF24224F
:1005F0001EFFFF08440AFF4307FF45FFFFFFFFFF01
:10060000FF4B64200023646566696E6520204445C5
:100610004641554C545F004B692000236465666970
:100620006E65202044454641554C545F004B702078
:100630000023646566696E65202044454641554C3B
:10064000545F00504944204175746F74756E652085
:1006500066696E69736865642120507574207468DA
:1006600065206C617374204B702C204B6920616E87
:1006700064204B6420636F6E7374616E74732066C4
:10068000726F6D2062656C6F7720696E746F2043A6
:100690006F6E66696775726174696F6E2E680A00A5
:1006A000504944204175746F74756E6520666169A8
:1006B0006C6564212074696D656F75740A00544817
:1006C00045524D414C2052554E41574159005468B6
:1006D00065726D616C2052756E6177617900486555
:1006E0006174696E67206661696C65640048656164
:1006F00074696E67206661696C65640050494420C6
:100700004175746F74756E65206661696C656421EE
:100710002054656D706572617475726520746F6FB9
:1007200020686967680A00204B643A2000204B6902
:100730003A2000204B703A20000A20436C6173730A
:10074000696320504944200A002054753A20002053
:100750004B753A2000206D61783A2000206D696E5B
:100760003A200020643A200020626961733A200038
:100770004F666673657473206170706C69656400A0
:100780004572723A20546F6F206661722100546F77
:100790006F206661722066726F6D20726566657289
:1007A000656E636520706F696E740A00454550522E
:1007B0004F4D2064697361626C65640A004E6F205E
:1007C00063617365206C696768740A00556E6B6EAF
:1007D0006F776E20636F6D6D616E643A20220065E5
:1007E0006E7175657565696E672022004C696E656E
:1007F000204E756D626572206973206E6F74204C97
:10080000617374204C696E65204E756D6265722B44
:10081000312C204C617374204C696E653A20004B7A
:10082000494C4C45442E200053544F505045442EC3
:1008300020005072696E7465722073746F707065F9
:10084000642064756520746F206572726F72732EF8
:100850002046697820746865206572726F72206125
:100860006E6420757365204D39393920746F20729C
:100870006573746172742E202854656D70657261A1
:10088000747572652069732072657365742E2053C8
:100890006574206974206166746572207265737472
:1008A000617274696E67290A004E6F204368656340
:1008B0006B73756D2077697468206C696E65206E46
:1008C000756D6265722C204C617374204C696E6585
:1008D0003A2000636865636B73756D206D69736D95
:1008E000617463682C204C617374204C696E653AA6
:1008F00020004D3131300020496E76616C696420F2
:10090000657874727564657220000000F2C10000A1
:1009100004C200000000000016430000484300002D
:100920004843205A3A0020593A0020436F756E74AC
:1009300020583A0020453A00205A3A0020593A00FF
:10094000583A003A004361703A0020643A00206946
:100950003A0020703A0020643A0020693A00207082
:100960003A0043290A0061626C656420286D696E53
:100970002074656D702000436F6C6420657874721C
:10098000756465732061726520004B494C4C454489
:100990002E2000202D20496E76616C6964206578D8
:1009A000747275646572206E756D62657220210ABD
:1009B000001FFFFFFFFFFFFF600000000001FF407E
:1009C0000000000000FF8000000000007F83CF00D7
:1009D000000C303F87FF80000C301F867980000CB0
:1009E000000F8C30C7838C30E78C30CFC7CC31F30D
:1009F0008C30DCECEC33B98C30D86C6C33198C3027
:100A0000D06C0C33198C30D86C0C33198C30DC6CF6
:100A10000E3B198C30CF7C079F198C30C77C038F1D
:100A20001940000000000002600000000000061FE6
:100A3000FFFFFFFFFFF82020506C616E6E65724271
:100A4000756666657242797465733A200020467255
:100A50006565204D656D6F72793A2000436F6D704A
:100A6000696C65643A204A756E2031392032303124
:100A7000380A00207C20417574686F723A20286E15
:100A80006F6E652C2064656661756C7420636F6E93
:100A9000666967290A00323031372D31322D3235FF
:100AA0002031323A303000204C617374205570642C
:100AB000617465643A2000312E312E380A004D6190
:100AC000726C696E0020536F667477617265205294
:100AD000657365740A00205761746368646F6720EA
:100AE00052657365740A002042726F776E206F75CD
:100AF000742052657365740A002045787465726EBF
:100B0000616C2052657365740A00506F7765725589
:100B1000700A0073746172740A00456E6473746FB6
:100B20007073202563202563202563202563002022
:100B30005A3A0020593A0020583A00656E6473749E
:100B40006F7073206869743A20005072656865613F
:100B50007420504C4120416C6C0050726568656196
:100B60007420504C4120456E64204532005072651F
:100B70006865617420504C41203200507265686590
:100B8000617420504C4120456E6420453100507204
:100B9000656865617420504C412042656400507264
:100BA000656865617420504C412031005072657059
:100BB000617265005072656865617420414253201E
:100BC000416C6C005072656865617420414253202D
:100BD000456E64204532005072656865617420413D
:100BE000425320320050726568656174204142535F
:100BF00020456E642045310050726568656174203F
:100C000041425320426564005072656865617420FA
:100C100041425320310050726570617265004D345D
:100C20003238005072656865617420504C41004351
:100C30006F6F6C646F776E005072656865617420C9
:100C40004142530044697361626C6520737465703E
:100C500070657273004D38340053657420686F6D91
:100C600065206F666673657473004175746F2068E4
:100C70006F6D6500473238004D6F76652061786989
:100C800073004D61696E004D6F76652058004D6FA1
:100C900076652059004D6F7665205A00457874724C
:100CA00075646572320045787472756465723100DE
:100CB0004D6F766520302E316D6D004D6F7665205D
:100CC000316D6D004D6F76652031306D6D004D6F6B
:100CD0007665206178697300457874727564657211
:100CE000004D6F7665205A004D6F76652059004D96
:100CF0006F766520580000060900FE070192032167
:100D0000207FFF07FF07FF00000006000001070724
:100D100006020080808080800080030202060105B8
:100D2000A0A00507070600005050F850F8505005E5
:100D300007070600002078A07028F02005070706A6
:100D40000000C0C810204098180507070600006082
:100D500090A040A89068020303060104C0408003ED
:100D60000707060100204080808040200307070617
:100D7000010080402020204080050505060001205C
:100D8000A870A8200505050600012020F8202002F3
:100D900003030602FFC04080050101060003F802BC
:100DA0000202060200C0C005050506000108102069
:100DB00040800507070600007088888888887003CF
:100DC000070706010040C040404040E00507070615
:100DD0000000708808708080F8050707060000F89A
:100DE0001020100808F0050707060000103050908A
:100DF000F81010050707060000F880F00808887052
:100E0000050707060000708080F0888870050707D6
:100E1000060000F808102020202005070706000023
:100E200070888870888870050707060000708888B9
:100E300078080870020505060200C0C000C0C002A4
:100E400006060602FFC0C000C04080040707060077
:100E50000010204080402010050303060002F80027
:100E6000F804070706010080402010204080050795
:100E700007060000708808102000200507070600FC
:100E80000070880868A8A870050707060000708829
:100E900088F8888888050707060000F08888F088A9
:100EA00088F005070706000070888080808870053C
:100EB0000707060000F08888888888F0050707067D
:100EC0000000F88080F08080F8050707060000F831
:100ED0008080F0808080050707060000708880B859
:100EE000888870050707060000888888F888888841
:100EF0000107070602008080808080808005070748
:100F0000060000381010101090600507070600005A
:100F10008890A0C0A0908805070706000080808008
:100F2000808080F805070706000088D8A888888890
:100F3000880507070600008888C8A89888880507DC
:100F400007060000708888888888700507070600F3
:100F500000F08888F0808080050707060000708810
:100F60008888A89068050707060000F08888F0A028
:100F70009088050707060000788080700808F00553
:100F80000707060000F8202020202020050707067C
:100F90000000888888888888700507070600008810
:100FA0008888888850200507070600008888888878
:100FB00088A85005070706000088885020508888B8
:100FC00005070706000088888850202020050707AD
:100FD000060000F80810204080F80307070601000B
:100FE000E08080808080E0050505060001804020CB
:100FF0001008030707060100E02020202020E0055C
:101000000303060004205088050101060000F802D1
:1010100002020602058040050505060000700878FA
:1010200088780507070600008080B0C88888F0052A
:10103000050506000070808088700507070600001F
:10104000080868988888780505050600007088F803
:1010500080700507070600003048E040404040052A
:1010600006060600FF7088887808700507070600E6
:10107000008080B0C88888880107070602008000C9
:1010800080808080800308080601FF200020202047
:1010900020A040040707060000808090A0C0A09018
:1010A000030707060100C04040404040E005050539
:1010B000060000D0A8A8A8A8050505060000B0C82D
:1010C00088888805050506000070888888700506F0
:1010D000060600FFF08888F080800506060600FFFF
:1010E000788888780808050505060000B0C8808063
:1010F0008005050506000070807008F004070706EB
:1011000000004040E04040403005050506000088F2
:10111000888898680505050600008888885020059D
:1011200005050600008888A8A850050505060000EA
:1011300088502050880506060600FF8888887808B1
:1011400070050505060000F8102040F803070706A3
:101150000100204040804040200107070602008037
:101160008080808080800307070601008040402047
:101170004040800502020600026890000000060060
:1011800000457874727564657232004578747275C2
:1011900064657231004578747275646572004D6FD4
:1011A0007665205A004D6F76652059004D6F766543
:1011B0002058005072657061726500526573746FDB
:1011C0007265206661696C73616665005265747250
:1011D0006163740046696C616D656E74004D6F7477
:1011E000696F6E0054656D7065726174757265002B
:1011F0004D61696E005072656865617420414253AB
:1012000020636F6E66005072656865617420504C93
:101210004120636F6E66005049442D44005049449C
:101220002D44005049442D49005049442D49005057
:1012300049442D50005049442D500020082046615B
:1012400063740020082046616374002008204D610B
:1012500078002008204D6178002008204D6178003A
:101260002008204D696E002008204D696E0020087E
:10127000204D696E004F6666004F6E200041757408
:101280006F74656D700046616E20737065656400F3
:1012900046616E2073706565640042656400426556
:1012A00064004E6F7A7A6C652032004E6F7A7A6CE9
:1012B000652032004E6F7A7A6C652031004E6F7A6D
:1012C0007A6C65203100436F6E74726F6C004265FA
:1012D0006400426564004E6F7A7A6C65004E6F7AE6
:1012E0007A6C650046616E207370656564004661C6
:1012F0006E2073706565640054656D70657261740D
:10130000757265005654726176206D696E00565490
:10131000726176206D696E005654726176206D6937
:101320006E00566D696E00566D696E00566D696E81
:1013300000566D617820453200566D617820453247
:1013400000566D617820453200566D617820453138
:1013500000566D617820453100566D617820453129
:1013600000566D6178204500566D61782045005625
:101370006D6178204500566D6178205A00566D6188
:1013800078205A00566D6178205A00566D61782099
:101390005900566D6178205900566D6178205900CA
:1013A000566D6178205800566D6178205800566D52
:1013B00061782058004D6F74696F6E00416D6178DF
:1013C00020453200416D617820453200416D6178E1
:1013D00020453200416D617820453100416D6178D2
:1013E00020453100416D617820453100416D6178C3
:1013F000204500416D6178204500416D61782045B0
:1014000000416D6178205A00416D6178205A004199
:101410006D6178205A00416D6178205900416D61FD
:1014200078205900416D6178205900416D61782024
:101430005800416D6178205800416D617820580056
:10144000412D74726176656C00412D747261766510
:101450006C00412D7265747261637400412D726578
:10146000747261637400416363656C00416363651A
:101470006C004D6F74696F6E0056652D6A65726BF6
:101480000056652D6A65726B0056652D6A65726B34
:1014900000567A2D6A65726B00567A2D6A65726BFA
:1014A0000056792D6A65726B0056792D6A65726BEC
:1014B0000056792D6A65726B0056782D6A65726BDD
:1014C0000056782D6A65726B0056782D6A65726BCE
:1014D000004D6F74696F6E00453273746570732FC1
:1014E0006D6D00453273746570732F6D6D004531FD
:1014F00073746570732F6D6D00453173746570730F
:101500002F6D6D004573746570732F6D6D0045739D
:10151000746570732F6D6D005A73746570732F6DE1
:101520006D005A73746570732F6D6D005973746517
:1015300070732F6D6D005973746570732F6D6D002E
:101540005873746570732F6D6D0058737465707384
:101550002F6D6D004D6F74696F6E00486F6D652063
:10156000257325732573206669727374002066697C
:101570007273740A005A0059005800486F6D652054
:10158000006563686F3A000000484200004842006E
:10159000008040000000004572726F723A00202007
:1015A0004D3230392053004175746F2D526574727D
:1015B0006163743A20533D3020746F206469736115
:1015C000626C652C203120746F20696E74657270B6
:1015D00072657420452D6F6E6C79206D6F76657322
:1015E00020617320726574726163742F7265636F1A
:1015F0007665720A0020460020570020204D3230C8
:10160000382053005265636F7665723A20533C6C04
:10161000656E6774683E20463C756E6974732F6D05
:101620003E0A00205A0020460020570020204D325C
:101630003037205300526574726163743A20533C12
:101640006C656E6774683E20463C756E6974732FD6
:101650006D3E205A3C6C6966743E0A0020440020AE
:10166000490020204D3330342050002044002049D0
:101670000020204D3330312050002044002049000C
:1016800020500020204D3330312045005049442067
:1016900073657474696E67733A0A002046002042CD
:1016A0000020480020204D3134352053004D617416
:1016B000657269616C206865617475702070617213
:1016C000616D65746572733A0A00205900205800F4
:1016D00020204D323138205400486F74656E6420EC
:1016E0006F6666736574733A0A00205A00205900C9
:1016F00020204D323036205800486F6D65206F66CF
:10170000667365743A0A00204500205A002059008B
:1017100020580020420020540020204D3230352037
:101720005300416476616E6365643A20533C6D6991
:101730006E5F66656564726174653E20543C6D69D8
:101740006E5F74726176656C5F6665656472617404
:10175000653E20423C6D696E5F7365676D656E74B2
:101760005F74696D655F75733E20583C6D61785F8D
:1017700078795F6A65726B3E205A3C6D61785F7A5A
:101780005F6A65726B3E20453C6D61785F655F6A9C
:1017900065726B3E0A0020540020520020204D321A
:1017A0003034205000416363656C65726174696F09
:1017B0006E2028756E6974732F7332293A20503C5D
:1017C0007072696E745F616363656C3E20523C7237
:1017D0006574726163745F616363656C3E20543C41
:1017E00074726176656C5F616363656C3E0A0020AC
:1017F000450020204D323031205400205A0020591D
:101800000020204D3230312058004D6178696D75CF
:101810006D20416363656C65726174696F6E202829
:10182000756E6974732F7332293A0A0020450020BF
:10183000204D323033205400205A002059002020FF
:101840004D3230332058004D6178696D756D2066DA
:1018500065656472617465732028756E6974732F91
:1018600073293A0A0020450020204D3932205400C7
:10187000205A0020590020204D393220580053743E
:101880006570732070657220756E69743A0A002065
:10189000204D3230302044300A0020204D3230308C
:1018A00020543120440020204D323030204400208C
:1018B00044697361626C65640A0046696C616D65B8
:1018C0006E742073657474696E67733A0020204DDE
:1018D0003134392043203B20556E69747320696E82
:1018E0002043656C736975730A00202047323120EC
:1018F0002020203B20556E69747320696E206D6D29
:101900000A006265640A002C2073797374656D2087
:1019100073746F7070656421204865617465725FCF
:1019200049443A200048656174696E6720666169C0
:101930006C65640048656174696E67206661696CF6
:1019400065640048656174696E67206661696C65ED
:10195000640048656174696E67206661696C6564DE
:101960000070012C0190012701B0012201C0011D6E
:1019700001F00118011002130130020E016002098A
:101980000190020401C002FF000003FA004003F5C9
:10199000008003F000D003EB002004E6007004E1B7
:1019A00000E004DC004005D700C005D2004006CDB1
:1019B00000D006C8008007C3003008BE00F008B998
:1019C00000C009B400B00AAF00B00BAA00D00CA54B
:1019D00000000EA000500F9B00C010960050129106
:1019E0000000148C00C0158700B0178200B0197D6C
:1019F00000D01B7800001E730040206E009022690A
:101A000000F024640040275F0090295A00E02B5525
:101A100000102E500020304B0010324600E03341C1
:101A20000090353C001037370070383200A0392D57
:101A300000B03A2800A03B2300603C1E00103D1976
:101A400000903D1400103E0F00703E0A00C03E059D
:101A500000003F0000403FFBFF803FF6FFC03FF12A
:101A6000FF544845524D414C2052554E4157415923
:101A700000546865726D616C2052756E6177617992
:101A8000004572723A204D494E54454D5020424512
:101A900044004572723A204D494E54454D50004D18
:101AA000494E54454D50207472696767657265648C
:101AB000004572723A204D415854454D50204245E0
:101AC00044004572723A204D415854454D50004DE6
:101AD000415854454D50207472696767657265645A
:101AE00000202F002040002042403A0020403A00D1
:101AF00000002100240027002A002D0030003300C0
:101B000001010000040107010A0100002200250074
:101B100028002B002E0031003400020100000501D6
:101B200008010B01000020002300260029002C00E2
:101B30002F00320000010000030106010901050524
:101B40000505070508080808020202020A0A080833
:101B50000404040401010101010101010303030361
:101B600003030303040707070C0C0C0C0C0C0C0CF0
:101B70000202020206060606060606060B0B0B0B01
:101B80000B0B0B0B01021020200808102040102026
:101B90004080020102010804020101020408102031
:101BA000408080402010080402018004020180402F
:101BB0002010080402010804020101020408102098
:101BC0004080010204081020408000000A0B020936
:101BD0000C0D0E08070304010000000000000000C7
:101BE00000000000000000000000000000000000F5
:101BF00000000000000012111000000000000000B2
:101C000000000000000000000000000000000000D4
:101C100020746F6F206C6F6E6720657874727573B7
:101C2000696F6E2070726576656E7465640A002057
:101C3000636F6C6420657874727573696F6E207061
:101C4000726576656E7465640A0053746570732FEF
:101C50006D6D004A65726B00416363656C6572610E
:101C600074696F6E0056656C6F6369747900436FB9
:101C70006E74726F6C0046696C2E204469612E2070
:101C8000320046696C2E204469612E20320046697C
:101C90006C2E204469612E20310046696C2E204450
:101CA00069612E20310046696C2E204469612E0046
:101CB00046696C2E204469612E004F6666004F6EA7
:101CC00020004520696E206D6D3300436F6E747285
:101CD0006F6C005320556E5265742056005320558A
:101CE0006E5265742056005320556E52657420560E
:101CF00000556E526574205600556E52657420561C
:101D000000556E5265742056005320556E5265740E
:101D1000206D6D005320556E526574206D6D005519
:101D20006E526574206D6D00556E526574206D6D38
:101D300000486F70206D6D00486F70206D6D00520F
:101D40006574726163742020560052657472616319
:101D5000742020560052657472616374202056000E
:101D6000537761702052652E6D6D0053776170203E
:101D700052652E6D6D0052657472616374206D6DD5
:101D80000052657472616374206D6D004F66660069
:101D90004F6E20004175746F526574722E00436F50
:101DA0006E74726F6C0024F4D43050C38E20C2A2C3
:101DB0004017828B7011127A910D816CD90AA8613B
:101DC000E108C7586607615143061E4B5D05C145D2
:101DD000A7041A411104093D9803713931034036B3
:101DE000DB0265339102D4305402802E1D02632C35
:101DF000EE01752AC501B028A001102781018F25A9
:101E000064012B244B01E0223401AC211F018D2001
:101E10000D01801FFC00841EED00971DDF00B81C23
:101E2000D200E61BC600201BBC00641AB200B21927
:101E3000A8000A19A0006A189900D117910040174C
:101E40008B00B516840031167E00B31579003A1563
:101E50007300C7146F0058146A00EE1366008813ED
:101E6000630025135E00C7125B006C125700151249
:101E70005400C111510070114F0021114B00D610B8
:101E800049008D1047004610440002104200C00F68
:101E90004000800F3E00420F3C00060F3B00CB0E7F
:101EA0003800930E37005C0E3500270E3400F30D1A
:101EB0003200C10D3100900D3000600D2E00320D4A
:101EC0002D00050D2C00D90C2B00AE0C2900850C23
:101ED00029005C0C2700350C27000E0C2600E80BAF
:101EE0002400C40B2400A00B23007D0B23005A0BFD
:101EF0002100390B2100180B2000F80A1F00D90A15
:101F00001E00BB0A1E009D0A1D00800A1D00630AF8
:101F10001C00470A1B002C0A1B00110A1A00F709B3
:101F20001A00DD091900C4091900AB09190092094A
:101F300017007B091800630917004C0916003609C1
:101F40001600200916000A091500F5081500E0081A
:101F50001400CC081400B8081400A4081400900859
:101F600013007D0812006B08130058081200460881
:101F70001200340811002308110012081100010892
:101F80001100F0071000E0071000D0071000C00794
:101F90001000B0070F00A107100091070E00830783
:101FA0000F0074070F0065070E0057070E00490762
:101FB0000E003B070D002E070E0020070D00130733
:101FC0000D0006070D00F9060C00ED060D00E006F9
:101FD0000C00D4060C00C8060C00BC060C00B006B1
:101FE0000C00A4060B0099060C008D060B0082065F
:101FF0000B0077060B006C060B0061060A00570603
:102000000B004C060A0042060A0038060A002E069B
:102010000A0024060A001A060A001006090007062C
:102020000A00FD050900F4050900EB050900E205B9
:102030000900D9050900D0050900C7050900BE053A
:102040000900B5050800AD050800A50509009C05B7
:102050000800940508008C050800840508007C052C
:102060000800740508006C050700650508005D059B
:102070000700560508004E05070047050700400504
:10208000080038050700310507002A050700230569
:1020900007001C050600160507000F0507000805C8
:1020A000060002050700FB040600F5040700EE0425
:1020B0000600E8040600E2040700DB040600D5047D
:1020C0000600CF040600C9040600C3040600BD04D0
:1020D0000600B7040600B1040500AC040600A6041F
:1020E0000600A00405009B0406009504050090046A
:1020F00006008A04050085040500800406007A04B1
:10210000050075040500700405006B0405006604F5
:102110000500610405005C04050057040500520435
:1021200005004D04050048040500430405003E0475
:1021300004003A04050035040500300404002C04B2
:10214000050027040400230405001E0404001A04EB
:10215000040016040500110404000D040400090421
:1021600005000404040000040400FC030400F80358
:102170000400F4030400F0030400EC030400E8038B
:102180000400E4030400E0030400DC030400D803BB
:102190000400D4030400D0030400CC030400C803EB
:1021A0000300C503030024F404D9201BC40C5C0EF7
:1021B0009804C4095F0265077101F405F900FB0486
:1021C000B30048048700C1036900580355000303A6
:1021D0004500BE023A008402310053022A0029025F
:1021E000250004022000E4011C00C8011900AF0111
:1021F000170098011400840113007101100061019F
:10220000100051010E0043010D0036010B002B019F
:102210000B0020010B00150109000C01090003014E
:102220000800FB000800F3000800EB000700E400D2
:102230000600DE000600D8000600D2000600CC0032
:102240000500C7000500C2000500BD000400B9007C
:102250000400B5000400B1000400AD000400A900B2
:102260000400A5000300A20003009F0004009B00DF
:102270000300980003009500020093000300900003
:1022800003008D0002008B0003008800020086001E
:10229000020084000300810002007F0002007D0034
:1022A00002007B0002007900020077000100760046
:1022B00002007400020072000100710002006F0051
:1022C00002006D0001006C0002006A00010069005C
:1022D0000200670001006600010065000100640063
:1022E00002006200010061000100600001005F0067
:1022F00002005D0001005C0001005B0001005A006B
:10230000010059000100580001005700010056006B
:10231000010055000100540001005300000053006B
:1023200001005200010051000100500001004F0067
:1023300001004E0000004E0001004D0001004C0065
:1023400001004B0000004B0001004A000100490061
:10235000010048000000480001004700010046005D
:102360000000460001004500000045000100440057
:102370000100430000004300010042000000420051
:1023800001004100000041000100400001003F0049
:1023900000003F0001003E0000003E0001003D0043
:1023A00000003D0001003C0000003C0000003C003B
:1023B00001003B0000003B0001003A0000003A0031
:1023C0000100390000003900010038000000380029
:1023D000000038000100370000003700010036001F
:1023E0000000360000003600010035000000350016
:1023F000000035000100340000003400000034000B
:1024000001003300000033000000330001003200FF
:1024100000003200000032000100310000003100F5
:1024200000003100010030000000300000003000EA
:1024300001002F0000002F0000002F0000002F00DF
:1024400001002E0000002E0000002E0001002D00D3
:1024500000002D0000002D0000002D0001002C00C8
:1024600000002C0000002C0000002C0001002B00BC
:1024700000002B0000002B0000002B0001002A00B0
:1024800000002A0000002A0000002A0001002900A4
:102490000000290000002900000029000000290098
:1024A000010028000000280000002800000028008B
:1024B000000028000100270000002700000027007E
:1024C0000000270000002700010026000000260071
:1024D0000000260000002600000026000100250064
:1024E0000000250000002500000025000000250058
:1024F000000025000100240000002400000024004A
:10250000000024000000240001002300000023003C
:10251000000023000000230000002300000023002F
:102520000000230001002200000022000000220021
:102530000000220000002200000022000100210013
:102540000000210000002100000021000000210007
:1025500000002100000021000100200000002000F8
:1025600000002000000020000000200000002000EB
:10257000000020000000200001001F0000001F00DC
:1025800000001F0000001F0000001F0000001F00CF
:1025900000001F0001001E0000001E0000001E00C1
:1025A00000001E0000001000C90210012C014001B3
:1025B000220170011801B0010E01F0010401500266
:1025C000FA00B002F0003003E600D003DC00900413
:1025D000D2007005C800A006BE000008B400B00913
:1025E000AA00D00BA000600E960060118C000015B0
:1025F000820020197800C01D6E00A0226400B02760
:102600005A00902C500000314600E0343C00103855
:102610003200903A2800603C1E00A03D1400803E2D
:102620000A00203F000000060900FE000000000034
:1026300001090008FE000005080806000040F0C877
:102640008888987810050808060000C0F8888888EF
:102650008888F80505050600012030F830200508B7
:10266000080600002070F820202020E00509090657
:1026700000FF2070A8A8B888887020050909060006
:10268000FFE080C0B0A8283028280509090600FF0F
:10269000F8A88888888888A8F8050A0A0600FE2015
:1026A0005050505088A8A8887003030306000340C8
:1026B000A0405A0059005800092000000000000006
:1026C000000000000000007FFFE0000000000000AC
:1026D0000000000000007000E000000000000000AA
:1026E000000000000061F860000000000000000031
:1026F0000000000041F82000000000000000000081
:1027000000000040F0200000000000000000000079
:1027100000004060200000000000000000000000F9
:10272000005801A07F80003FC0000000004104006D
:102730005C63A0FBC00079E0000000002082005E26
:10274000F7A0F3C00076E0000000002082005EF7F2
:10275000A0EBC0007EE0000000004104005C63A02C
:102760007B80003DC0000000008208005801A07B73
:1027700080003BC000000001041000406020FBC04E
:102780000077E00000000104100040F020FBC000D2
:1027900070E00000000082080041F820FFC0007FC8
:1027A000E00000000041040061F8603F00001F806D
:1027B000000000000000007000E01E00000F00009C
:1027C000000001FFFF807FFFE00C0000060000001A
:1027D0000001FFFF8000000000000000000000007A
:1027E000000000007FFFE00000000000000000008B
:1027F0000000007000E00000000000000000000089
:102800000000630C600000000000000000000000F9
:1028100000470E2000000000000000000000000043
:102820004F0F200000000000000000000000005FCB
:102830000FA00000000000000000000000005E0784
:10284000A07F80003FC000000000410400406020E5
:10285000FBC00079E00000000020820040F020F37F
:10286000C00076E00000000020820040F020EBC0B5
:10287000007EE0000000004104004060207B8000FA
:102880003DC0000000008208005E07A07B80003B86
:10289000C0000000010410005F0FA0FBC00077E043
:1028A000000000010410004F0F20FBC00070E0008A
:1028B000000000820800470E20FFC0007FE00000FB
:1028C0000000410400630C603F00001F8000000016
:1028D000000000007000E01E00000F00000000017A
:1028E000FFFF807FFFE00C0000060000000001FFFA
:1028F000FF80000000526573656E643A20006F6BC4
:102900000020746F6F206C6F6E672065787472752D
:1029100073696F6E2070726576656E7465640A0007
:1029200020636F6C6420657874727573696F6E20B4
:1029300070726576656E7465640A00627573793AC3
:102940002070617573656420666F7220696E7075A2
:10295000740A00627573793A20706175736564203A
:10296000666F7220757365720A00627573793A201A
:1029700070726F63657373696E670A004B494C4CE4
:1029800045442E20004B494C4C20636175736564AF
:10299000206279204B494C4C20627574746F6E2F05
:1029A00070696E0A004B494C4C45442E20004B493F
:1029B0004C4C2063617573656420627920746F6F7D
:1029C000206D75636820696E616374697665207433
:1029D000696D65202D2063757272656E7420636F5A
:1029E0006D6D616E643A2000436F6E74726F6C009F
:1029F000507265706172650054756E6500496E664F
:102A00006F2073637265656E00466C6F77203200CD
:102A1000466C6F77203200466C6F77203100466C31
:102A20006F77203100466C6F7700466C6F770046F9
:102A3000616E2073706565640046616E2073706519
:102A400065640042656400426564004E6F7A7A6C8A
:102A5000652032004E6F7A7A6C652032004E6F7AB4
:102A60007A6C652031004E6F7A7A6C6520310053A4
:102A700070656564005370656564004D61696E0042
:102A8000506C6561736520726573657400505249BE
:102A90004E5445522048414C544544005072696E92
:102AA0007465722068616C7465642E206B696C6C4F
:102AB00028292063616C6C6564210A000000F2C162
:102AC000000004C2000000005761726E696E673A30
:102AD00020486F6D696E672042756D70204469767D
:102AE00069736F72203C20310A000202040000A0CA
:102AF000400000A040000000400040344300006956
:102B00004300004843FFFFFF416374697665204539
:102B1000787472756465723A200048617264636FFC
:102B20006465642044656661756C742053657474D3
:102B3000696E6773204C6F616465640A00E8030086
:102B400000E80300006400000010270000102700C8
:102B50000000007A4400007A440000404000008CED
:102B60004200008C4200002043000020430000FA95
:102B7000459A39D8448F22504400C1BA11241FBE4F
:102B8000CFEFD1E2DEBFCDBF00E00CBF13E0A0E08D
:102B9000B2E0E0EDF4E901E00BBF02C007900D9256
:102BA000AC38B107D9F72FE0ACE8B3E001C01D9213
:102BB000A43DB207E1F715E1CEEBD5E100E006C098
:102BC00021970109802FFE010E9412CACD3BD10737
:102BD00080E00807A9F70E94E2B30C9466CA0C943F
:102BE00000002F923F924F925F926F927F928F924E
:102BF0009F92AF92BF92CF92DF92EF92FF920F938C
:102C00001F93CF93DF93CDB7DEB7CA57D1090FB665
:102C1000F894DEBF0FBECDBF81E090E090939E0F91
:102C200080939D0F80915E048D3409F4B5C6843580
:102C300011F40C944E2D873411F00C947D2D80915D
:102C40005C0490915D048A30910509F456C57CF4CA
:102C5000843091053CF482309105BCF597FF2EC07D
:102C60000C94972D049709F402C50C94972D8A357E
:102C7000910509F41CC64CF48B30910509F44EC53E
:102C80004C9709F451C50C94972D8B35910509F497
:102C900012C68C35910511F00C94972D0E94F57792
:102CA0005DE9252E52E0352E60ECC62E6FE0D62E63
:102CB000E12CF12C00E010E01C8E3EC680917002E9
:102CC00081110C949E2D0C94972D2091700222233B
:102CD00011F40C94972D11E0029709F010E00E9476
:102CE000B83582E50E947B35882309F42AC10E9409
:102CF00019356B017C014090F9065090FA066090FE
:102D0000FB067090FC062091FD063091FE06409176
:102D1000FF06509100072C8F3D8F4E8F5F8F809163
:102D2000E9069091EA06A091EB06B091EC0688A323
:102D300099A3AAA3BBA32091ED063091EE06409182
:102D4000EF065091F0062CA73DA74EA75FA720E005
:102D500030E0A901C701B6010E940AC3882309F423
:102D60006CC4A301920168A179A18AA19BA10E94D0
:102D70000AC381110DC02C8D3D8D4E8D5F8D6CA5CC
:102D80007DA58EA59FA50E940AC3882309F455C47A
:102D900020E030E0A901C701B6010E940AC3881FE4
:102DA0008827881F181309C080E090E0A0E8BFE3DF
:102DB0008CAB9DABAEABBFAB08C020E030E040E8D1
:102DC0005FEB2CAB3DAB4EAB5FABA301920168A1B7
:102DD00079A18AA19BA10E940AC768A779A78AA79F
:102DE0009BA72C8D3D8D4E8D5F8D6CA57DA58EA5F1
:102DF0009FA50E940AC768AB79AB8AAB9BAB28A59D
:102E000039A54AA55BA5CA01B9010E946FC34B0150
:102E10005C0128A939A94AA95BA9CA01B9010E9484
:102E20006FC39B01AC01C501B4010E940BC70E9496
:102E300076C96CA37DA38EA39FA320E030E040E081
:102E40005FE30E946FC34B015C01A7019601C701BC
:102E5000B6010E946FC36B017C01A5019401C501FD
:102E6000B4010E946FC39B01AC01C701B6010E946F
:102E70000AC70E9476C99B01AC016CA97DA98EA9E5
:102E80009FA90E946FC34B015C0128A139A14AA1EF
:102E90005BA1C301B2010E940BC720E030E040E01B
:102EA0005FE30E946FC36B017C0168A979A98AA9BD
:102EB0009BA990582CA13DA14EA15FA10E94E7C7FC
:102EC0009B01AC01C501B4010E946FC39B01AC0121
:102ED000C701B6010E940BC7A30192010E940AC755
:102EE0006B017C012CA53DA54EA55FA56C8D7D8D4C
:102EF0008E8D9F8D0E940BC720E030E040E05FE3A5
:102F00000E946FC32B013C012CA13DA14EA15FA1EA
:102F100068A579A58AA59BA50E94E7C79B01AC017E
:102F2000C501B4010E946FC39B01AC01C301B20192
:102F30000E940BC72C8D3D8D4E8D5F8D0E940AC760
:102F400014C089E40E947B35882329F00E9419353A
:102F50006B017C0103C0C12CD12C76018AE40E9454
:102F60007B358823D9F00E9419356CA77DA78EA7E1
:102F70009FA720E030E0A901C701B6010E940AC363
:102F800081111AC020E030E0A9016CA57DA58EA5B5
:102F90009FA50E940AC381110FC04FC320E030E0FB
:102FA000A901C701B6010E940AC3882309F445C3D9
:102FB0001CA61DA61EA61FA6D701C601B0588C8F41
:102FC0009D8FAE8FBF8F2CA53DA54EA55FA55058F8
:102FD00028A339A34AA35BA39C01AD01BC01CD0189
:102FE0000E946FC34B015C0128A139A14AA15BA1DA
:102FF000CA01B9010E946FC39B01AC01C501B401B4
:103000000E940BC70E9476C928966CAF7DAF8EAF29
:103010009FAF28978091F9069091FA06A091FB0640
:10302000B091FC068CA39DA3AEA3BFA3A7019601FC
:10303000BC01CD010E940BC76CAB7DAB8EAB9FABCF
:103040002091FD063091FE064091FF065091000749
:1030500028AB39AB4AAB5BAB2CA53DA54EA55FA514
:1030600068A979A98AA99BA90E940BC768AF79AF03
:103070008AAF9BAF8091E9069091EA06A091EB069A
:10308000B091EC068CAF9DAFAEAFBFAF2CA93DA900
:103090004EA95FA9BC01CD010E940AC76B017C014A
:1030A0002091ED063091EE064091EF065091F0062A
:1030B00024962CAF3DAF4EAF5FAF249728AD39AD0E
:1030C0004AAD5BAD24966CAD7DAD8EAD9FAD2497C2
:1030D0000E940AC74B015C01809101079091020791
:1030E000A0910307B091040760968CAF9DAFAEAF7F
:1030F000BFAF60979C01AD016091F1067091F2063F
:103100008091F3069091F4060E940AC768A779A7F8
:103110008AA79BA72091F5063091F6064091F70605
:103120005091F8062C962CAF3DAF4EAF5FAF2C9769
:103130008091050790910607A0910707B0910807B5
:1031400064968CAF9DAFAEAFBFAF6497A7019601F9
:103150006C8D7D8D8E8D9F8D0E946FC32B013C01E8
:10316000A501940168A179A18AA19BA10E946FC3C6
:103170009B01AC01C301B2010E940BC72B013C01B2
:10318000A50194016C8D7D8D8E8D9F8D0E946FC3E6
:103190004B015C01A701960168A179A18AA19BA1BD
:1031A0000E946FC39B01AC01C501B4010E940AC714
:1031B000A30192010E947EC76B017C0120E030E0F8
:1031C000A9010E940AC387FF0AC02BED3FE049EC2A
:1031D00050E4C701B6010E940BC76B017C011123AB
:1031E00051F02BED3FE049EC50E4C701B6010E94DD
:1031F0000AC76B017C0120E030E0A901C701B601DC
:103200000E940AC3811122C02CAD3DAD4EAD5FAD11
:103210006CA17DA18EA19FA10E940AC3811116C03D
:1032200024962CAD3DAD4EAD5FAD249768A979A92C
:103230008AA99BA90E940AC3811108C0EBEDCE2E7A
:10324000EFE0DE2EE9ECEE2EE0E4FE2E28962CAD2B
:103250003DAD4EAD5FAD2897C701B6010E946FC36B
:103260009B01AC010E946FC34B015C0128A539A5ED
:103270004AA55BA5CA01B9010E946FC39B01AC01BD
:10328000C501B4010E940BC70E9476C94B015C01C5
:103290002FE632E143E85AE30E940AC387FDC9C121
:1032A000C501B4010E9480C80E9454C81B01672B4D
:1032B00019F422242394312CB10180E090E00E9483
:1032C0000EC34B015C019B01AC01C701B6010E941A
:1032D000E7C76CA37DA38EA39FA3A501940168A556
:1032E00079A58AA59BA50E94E7C728966CAF7DAFFC
:1032F0008EAF9FAF289764962CAD3DAD4EAD5FADC0
:1033000064972C966CAD7DAD8EAD9FAD2C970E94D1
:103310000AC7A50194010E94E7C72C966CAF7DAF48
:103320008EAF9FAF2C972CA13DA14EA15FA1CA01EA
:10333000B9010E946FC320E030E040E05FE30E94EB
:103340006FC39B01AC0160E070E080E89FE30E94E6
:103350000AC76CAF7DAF8EAF9FAF60962CAD3DAD11
:103360004EAD5FAD609729873A874B875C8764963F
:103370008CAD9DADAEADBFAD64978D879E87AF8799
:10338000B88B60919B0270919C02072E000C880BF9
:10339000990B0E9410C3209128023091290240917C
:1033A0002A0250912B020E946FC32AE037ED43E2BC
:1033B0005CE30E946FC36E8B7F8B888F998F0E9416
:1033C000C37A9B01AC0128533F4F4F4F5F4F249668
:1033D0002CAF3DAF4EAF5FAF24974C8C5D8C6E8CA5
:1033E0007F8C41E050E059AB48AB59E158A7A8A900
:1033F000B9A9A215B30509F40BC10E943D760E943C
:10340000C37ADC01CB0124962CAD3DAD4EAD5FAD52
:103410002497821B930BA40BB50BB7FD10C00E9421
:10342000C37A9B01AC0128533F4F4F4F5F4F249607
:103430002CAF3DAF4EAF5FAF24970E949FA438A53D
:10344000315038A73323E9F12CAD3DAD4EAD5FAD22
:1034500068A179A18AA19BA10E946FC36B017C0125
:103460002CA13DA14EA15FA1B201C3010E946FC377
:10347000A70196010E940BC77B018C012CAD3DADCD
:103480004EAD5FADB201C3010E946FC34B015C0141
:103490002CA13DA14EA15FA168A179A18AA19BA108
:1034A0000E946FC39B01AC01C501B4010E940AC711
:1034B0002B013C01C701D80188A399A3AAA3BBA3F0
:1034C00051C048A959A9BA0180E090E00E940EC3FA
:1034D0002CA13DA14EA15FA10E946FC34B015C01D5
:1034E0000E94E4C76B017C01C501B4010E946CC954
:1034F0004B015C01A70196016C8D7D8D8E8D9F8D9A
:103500000E946FC32B013C01A50194016CA57DA510
:103510008EA59FA50E946FC39B01AC01C301B201A0
:103520000E940BC72B013C01A50194016C8D7D8D80
:103530008E8D9F8D0E946FC34B015C01A701960188
:103540006CA57DA58EA59FA50E946FC39B01AC01B4
:10355000C501B4010E940AC768A379A38AA39BA3EB
:1035600059E158A79201A3016CA97DA98EA99FA931
:103570000E940BC769837A838B839C8328A139A11E
:103580004AA15BA168AD79AD8AAD9BAD0E940BC726
:103590006D837E838F83988728962CAD3DAD4EAD8D
:1035A0005FAD289769857A858B859C850E940BC7BE
:1035B00069877A878B879C872C962CAD3DAD4EAD65
:1035C0005FAD2C976D857E858F8598890E940BC78E
:1035D0006D877E878F87988BCE0101960E9450A7BA
:1035E000E090AD088E010A5E1F4F9E01235F3F4FA2
:1035F000AE01475F5F4FBE016B5F7F4FCE0101960B
:103600000E94D68B88A999A9019699AB88ABEFCE79
:10361000E090AD088E010A5E1F4F25EF36E041EFC6
:1036200056E06DEE76E089EE96E00E94D68B0E9421
:103630007B380E9485380C94972DE7E9F5E1849159
:103640008F010F5F1F4F882321F00E949038F801EF
:10365000F6CFE7EEF1E084918F010F5F1F4F8823D3
:1036600011F40C94972D0E949038F801F4CF80E566
:103670000E947B35882329F00E94D9346B017C019C
:1036800003C0C12CD12C760183E50E947B358823B1
:1036900061F00E94193520E030E04AE754E40E94CE
:1036A0006FC30E9454C86B017C010E94F577809122
:1036B0002D02811105C060E08DEF91E00E94304E37
:1036C0000E9485388091A40F9091A50FA091A60F1C
:1036D000B091A70FC80ED91EEA1EFB1E0E94C37A26
:1036E000DC01CB018C199D09AE09BF09B7FD02C0F1
:1036F0000C94972D0E949FA4F1CF83E50E947B3507
:10370000882319F00E940A3503C083E50E944C35D6
:10371000682F81E00E94B9360C94972D60E080E01C
:103720000E94B9360C94972D0E94F577F090AD0861
:1037300021E040E050E0BA0180E00E94ABAE809111
:10374000280290912902A0912A02B0912B02809325
:10375000A1039093A203A093A303B093A403809129
:103760009B0290919C029093A00380939F0384E618
:1037700090E090939C0280939B020E94853881E0A8
:103780008093770788E50E944C35D82E89E50E9402
:103790004C35082F8AE50E944C35E82ED11005C023
:1037A000011105C011E0182705C0011102C010E089
:1037B00001C0182F0E94AF36111104C0D11002C0F1
:1037C0000023D1F180E090E0A0EAB0E48093F1061C
:1037D0009093F206A093F306B093F4069C01AD011A
:1037E000609101077091020780910307909104078F
:1037F0000E940AC387FF0DC019821A821B821C8295
:10380000AE014F5F5F4F6DEF76E089EF96E00E946B
:10381000AD64111105C0D11003C0011107C00CC067
:1038200080E090E00E94AAAF1123B9F381E090E01C
:103830000E94AAAF111102C0EE2021F082E090E0B8
:103840000E94AAAF0E945C3480917607809377072C
:103850008091A1039091A203A091A303B091A4032E
:103860008093280290932902A0932A02B0932B02FE
:1038700080919F039091A00390939C0280939B0260
:103880000E948538B1E0BF1520F48F2D0E944C3C7A
:1038900007C021E040E050E0BA018F2D0E94ABAE9E
:1038A00083E080932C020E943A3D0C94972D109255
:1038B0009E030C94972D81E080939E030C94972D8A
:1038C0000E9419354B015C010330110559F0F701D5
:1038D000E750F14F20813181428153810E940AC714
:1038E0004B015C01F701E750F94F208131814281A2
:1038F0005381C501B4010E940AC72B013C012DEB85
:1039000037E346E855EB0E9431C987FD1DC02DEB1A
:1039100037E346E855E3C301B2010E940AC3181613
:103920009CF00F5F1F4FF4E0CF0ED11C24E0E20E9D
:10393000F11C0430110541F1F10181911F010E9438
:103940007B35882371F3BCCF0330110559F4809285
:10395000050790920607A0920707B0920807F1E0CA
:10396000FC8FDFCFA3019201D6016D917D918D91E6
:103970009C910E940BC7F6016083718382839383BD
:10398000C8010E94D633CDCF3C8D31110E9417342F
:103990000E943A3D0C94972D80915C0490915D04B7
:1039A0008937910509F444C70CF08EC0883691051B
:1039B00009F410C30CF056C08C34910509F4F0C220
:1039C0008CF58231910509F42FC5FCF497FF02C0F4
:1039D0000C94972D823091050CF427C1419711F07A
:1039E0000C94972D60E08AE392E00E94304E5F983D
:1039F0008A989FB7F894809108018E7F8093080180
:103A00009FBF129847980C94972D8A32910509F41C
:103A100083C28B34910509F4BFC24F9711F00C9407
:103A2000972D99C18335910509F4F9C47CF481354A
:103A3000910509F4D9C40CF0EEC48D34910511F050
:103A40000C94972D0E94C5620C94972D8535910595
:103A500009F421C50CF4E8C48C35910509F436C588
:103A60000C94972D8037910509F4BBC39CF48C36D8
:103A7000910509F4B2C33CF48A36910509F47DC47A
:103A80000CF401C49FC48E36910509F405C30CF4EF
:103A90003EC415C38537910509F408C674F482370E
:103AA000910509F4ABC50CF4A4C38337910511F05B
:103AB0000C94972DE9EEF3E0A7C58737910509F43B
:103AC0004AC60CF409C6ADC68C3D910511F40C94A0
:103AD000DF270CF047C08C3C910509F4ECC70CF5CE
:103AE0008E3B910509F42FC474F48139910509F4D2
:103AF000A5C68B39910509F4E3C38C38910511F003
:103B00000C94972DA2C3893C910509F476C78B3C90
:103B1000910509F4A5C7883C910511F00C94972DE7
:103B200007C7803D910511F40C94992654F48E3CFE
:103B3000910511F40C94302614F40C94C5250C94C2
:103B40005526833D910511F40C94F2268A3D91058A
:103B500011F40C94D227813D910511F00C94972D0E
:103B60000C94E326833641E0940711F40C94212D44
:103B70005CF58D32A1E09A0711F40C945F2894F45F
:103B8000823E910511F40C9432288C32E1E09E07BC
:103B900011F40C945C288D3D910511F00C94972D37
:103BA0000C94EC278F32F1E09F0711F40C946528F8
:103BB00014F40C9462288033914011F00C94972DEA
:103BC0000E94E7380C94972D843F41E0940711F44C
:103BD0000C94F42CA4F48A39A1E09A0709F405C3E3
:103BE0008C3AB1E09B0711F40C94162C803991406B
:103BF00011F00C94972D0E94F5770C94972D863F29
:103C0000F1E09F0711F40C94132D14F40C940D2D76
:103C1000873F31E0930711F40C94162D873E9340B3
:103C200011F40C943A2D0C94972DA0905A04B09056
:103C30005B0480E50E947B35882359F00E94D934CB
:103C40006B017C0111E0672B682B692B31F410E0CC
:103C500004C010E0C12CD12C760183E50E947B3595
:103C6000882351F10E94193520E030E04AE754E4FE
:103C70000E946FC30E9454C86B017C0111111EC0C9
:103C8000672B682B692BD1F4A114B104B9F0D501CD
:103C90008C91882399F080910907811114C042E426
:103CA00050E0B5018DE292E00E944CCA0E94124E93
:103CB00083E080932C0207C0112331F360E087E298
:103CC00092E00E94304E83E090E090939E0F8093AC
:103CD0009D0F81E0809324060E94F5770E9485382D
:103CE000C114D104E104F104E9F08091A40F909192
:103CF000A50FA091A60FB091A70FC80ED91EEA1E5E
:103D0000FB1E0E94C37ADC01CB018C199D09AE0910
:103D1000BF09B7FF1CC0809124068823C1F00E9410
:103D20009FA4EFCF80912406882319F00E949FA4BE
:103D3000F9CF809196079091970760E0029719F468
:103D400085E192E002C086E092E00E94304E10923F
:103D500024060C94972D80919607909197070197D0
:103D600019F40E94C37A08C06091A0077091A1075E
:103D70008091A2079091A30700919C0710919D0745
:103D800020919E0730919F07601B710B820B930B54
:103D900028EE33E040E050E00E94CFC680919807C3
:103DA00090919907A0919A07B0919B07BC01CD0112
:103DB000620F731F841F951F4CE3C42ED12CE12C7E
:103DC000F12CA70196010E94CFC6762E672ECA015C
:103DD000B901A70196010E94CFC66B017C01CA01FF
:103DE000B90128E130E040E050E00E94CFC64B012D
:103DF0005C01C9016DE671E00E94CFC98E010F5FC1
:103E00001F4F6115710599F06F927F92DF92CF92EB
:103E10009F928F929F938F937F936F938BE692E005
:103E20009F938F931F930F930E94A3C212C000977A
:103E3000B1F06F927F92DF92CF929F928F929F9379
:103E40008F938BE592E09F938F931F930F930E9424
:103E5000A3C20FB6F894DEBF0FBECDBF36C081142B
:103E60009104A104B10479F06F927F92DF92CF9216
:103E70009F928F928FE492E09F938F931F930F9363
:103E80000E94A3C2E6CFC114D104E104F10469F099
:103E90006F927F92DF92CF9287E492E09F938F930D
:103EA0001F930F930E94A3C2D4CF6F927F9283E49B
:103EB00092E09F938F931F930F930E94A3C20F9042
:103EC0000F900F900F900F900F9080910907811124
:103ED0000CC042E450E0B8018DE292E00E944CCA6E
:103EE0000E94124E83E080932C02E1E8F5E1849178
:103EF0007F019FEFE91AF90A882321F00E94903888
:103F0000F701F5CFB8018FE792E00E94ED9B8AE0C0
:103F10000E9490380C94972D83E50E947B3588236E
:103F200011F40C94972D0E94F934E82E80E50E943C
:103F30007B35882341F00E94E9348B0177FF02C072
:103F40000C94972D02C00DE010E0902FE1EDF5E00C
:103F500080E38E0F2491921729F031968E13FACFB9
:103F60000C94122EE7E9F5E184918F010F5F1F4F4A
:103F7000882321F00E949038F801F6CFECE8F2E0B7
:103F800084918F010F5F1F4F882311F40C94972D9C
:103F90000E949038F801F4CF0E9442640C94972D4F
:103FA0008091960790919707019711F00C94972DA7
:103FB00082E090E090939707809396070E94C37ADF
:103FC0006093A0077093A1078093A2079093A30723
:103FD0000C94972D88E690E00E94103C81110C947F
:103FE000972D8091610483FF02C00C94972D83E587
:103FF0000E947B35882309F44BC00E941935F0904C
:10400000E5070F2D10E0000F111F075B194F0E94ED
:104010004FC8D8016D937C938F2D0E9479710E94B7
:10402000193520E030E04AEA52E40E940AC318162B
:104030003CF00E94C56260E082EA92E00E94304E4D
:104040000E9419350091E50710E0F801EE0FFF1FFF
:10405000EE0FFF1FE351F14F2081318142815381E7
:104060000E9431C91816A4F48CEE92E09F938F93AE
:104070000F5F1F4F1F930F938BE992E09F938F93D6
:104080001F920E9427640FB6F894DEBF0FBECDBF0B
:104090000E9462BD0C94972D8EE40E947B3588238C
:1040A00011F40C94972D0E94E93460930C077093DF
:1040B0000D0780930E0790930F070C94972D83E5BF
:1040C0000E944C35882359F083E50E947B35882374
:1040D00019F00E94F93401C080E080936104E1E8A6
:1040E000F5E184918F010F5F1F4F882321F00E941B
:1040F0009038F801F6CFE2ECF2E084918F010F5F87
:104100001F4F882321F00E949038F801F6CF80914C
:1041100061048823A1F114EBC12E12E0D12EE12C11
:10412000F12C20E08091610490E00E2C02C0959566
:1041300087950A94E2F780FF17C0BB24B394B20EB0
:10414000222319F08CE20E949038F60125913491D7
:10415000F901849189010F5F1F4F882321F00E948C
:1041600090389801F5CF2B2DFFEFEF1AFF0A32E0C0
:10417000C30ED11C45E0E416F104A1F629C0EEEB14
:10418000F2E084918F010F5F1F4F882309F10E9495
:104190009038F801F6CF04EA17E080E20E949038E8
:1041A000D8016D917D918D919D918D0142E00E948C
:1041B000C93C8CE20E949038F80164817581868147
:1041C000978142E00E94C93CF7E00C3A1F0729F7AB
:1041D0008AE00E9490380C94972D109200020C9463
:1041E000972D89EC92E00E9484B00E9453360C9483
:1041F000972D83E50E947B35882369F00E94F9346E
:104200008D3320F480938A020C94972D8CE3809355
:104210008A020C94972DE1E8F5E184918F010F5FFC
:104220001F4F882321F00E949038F801F6CF40916B
:104230008A0250E060E070E082ED92E00E947D9B97
:104240008AE00E9490380C94972D8091610483FF3E
:1042500002C00C94972D83E50E947B35882311F4CE
:104260000C94972D0E9419350E944FC8673971052B
:1042700014F066E970E070934806609347060E9468
:104280002E710C94972D89E690E00E94103C8111CC
:1042900011C0E9EDF2E084918F010F5F1F4F882379
:1042A00021F00E949038F801F6CF0E943D708AE01C
:1042B0000E94903810929E0F10929D0F0C940F3315
:1042C00083E50E947B35882311F40C94972D0E947E
:1042D000F934182F8D3308F01CE31093A30F0E94BC
:1042E000C37A6B017C01212F30E0A8EEB3E00E947D
:1042F000FBC6C60ED71EE81EF91EC0929F0FD092B5
:10430000A00FE092A10FF092A20F0C94972D8DE6D2
:1043100090E00E94103C81110C94972D80916104D3
:1043200083FF02C00C94972D83E50E947B358CA7F8
:1043300081110C94282E82E50E947B3581110C940A
:10434000282E0C94972D8091610483FF02C00C9459
:10435000972D60E085E193E00E94304E83E50E9456
:104360007B358CA781110C94AD2F82E50E947B35A3
:1043700081110C94AD2F0C94972D80E50E947B3514
:10438000811108C083E50E947B35811109C03FEF90
:1043900020E00AC00E94F93481110C94972DF2CFCD
:1043A0000E94E934362F272F832F922F8F3F9105BC
:1043B00019F010F08FEF90E0909346068093450639
:1043C0000C94972D80E50E947B35811106C01092D8
:1043D0004606109245060C94972D0E94E934672BEF
:1043E00011F00C94972DF3CF0E94D1710E94F577B4
:1043F0000E9440A7109246061092450668EE73E0B0
:1044000080E090E00E94534D60E082E293E00E94E1
:10441000304E0C94972D10929D030C94972D81E0B3
:1044200080939D030C94972D83E50E947B35882310
:10443000A1F00E94193520E030E04AE754E40E94E0
:104440006FC30E9454C860938B0270938C02809358
:104450008D0290938E020C94972D88E50E944C3526
:1044600081110C94EA3089E50E944C3581110C943D
:10447000EA308AE50E944C3581110C94EA3085E4DB
:104480000E944C3581110C94EA300E94F5770E940D
:1044900040A70C94972D83E50E944C35882311F496
:1044A0000C94972D0E94193520E030E04AE754E43F
:1044B0000E946FC30E9454C86093A80F7093A90F05
:1044C0008093AA0F9093AB0F0C94972D8CE590E0FE
:1044D0000E94103C81110C94972DADE9B2E0BD8F84
:1044E000AC8F21EBC22E26E0D22EF12CEC8DFD8D6F
:1044F0008191FD8FEC8F0E944C35882309F473C0A5
:10450000F3E0FF1268C00E9419352B013C0120E046
:1045100030E040EA51E40E940AC3E090E50787FFDB
:104520004FC00E2D10E00D5F1F4F000F111F000F29
:10453000111FF801EF54F94FA301920160817181BD
:10454000828193810E94E7C74B015C019B01AC0112
:104550006091AD067091AE068091AF069091B00665
:104560000E946FC36093AD067093AE068093AF0652
:104570009093B00698012359394F1901A501940170
:10458000D1016D917D918D919C910E946FC3F1013C
:1045900060837183828393830957174FD8016D918C
:1045A0007D918D919C910E940EC3A50194010E9462
:1045B0006FC30E9454C8F801608371838283938320
:1045C00024E0E29EF0011124E354F94F408251822D
:1045D0006282738208C00E941935D6016D937D9363
:1045E0008D939C931397F394B4E0CB0ED11CE4E02D
:1045F000FE127CCF0E94AC8B0C94972D0E94F57715
:104600000E943A3D0C94972D84918F010F5F1F4FAC
:10461000882321F00E949038F801F6CF60E089ED00
:1046200093E00E948A3C60E082ED93E00E948A3C25
:1046300061E087EC93E00E948A3C61E087EB93E0C5
:104640000E948A3C60E08EEA93E00E948A3C61E02E
:1046500084EA93E00E948A3C60E08AE993E00E9449
:104660008A3C60E082E993E00E948A3C60E084E852
:1046700093E00E948A3C60E086E793E00E948A3CD7
:1046800060E087E693E00E948A3C60E089E593E081
:104690000E948A3C60E083E493E00E948A3C60E0F0
:1046A00082E393E00E948A3C0C94972D60915A0417
:1046B00070915B048091090781110C94972D42E45D
:1046C00050E08DE292E00E944CCA0E94124E83E0BC
:1046D00080932C020C94972D85E40E947B358823CF
:1046E00019F00E940A3503C085E40E944C358823E6
:1046F00061F0E1E8F5E184918F010F5F1F4F88239E
:1047000021F00E949038F801F6CF81E40E947B35B9
:10471000882319F00E940A3503C081E40E944C35B9
:10472000882361F0EFEAF4E084918F010F5F1F4F5F
:10473000882321F00E949038F801F6CF00915A04A6
:1047400010915B04D8018D918D01882309F440CD2F
:104750000E949038F7CFEBECF4E084918F010F5F6B
:104760001F4F882321F00E949038F801F6CFE3EC28
:10477000F4E084918F010F5F1F4F882321F00E9486
:104780009038F801F6CF659B03C009ED12E002C036
:104790000EED12E0F80181918F01882319F00E943B
:1047A0009038F8CF8AE00E949038EBEBF4E08491E7
:1047B0008F010F5F1F4F882321F00E949038F8016E
:1047C000F6CF8091030181FF03C009ED12E002C022
:1047D0000EED12E0D8018D918D01882319F00E9411
:1047E0009038F8CF8AE00E949038E3EBF4E08491AF
:1047F0008F010F5F1F4F882321F00E949038F8012E
:10480000F6CF4B9B03C009ED12E002C00EED12E0A3
:10481000F80181918F01882309F4DACC0E94903845
:10482000F7CF81E080937707809376070C94972DDC
:1048300010927707109276070C94972D83E50E94CB
:104840007B35882319F00E94E93402C060E070E0F3
:104850008B01112702301105D4F0E7E9F5E18491CD
:104860008F010F5F1F4F882321F00E949038F801BD
:10487000F6CFE5EEF4E084918F010F5F1F4F8823A0
:1048800011F40C94972D0E949038F801F4CF88E42D
:104890000E947B358823A9F00E94E9346A3A7105A9
:1048A0003CF06530F1E07F072CF064E071E002C07D
:1048B0006AEA70E0F801EE0FFF1FEF5AF94F7183BB
:1048C000608386E40E947B358823A9F00E94E93446
:1048D000F801EE0FFF1FEB5AF94F718360836F3FB2
:1048E000710519F014F06FEF70E077FF02C060E01F
:1048F00070E07183608382E40E947B35882311F429
:104900000C94972D0E94E9346530710534F06838B5
:1049100071052CF067E870E002C065E070E0000F00
:10492000111FF801E35BF94F718360830C94972D9D
:1049300088EC90E00E94103C81110C94972D84E447
:104940000E944C35882309F454C00E94193511E0A7
:1049500020E030E0A9010E940AC3811101C010E0EB
:104960001093AE08112309F444C00E941935E09158
:10497000E50724E0E29FF0011124EB55F74F608337
:1049800071838283938320E030E0A9016091A508C0
:104990007091A6088091A7089091A8080E940AC368
:1049A00081110CC080E090E0A0EEBFE38093A508E9
:1049B0009093A608A093A708B093A80820E030E041
:1049C000A9016091A9087091AA088091AB08909103
:1049D000AC080E940AC381110CC080E090E0A0EEF8
:1049E000BFE38093A9089093AA08A093AB08B09363
:1049F000AC080E94F27D0C94972D89EC90E00E9407
:104A0000103C81110C94972DFDE9CF2EF2E0DF2EA2
:104A1000F12CD6018D916D010E944C358823C1F097
:104A2000B3E0FB1203C00091E50701C000E00E9463
:104A300019350F0DE4E00E9F800111240F57194F17
:104A40000E9454C8D8016D937D938D939C931397C6
:104A5000F394B4E0FB12DDCF0E945C8A0C94972D96
:104A60008BEC90E00E94103C81110C94972DEDE9A5
:104A7000EE2EE2E0FE2E00E0F70181917F010E9420
:104A80004C35882399F0033019F41091E50701C0E3
:104A900010E00E941935100F24E0129FF00111243C
:104AA000E359F94F60837183828393830F5F0430EE
:104AB00019F70C94972D83E50E944C358823D9F083
:104AC0000E941935AB01BC0140939D0650939E0690
:104AD00060939F067093A0064093950650939606A8
:104AE000609397067093980681E695E00E94B79BC5
:104AF0008AE00E94903880E50E944C35882399F026
:104B00000E941935AB01BC0140939D0650939E064F
:104B100060939F067093A00684E495E00E94B79B83
:104B20008AE00E94903882E50E944C35882399F0F3
:104B30000E941935AB01BC014093990650939A0627
:104B400060939B0670939C0685E295E00E94B79B5C
:104B50008AE00E94903884E50E944C35882309F44D
:104B6000E6C70E941935AB01BC01409395065093EE
:104B70009606609397067093980687E095E00E94EA
:104B8000B79B8AE00E949038D2C783E50E944C35DB
:104B9000882351F00E9419356093690670936A0664
:104BA00080936B0690936C0684E50E944C358823B5
:104BB00051F00E94193560936506709366068093E4
:104BC00067069093680682E40E944C35882351F072
:104BD0000E94D9346093820870938308809384087C
:104BE0009093850888E50E944C35882351F00E94F7
:104BF00019356093A1067093A2068093A306909343
:104C0000A40689E50E944C35882351F00E9419358D
:104C10006093A5067093A6068093A7069093A806B6
:104C20008AE50E944C35882351F00E941935609323
:104C3000A9067093AA068093AB069093AC0685E410
:104C40000E944C35882309F472C70E94193560937D
:104C5000AD067093AE068093AF069093B00667C71B
:104C60006DE9C62E62E0D62E7CE2E72E74E0F72EC8
:104C700000E010E0D6018D916D010E944C35882333
:104C800051F00E941935F701608371838283938309
:104C9000C8010E94D6330F5F1F4FF4E0EF0EF11CE6
:104CA0000330110539F70C94C81C83E50E944C357C
:104CB000882351F00E9419356093CB087093CC087B
:104CC0008093CD089093CE0886E40E944C358823CB
:104CD00081F00E94193520E030E040E752E40E9464
:104CE000E7C76093C3087093C4088093C508909386
:104CF000C6088AE50E944C35882351F00E94193578
:104D00006093BF087093C0088093C1089093C20855
:104D100087E50E944C35882309F409C70E9419359C
:104D20006093C7087093C8088093C9089093CA0815
:104D3000FEC683E50E944C35882351F00E94193548
:104D40006093BB087093BC088093BD089093BE0825
:104D500086E40E944C35882381F00E94193520E0BA
:104D600030E040E752E40E94E7C76093B3087093D5
:104D7000B4088093B5089093B60882E50E944C353C
:104D8000882381F00E94193520E030E040E752E4AA
:104D90000E94E7C76093AF087093B0088093B10892
:104DA0009093B20887E50E944C35882309F4BFC66A
:104DB0000E9419356093B7087093B8088093B908BA
:104DC0009093BA08B4C683E50E944C35882309F451
:104DD000AEC60E940A358093CF0810928C031092C1
:104DE0008D03A5C6E1E8F5E184918F010F5F1F4FA8
:104DF000882321F00E949038F801F6CF83E50E94C5
:104E00004C35882321F00E940A3580931702E1EB8C
:104E1000F5E084918F010F5F1F4F882321F00E94DE
:104E20009038F801F6CF80911702811103C0EDEAA6
:104E3000F5E002C0E9EAF5E084918F010F5F1F4FB2
:104E4000882321F00E949038F801F6CFE1EAF5E0DE
:104E500084918F010F5F1F4F882321F00E949038AB
:104E6000F801F6CF2091F90E3091FA0E4091FB0E29
:104E70005091FC0E60918E0370918F03809190038E
:104E8000909191030E940BC7AB01BC018FE995E0A3
:104E90000E94B79B2091FD0E3091FE0E4091FF0EB7
:104EA0005091000F6091920370919303809194034D
:104EB000909195030E940BC7AB01BC018CE995E072
:104EC0000E94B79B2091010F3091020F4091030F78
:104ED0005091040F6091960370919703809198030D
:104EE000909199030E940BC7AB01BC0189E995E041
:104EF0000E94B79BE1E9F5E084918F010F5F1F4F9E
:104F0000882321F00E949038F801F6CF2091F90E05
:104F10003091FA0E4091FB0E5091FC0E60910B0205
:104F200070910C0280910D0290910E020E940BC7AD
:104F3000AB01BC018FE895E00E94B79B2091FD0E6C
:104F40003091FE0E4091FF0E5091000F60910F02C4
:104F50007091100280911102909112020E940BC771
:104F6000AB01BC018CE895E00E94B79B2091010F3A
:104F70003091020F4091030F5091040F6091130282
:104F80007091140280911502909116020E940BC735
:104F9000AB01BC0189E895E00E94B79B8AE00E94C2
:104FA0009038C5C58AED90E00E94103C8111BFC5C4
:104FB0008091E507882309F4BAC50C94103183E584
:104FC0000E947B35882309F4B2C50E94E9347093AE
:104FD0009C0260939B02ABC58DED90E00E94103C5B
:104FE0008111A5C583E50E947B35882309F49FC5FF
:104FF0000091E50710E00E94E934000F111FF8014D
:10500000E956FD4F718360838091E50790E07C0154
:10501000EE0CFF1CEE0CFF1C870101571D4F880F83
:10502000991FFC01E956FD4F60817181072E000C2C
:10503000880B990B0E9410C32AE037ED43E25CE332
:105040000E946FC3F701EA54F04F20813181428101
:1050500053810E946FC3D8016D937D938D939C9370
:10506000139765C580E50E944C35882309F45FC518
:105070000E94E9346B017C0183E50E947B35882323
:1050800021F00E94E9348B0102C00FEF1FEFC8012D
:105090000196039708F04BC5D7FC49C59C2DE1ED5F
:1050A000F5E080E38E0F2491921709F440C5319604
:1050B0008E13F9CF0C94E7320E94873538C50E94D1
:1050C0005E3935C50E94973832C585E40E947B352C
:1050D000882321F00E94E9347B0102C0E12CF12CED
:1050E00083E40E947B35882331F00E94E9346B967B
:1050F0006FAF6B9704C045E06B964FAF6B9785E53C
:105100000E947B35882319F00E940A3503C085E58B
:105110000E944C35A7968FAFA797F7FC07C0812C4C
:10512000912C86E1A82E83E4B82E06C0812C912C08
:105130000CE8A02E02E4B02E83E50E947B35882384
:1051400021F00E9419354B015C0152E0E516F10493
:1051500010F4E092E507EC8E0E94C37A2B013C012B
:105160008C8D87FD02C004E101C008E761E06E0D8F
:10517000633028F417EFE12E12E0F12E0BC00AE0A5
:1051800013E0D8018D918D01882309F421C80E9474
:105190009038F7CFF70181917F01882319F00E94A1
:1051A0009038F8CF8AE00E9490380E94D171FC8D2F
:1051B000F7FF04C08FE78093E40708C02C8DE22F2F
:1051C000220FFF0BEE51F84F8FE78083C501B4012A
:1051D0000E944FC8072E000C880B990B0E9410C329
:1051E0006CA378A788AB9CAB202F30E0A8EEB3E08F
:1051F0000E94FBC6AB966CAF7DAF8EAF9FAFAB97F7
:10520000DC01CB01840D951DA61DB71DE7968CAF63
:105210009DAFAEAFBFAFE79781E080930002A2964B
:105220004CAE5DAE6EAE7FAEA297AF964CAE5DAEAD
:105230006EAE7FAEAF976E961FAE6E97E3961CAEC6
:105240001DAE1EAE1FAEE3972D961FAE2D9790E4B8
:1052500061969FAF6197ACE12596AFAF2597B6E415
:105260002996BFAF299765961FAE659766961FAEC4
:10527000669767961FAE679768961FAE68972496E5
:105280001CAE1DAE1EAE1FAE24971CAE1DAE1EAED4
:105290001FAEC12CD12C7601AFE78A2E912CA12C08
:1052A000B12C2FE730E040E050E02CA73DA74EA7FF
:1052B0005FA7A6961CAE1DAE1EAE1FAEA69731E030
:1052C0006D963FAF6D9719AE18AE10E0212C312CC2
:1052D00000E04C8D842F440F990BDC01AE51B84F88
:1052E000E996BFAFAEAFE997880F991F880F991F56
:1052F000FC01E351F14F6A96FFAFEEAF6A976B96F0
:105300002FAD6B97022E000C330B6C963FAF2EAF78
:105310006C9780910002882309F4FAC00E94C37A36
:1053200068A379A38AA39BA38091E007882309F44B
:10533000D3C00E94AF723C8D37FF09C01091F50EAB
:105340002090F60E3090F70E0091F80E0DC06A9680
:10535000AEADBFAD6A971C9111962C901197129625
:105360003C90129713960C91212F322D432D502FE4
:1053700065966FAD659766967FAD669767968FADBC
:10538000679768969FAD68970E940AC387FF0CC015
:1053900065961FAF659766962FAE669767963FAE88
:1053A000679768960FAF6897212F322D432D502FA6
:1053B0002D966FAD2D9761967FAD619725968FAD38
:1053C000259729969FAD29970E9431C9181664F434
:1053D0002D961FAF2D9761962FAE619725963FAE04
:1053E000259729960FAF29976D96BFAD6D972CA184
:1053F00038A548A95CA9612F722D832D902FBB235E
:1054000009F450C00E9431C918160CF065C048A1BB
:1054100059A16AA17BA14419550966097709DB01E5
:10542000CA0188589341A109B109B7FD55C08CA59F
:105430009DA5AEA5BFA588199909AA09BB09EC8D40
:10544000B595A79597958795E7FF03C08093E407E7
:1054500005C0E996EEADFFADE9978083A6964CAF07
:105460005DAF6EAF7FAFA697FCA16596FFAF659766
:1054700028A566962FAF669738A967963FAF6797BE
:105480004CA968964FAF689788A199A1AAA1BBA122
:10549000A2968CAF9DAFAEAFBFAFA2976D961FAE79
:1054A0006D971AC00E940AC387FF16C088A199A1F0
:1054B000AAA1BBA1A2962CAD3DAD4EAD5FADA2970A
:1054C000821B930BA40BB50BAC01BD014858534193
:1054D0006109710977FFE2C620E030E040EA51E45B
:1054E0006CA178A588A99CA90E940BC79B01AC015F
:1054F000612F722D832D902F0E9431C918167CF4D4
:10550000ECEFF6E084918F010F5F1F4F811103C014
:105510000E94D1710CC30E949038F801F3CF88A18A
:1055200099A1AAA1BBA1AF962CAD3DAD4EAD5FAD8B
:10553000AF97821B930BA40BB50BB7FD97C00E94CE
:105540003D708AE00E94903888A199A1AAA1BBA1D0
:105550008053984FAF4FBF4FAF968CAF9DAFAEAF5C
:10556000BFAFAF976E969FAD6E97911164C0E396F3
:105570002CAD3DAD4EAD5FADE397612F722D832D08
:10558000902F0E9431C918160CF040C020E030E086
:1055900040EC50E46CA178A588A99CA90E940AC798
:1055A0009B01AC01A1E06E96AFAF6E97612F722D9B
:1055B000832D902F0E9431C918161CF06E961FAED5
:1055C0006E9720E030E040E050E4612F722D832D93
:1055D000902F0E940BC7E3966CAF7DAF8EAF9FAF4D
:1055E000E39728A139A14AA15BA1AB968CAD9DADF3
:1055F000AEADBFADAB97280F391F4A1F5B1FE796B3
:105600002CAF3DAF4EAF5FAFE79730C088A199A1F7
:10561000AAA1BBA1E7962CAD3DAD4EAD5FADE7971E
:10562000821B930BA40BB50BB7FD20C04EED56E0CB
:105630006DEE76E018C020E030E040EA51E46CA165
:1056400078A588A99CA90E940AC79B01AC01612F7B
:10565000722D832D902F0E940AC387FF07C04EEB47
:1056600056E06EEC76E08C8D0E94E37288A199A1E1
:10567000AAA1BBA1880F991FAA1FBB1FA2962CAD80
:105680003DAD4EAD5FADA297821B930BA40BB50B46
:1056900084199509A609B70981389F44A241B1052B
:1056A00068F0E0EAF6E084918F010F5F1F4F8823D6
:1056B00009F42ECF0E949038F801F5CF48AD59ADCE
:1056C0006C968EAD9FAD6C97841795070CF0ABC0B0
:1056D000E3E4F6E084918F010F5F1F4F882321F0F0
:1056E0000E949038F801F6CF9C8D97FD03C00AE820
:1056F00013E002C008EE12E0B80181E396E00E94D8
:10570000ED9BB701A6018DE296E00E94B79B8AE06F
:105710000E949038B8018BE196E00E94ED9B4CAD61
:105720005DAD6EAD7FAD87E196E00E94B79B8AE0EC
:105730000E949038B80185E096E00E94ED9B249687
:105740004CAD5DAD6EAD7FAD249781E096E00E94DB
:10575000B79B8AE00E949038A796AFADA797AA237F
:1057600009F4E5C1BC8DB7FF2FC0C092DC07D09211
:10577000DD07E092DE07F092DF072CEA35EC47E226
:105780005EE36CAD7DAD8EAD9FAD0E946FC3609347
:10579000D8077093D9078093DA079093DB072CEA38
:1057A00035EC47E25EE324966CAD7DAD8EAD9FADEA
:1057B00024970E94E7C76093D4077093D50780931E
:1057C000D6079093D707B3C1C0923806D092390656
:1057D000E0923A06F0923B062CEA35EC47E25EE3B3
:1057E0006CAD7DAD8EAD9FAD0E946FC360934006E2
:1057F0007093410680934206909343062CEA35EC61
:1058000047E25EE324966CAD7DAD8EAD9FAD2497EF
:105810000E94E7C760933C0670933D0680933E0666
:1058200090933F0684C10E944E4E73CD0E947565D1
:1058300081117DC14CEB842E4AE2942EE9EFF6E013
:10584000FD8FEC8F9E012F5F3F4F590105E01BE25A
:10585000190133E0300F38A3F401659175918591FA
:105860009491AC8DBD8DCD90DD90ED90FD90BD8F70
:10587000AC8FA70196010E940AC72B013C0120E0D2
:1058800030E040EA51EC0E9431C987FD10C020E0B1
:1058900030E040EA51E4C301B2010E940AC3181685
:1058A00034F0F10140825182628273820DC0F801AE
:1058B00084911816B4F7F7FAF094F7F8F094F10120
:1058C000C082D182E282F382D101CD90DD90ED9051
:1058D000FD901D0120E030E040EA51ECC701B60127
:1058E0000E9431C987FF03C0E7E9F5E10BC020E062
:1058F00030E040EA51E4C701B6010E940AC318161D
:1059000074F5F2CF84918F010F5F1F4F882321F030
:105910000E949038F801F6CFEEE8F7E084918F010D
:105920000F5F1F4F882321F00E949038F801F6CFB7
:1059300061E080E897E00E94304E0E94649E88E219
:1059400090E09F8B8E8B88EC90E09B8F8A8FBE01BE
:105950006A5E7F4FCE014A960E94F363E8C0B4E0CE
:105960008B0E911C0F5F1F4FE8A1E01375CF3CE237
:10597000E32E34E0F32E00E010E0F50181919191E7
:10598000A191B1915F01F70181939193A193B1939B
:105990007F01C8010BD70F5F1F4F0330110569F757
:1059A0000E943A3D60E080E797E00E94304E83E934
:1059B00092E09B8F8A8F04E610E01F8B0E8BBE0156
:1059C000665E7F4FCE0146960E94F3638AEB92E0BB
:1059D0009B8F8A8F1F8B0E8BBE01665E7F4FCE0121
:1059E00046960E94F363A3C0E7E9F5E184918F0135
:1059F0000F5F1F4F882321F00E949038F801F6CFE7
:105A0000ECEAF7E084918F010F5F1F4F882309F4C0
:105A10008EC00E949038F801F5CF0E9479AC80E0EA
:105A20000E94606784C00E9479AC81C083E50E94B7
:105A30004C35882319F0EED791E089270E946067E2
:105A400076C0E7E9F5E184918F010F5F1F4F88234E
:105A500021F00E949038F801F6CFEDEBF7E0849149
:105A60008F010F5F1F4F882309F461C00E94903897
:105A7000F801F5CF81E0809370021092090783E569
:105A80000E947B35882311F0C5D703C083E50E94AF
:105A90004C3581114CC00E94B8A849C010915C04DB
:105AA0008091AD08181759F083E50E947B35882353
:105AB00011F0B0D702C083E5EFD7082F01C001E095
:105AC00086E40E947B35882311F0B3D703C060E0E1
:105AD00070E0CB01123020F0812F0E944C3C27C097
