:100000000C9415160C9446160C9446160C94461631
:100010000C9446160C9446160C9446160C944616F0
:100020000C9446160C9446160C9446160C944616E0
:100030000C9446160C9446160C9446160C944616D0
:100040000C9446160C94B1290C9446160C94461642
:100050000C9446160C9446160C941D840C9477A6AA
:100060000C9446160C94F51F0C9446160C944616E8
:100070000C9446160C9446160C9446160C94461690
:100080000C9446160C9446160C9446160C94461680
:100090000C9446160C9446160C9446160C94461670
:1000A0000C9446160C9446160C9446160C94461660
:1000B0000C9446160C9446160C9446160C94461650
:1000C0000C9446160C9446160C9446160C94461640
:1000D0000C9446160C9446160C9446160C94461630
:1000E0000C944616CD84D284FC840185E184ED8491
:1000F000B7845B8E5E8E4D8E518E578E958E628E3E
:10010000668E6C8E708E748E7A8E7E8E828E958EBA
:10011000888E8C8E908E49904E9053905D90679013
:10012000E0907190799081908B9095909F90AE9097
:10013000B890E090C290CC90D690A893F79130926E
:10014000E4933092309230923092309230923092EA
:10015000309230923092309230923092309230928F
:10016000309230923092309230923092309230927F
:10017000309230923092DE933092309230923092C0
:100180003092309230923092B793309230923092D7
:100190003092309230923092309230923092FB9383
:1001A0002D92084AD73B3BCE016E84BCBFFDC12FC8
:1001B0003D6C74319ABD56833DDA3D00C77F11BE58
:1001C000D9E4BB4C3E916BAAAABE000000803F055B
:1001D000A84CCDB2D44EB93836A9020C50B991868C
:1001E00088083CA6AAAA2ABE000000803F004E4113
:1001F0004E494E495459494E46CDCCCC3D0AD723A1
:100200003C17B7D13877CC2B329595E6241FB14FE8
:100210000A000020410000C84200401C4620BCBE2D
:100220004CCA1B0E5AAEC59D74434F4D4D554E4999
:10023000434154494F4E0044525952554E00455285
:10024000524F525300494E464F004543484F0047D6
:10025000322F47332062616420706172616D657472
:100260006572730A00536C6565702E2E2E00526500
:1002700073756D696E67207072696E740033442007
:100280005072696E7465722072656164792E0043E4
:100290006C69636B20746F20726573756D652E2EAB
:1002A0002E004E6F206D6F76652E00256973002538
:1002B000696D20256973002569682025696D2025F1
:1002C000697300256964202569682025696D2025EA
:1002D00069730025697920256964202569682025CE
:1002E000696D20256973005072696E742074696DA0
:1002F000653A200050726F746563746564205069BC
:100300006E0A004525692025730033442050726928
:100310006E7465722072656164792E004A0245022E
:100320003E02370229026F66660044454255473A4D
:10033000004B494C4C45442E20004D313133205365
:10034000006F6B003344205072696E746572204FE9
:1003500066662E00454D455247454E43595F504114
:100360005253455200434153455F4C494748545FFF
:100370004252494748544E45535300544F47474C07
:10038000455F4C494748545300534F4654574152D8
:10039000455F504F574552004255494C445F5045C8
:1003A0005243454E54004C4556454C494E475F44D8
:1003B000415441005A5F50524F4245004155544FFD
:1003C0004C4556454C005052494E545F4A4F4200EE
:1003D00050524F4752455353004155544F52455088
:1003E0004F52545F54454D5000564F4C554D455457
:1003F00052494300454550524F4D005345524941E3
:100400004C5F584F4E5F584F4646004649524D5735
:100410004152455F4E414D453A4D61726C696E20C7
:10042000312E312E3820284769746875622920538F
:100430004F555243455F434F44455F55524C3A68D0
:10044000747470733A2F2F6769746875622E636FC6
:100450006D2F4D61726C696E4669726D7761726560
:100460002F4D61726C696E2050524F544F434F4C68
:100470005F56455253494F4E3A312E30204D41433D
:1004800048494E455F545950453A334420507269AB
:100490006E7465722045585452554445525F434F1F
:1004A000554E543A3220555549443A636564653295
:1004B0006132662D343161322D343734382D396252
:1004C00031322D6335356336326633363766660A28
:1004D000002F2F20004D31343520533C696E646568
:1004E000783E206F7574206F662072616E6765209C
:1004F00028302D31290A0053657474696E672054C1
:10050000726176656C20416363656C6572617469C4
:100510006F6E3A200053657474696E67205265747B
:100520007261637420416363656C65726174696FA5
:100530006E3A200053657474696E67205072696E5C
:100540007420416363656C65726174696F6E3A20F3
:100550000053657474696E67205072696E7420610F
:100560006E642054726176656C20416363656C65CE
:10057000726174696F6E3A2000205A002059005849
:100580000020204D61783A2000205A002059005860
:100590000020204D696E3A20004F6E20004F6666A5
:1005A00000536F667420656E6473746F70733A20C5
:1005B00000486F74656E64206F6666736574733A85
:1005C00000000136372603FF3C3D380EFF2E303E3B
:1005D00012FFFF0C0809FFFFFF1A1C18FFFF24225F
:1005E0001EFFFF08440AFF4307FF45FFFFFFFFFF11
:1005F000FF20643A0020693A0020703A0020643AF3
:100600000020693A0020703A0043290A0061626CB8
:10061000656420286D696E2074656D702000436FDD
:100620006C642065787472756465732061726520EE
:10063000000000F2C1000004C2000000004F666626
:1006400073657473206170706C69656400457272C3
:100650003A20546F6F206661722100546F6F2066DC
:1006600061722066726F6D207265666572656E6379
:100670006520706F696E740A00FFFFFF4545505298
:100680004F4D2064697361626C65640A004E6F208F
:1006900063617365206C696768740A00556E6B6EE0
:1006A0006F776E20636F6D6D616E643A2022004536
:1006B0006E6473746F707320256320256320256337
:1006C00020256300205A3A0020593A0020583A0069
:1006D000656E6473746F7073206869743A20006586
:1006E0006E7175657565696E672022004B494C4CCB
:1006F00045442E200053544F505045442E20005066
:1007000072696E7465722073746F707065642064B2
:10071000756520746F206572726F72732E20466942
:100720007820746865206572726F7220616E642033
:10073000757365204D39393920746F207265737473
:100740006172742E202854656D70657261747572C3
:10075000652069732072657365742E20536574205B
:100760006974206166746572207265737461727455
:10077000696E67290A004E6F20436865636B737565
:100780006D2077697468206C696E65206E756D6286
:1007900065722C204C617374204C696E653A2000A0
:1007A000636865636B73756D206D69736D617463E8
:1007B000682C204C617374204C696E653A20004CA3
:1007C000696E65204E756D626572206973206E6F6B
:1007D00074204C617374204C696E65204E756D6297
:1007E00065722B312C204C617374204C696E653A14
:1007F00020004D3131300020496E76616C696420F3
:10080000657874727564657220000000F2C10000A2
:1008100004C200000000000016430000484300002E
:10082000484348656174696E6720646F6E652E0089
:1008300020573A0045256920257300334420507223
:10084000696E7465722072656164792E00416D6114
:100850007820453200416D617820453200416D615C
:100860007820453200416D617820453100416D614D
:100870007820453100416D617820453100416D613E
:1008800078204500416D6178204500416D617820F8
:100890004500416D6178205A00416D6178205A0011
:1008A000416D6178205A00416D6178205900416D99
:1008B0006178205900416D6178205900416D61785F
:1008C000205800416D6178205800416D61782058B2
:1008D00000412D74726176656C00412D74726176F1
:1008E000656C00412D7265747261637400412D72F4
:1008F00065747261637400416363656C0041636396
:10090000656C004D6F74696F6E0056652D6A657277
:100910006B0056652D6A65726B0056652D6A6572AF
:100920006B00567A2D6A65726B00567A2D6A657275
:100930006B0056792D6A65726B0056792D6A657267
:100940006B0056792D6A65726B0056782D6A657258
:100950006B0056782D6A65726B0056782D6A657249
:100960006B004D6F74696F6E004532737465707300
:100970002F6D6D00453273746570732F6D6D00457A
:100980003173746570732F6D6D00453173746570CC
:10099000732F6D6D004573746570732F6D6D004519
:1009A00073746570732F6D6D005A73746570732F57
:1009B0006D6D005A73746570732F6D6D005973748B
:1009C0006570732F6D6D005973746570732F6D6D45
:1009D000005873746570732F6D6D00587374657073
:1009E000732F6D6D004D6F74696F6E005374657079
:1009F000732F6D6D004A65726B00416363656C65B2
:100A0000726174696F6E0056656C6F63697479000A
:100A1000436F6E74726F6C0046696C2E204469617E
:100A20002E20320046696C2E204469612E2032004F
:100A300046696C2E204469612E20310046696C2E77
:100A4000204469612E20310046696C2E2044696182
:100A50002E0046696C2E204469612E004F666600A8
:100A60004F6E20004520696E206D6D3300436F6E20
:100A700074726F6C0024F4D43050C38E20C2A24034
:100A800017828B7011127A910D816CD90AA861E1DD
:100A900008C7586607615143061E4B5D05C145A74F
:100AA000041A411104093D9803713931034036DBC2
:100AB0000265339102D4305402802E1D02632CEE65
:100AC00001752AC501B028A001102781018F256476
:100AD000012B244B01E0223401AC211F018D200D9C
:100AE00001801FFC00841EED00971DDF00B81CD2A2
:100AF00000E61BC600201BBC00641AB200B219A895
:100B0000000A19A0006A189900D117910040178BAC
:100B100000B516840031167E00B31579003A1573BE
:100B200000C7146F0058146A00EE13660088136340
:100B30000025135E00C7125B006C1257001512549B
:100B400000C111510070114F0021114B00D6104906
:100B5000008D1047004610440002104200C00F40B4
:100B600000800F3E00420F3C00060F3B00CB0E38CA
:100B700000930E37005C0E3500270E3400F30D3263
:100B800000C10D3100900D3000600D2E00320D2D92
:100B900000050D2C00D90C2B00AE0C2900850C296A
:100BA000005C0C2700350C27000E0C2600E80B24F7
:100BB00000C40B2400A00B23007D0B23005A0B2143
:100BC00000390B2100180B2000F80A1F00D90A1E5B
:100BD00000BB0A1E009D0A1D00800A1D00630A1C3E
:100BE00000470A1B002C0A1B00110A1A00F7091AF9
:100BF00000DD091900C4091900AB09190092091791
:100C0000007B091800630917004C09160036091605
:100C100000200916000A091500F5081500E008145F
:100C200000CC081400B8081400A40814009008139D
:100C3000007D0812006B08130058081200460812C5
:100C400000340811002308110012081100010811D6
:100C500000F0071000E0071000D0071000C00710D8
:100C600000B0070F00A107100091070E0083070FC7
:100C70000074070F0065070E0057070E0049070EA6
:100C8000003B070D002E070E0020070D0013070D77
:100C90000006070D00F9060C00ED060D00E0060C3D
:100CA00000D4060C00C8060C00BC060C00B0060CF4
:100CB00000A4060B0099060C008D060B0082060BA3
:100CC0000077060B006C060B0061060A0057060B46
:100CD000004C060A0042060A0038060A002E060AE0
:100CE0000024060A001A060A001006090007060A70
:100CF00000FD050900F4050900EB050900E20509FE
:100D000000D9050900D0050900C7050900BE05097D
:100D100000B5050800AD050800A50509009C0508FB
:100D200000940508008C050800840508007C05086F
:100D300000740508006C050700650508005D0507DF
:100D400000560508004E0507004705070040050846
:100D50000038050700310507002A050700230507AD
:100D6000001C050600160507000F0507000805060C
:100D70000002050700FB040600F5040700EE040668
:100D800000E8040600E2040700DB040600D50406C0
:100D900000CF040600C9040600C3040600BD040613
:100DA00000B7040600B1040500AC040600A6040662
:100DB00000A00405009B04060095040500900406AD
:100DC000008A04050085040500800406007A0405F5
:100DD0000075040500700405006B04050066040539
:100DE00000610405005C0405005704050052040579
:100DF000004D04050048040500430405003E0404BA
:100E0000003A04050035040500300404002C0405F4
:100E10000027040400230405001E0404001A04042F
:100E20000016040500110404000D04040009040563
:100E3000000404040000040400FC030400F803049C
:100E400000F4030400F0030400EC030400E80304CE
:100E500000E4030400E0030400DC030400D80304FE
:100E600000D4030400D0030400CC030400C803032F
:100E700000C503030024F404D9201BC40C5C0E98A5
:100E800004C4095F0265077101F405F900FB04B3AE
:100E90000048048700C10369005803550003034557
:100EA00000BE023A008402310053022A00290225C2
:100EB0000004022000E4011C00C8011900AF011762
:100EC00000980114008401130071011000610110E9
:100ED0000051010E0043010D0036010B002B010BE8
:100EE0000020010B00150109000C01090003010895
:100EF00000FB000800F3000800EB000700E4000618
:100F000000DE000600D8000600D2000600CC000576
:100F100000C7000500C2000500BD000400B90004C0
:100F200000B5000400B1000400AD000400A90004F5
:100F300000A5000300A20003009F0004009B000323
:100F40000098000300950002009300030090000346
:100F5000008D0002008B0003008800020086000262
:100F60000084000300810002007F0002007D000277
:100F7000007B000200790002007700010076000289
:100F8000007400020072000100710002006F000294
:100F9000006D0001006C0002006A0001006900029F
:100FA00000670001006600010065000100640002A6
:100FB000006200010061000100600001005F0002AA
:100FC000005D0001005C0001005B0001005A0001AF
:100FD00000590001005800010057000100560001AF
:100FE00000550001005400010053000000530001AF
:100FF000005200010051000100500001004F0001AB
:10100000004E0000004E0001004D0001004C0001A8
:10101000004B0000004B0001004A000100490001A4
:1010200000480000004800010047000100460000A1
:101030000046000100450000004500010044000199
:101040000043000000430001004200000042000194
:10105000004100000041000100400001003F00008D
:10106000003F0001003E0000003E0001003D000086
:10107000003D0001003C0000003C0000003C00017D
:10108000003B0000003B0001003A0000003A000174
:10109000003900000039000100380000003800006D
:1010A0000038000100370000003700010036000062
:1010B0000036000000360001003500000035000059
:1010C000003500010034000000340000003400014D
:1010D0000033000000330000003300010032000044
:1010E0000032000000320001003100000031000039
:1010F000003100010030000000300000003000012D
:10110000002F0000002F0000002F0000002F000122
:10111000002E0000002E0000002E0001002D000017
:10112000002D0000002D0000002D0001002C00000B
:10113000002C0000002C0000002C0001002B0000FF
:10114000002B0000002B0000002B0001002A0000F3
:10115000002A0000002A0000002A000100290000E7
:1011600000290000002900000029000000290001DA
:1011700000280000002800000028000000280000CF
:1011800000280001002700000027000000270000C1
:1011900000270000002700010026000000260000B4
:1011A00000260000002600000026000100250000A7
:1011B000002500000025000000250000002500009B
:1011C000002500010024000000240000002400008D
:1011D0000024000000240001002300000023000080
:1011E0000023000000230000002300000023000073
:1011F0000023000100220000002200000022000065
:101200000022000000220000002200010021000056
:10121000002100000021000000210000002100004A
:10122000002100000021000100200000002000003B
:10123000002000000020000000200000002000002E
:101240000020000000200001001F0000001F00001F
:10125000001F0000001F0000001F0000001F000012
:10126000001F0001001E0000001E0000001E000004
:10127000001E000000526573746F7265206661691C
:101280006C736166650052657472616374004669CF
:101290006C616D656E74004D6F74696F6E0054659E
:1012A0006D7065726174757265004D61696E005094
:1012B0007265686561742041425320636F6E6600F9
:1012C0005072656865617420504C4120636F6E6692
:1012D000005049442D44005049442D440050494495
:1012E0002D49005049442D49005049442D5000508B
:1012F00049442D50002008204661637400200820D6
:1013000046616374002008204D6178002008204D5C
:101310006178002008204D6178002008204D696E1A
:10132000002008204D696E002008204D696E004F96
:101330006666004F6E20004175746F74656D7000B5
:1013400046616E2073706565640046616E2073703F
:101350006565640046616E20737065656400426572
:10136000640042656400426564004E6F7A7A6C6581
:101370002032004E6F7A7A6C652032004E6F7A7A96
:101380006C652032004E6F7A7A6C652031004E6FAA
:101390007A7A6C652031004E6F7A7A6C6520310064
:1013A000436F6E74726F6C00426564004265640046
:1013B000426564004E6F7A7A6C65004E6F7A7A6C83
:1013C00065004E6F7A7A6C650046616E20737065B9
:1013D00065640046616E2073706565640046616EE9
:1013E0002073706565640054656D70657261747515
:1013F0007265005654726176206D696E00565472A3
:101400006176206D696E005654726176206D696E4A
:1014100000566D696E00566D696E00566D696E00FE
:10142000566D617820453200566D61782045320056
:10143000566D617820453200566D61782045310047
:10144000566D617820453100566D61782045310038
:10145000566D6178204500566D6178204500566DC7
:101460006178204500566D6178205A00566D61788C
:10147000205A00566D6178205A00566D61782059C7
:1014800000566D6178205900566D617820590056DC
:101490006D6178205800566D6178205800566D6156
:1014A000782058004D6F74696F6E00426564206447
:1014B0006F6E652E0020573A0042656420486561D2
:1014C00074696E672E00205A3A0020593A00204372
:1014D0006F756E7420583A0020453A00205A3A0041
:1014E00020593A00583A003A004361703A00526578
:1014F00073656E643A20006F6B0020746F6F206C10
:101500006F6E6720657874727573696F6E20707284
:101510006576656E7465640A0020636F6C6420658F
:101520007874727573696F6E2070726576656E740B
:1015300065640A00627573793A2070617573656439
:1015400020666F7220696E7075740A006275737917
:101550003A2070617573656420666F7220757365DB
:10156000720A00627573793A2070726F63657373E3
:10157000696E670A004B494C4C45442E20004B498C
:101580004C4C20636175736564206279204B494C33
:101590004C20627574746F6E2F70696E0A004B492F
:1015A0004C4C45442E20004B494C4C2063617573D4
:1015B000656420627920746F6F206D75636820699F
:1015C0006E6163746976652074696D65202D206392
:1015D000757272656E7420636F6D6D616E643A2012
:1015E0000000060900FE0701920321207FFF07FF8C
:1015F00007FF0000000600000107070602008080C8
:101600008080800080030202060105A0A005070774
:101610000600005050F850F850500507070600002B
:101620002078A07028F020050707060000C0C81029
:10163000204098180507070600006090A040A89079
:1016400068020303060104C0408003070706010087
:101650002040808080402003070706010080402052
:101660002020408005050506000120A870A820055F
:1016700005050600012020F820200203030602FFD2
:10168000C04080050101060003F8020202060200C4
:10169000C0C00505050600010810204080050707A9
:1016A0000600007088888888887003070706010094
:1016B00040C040404040E005070706000070880831
:1016C000708080F8050707060000F8102010080851
:1016D000F005070706000010305090F810100507BD
:1016E00007060000F880F008088870050707060064
:1016F00000708080F0888870050707060000F808F1
:1017000010202020200507070600007088887088B8
:10171000887005070706000070888878080870023E
:101720000505060200C0C000C0C00206060602FF92
:10173000C0C000C0408004070706000010204080A1
:10174000402010050303060002F800F8040707060E
:10175000010080402010204080050707060000702F
:101760008808102000200507070600007088086818
:10177000A8A870050707060000708888F888888880
:10178000050707060000F08888F08888F00507073D
:1017900006000070888080808870050707060000BA
:1017A000F08888888888F0050707060000F88080A0
:1017B000F08080F8050707060000F88080F0808040
:1017C00080050707060000708880B88888700507C4
:1017D00007060000888888F88888880107070602BD
:1017E0000080808080808080050707060000381018
:1017F00010101090600507070600008890A0C0A098
:101800009088050707060000808080808080F805AA
:10181000070706000088D8A8888888880507070673
:1018200000008888C8A89888880507070600007007
:10183000888888888870050707060000F08888F087
:1018400080808005070706000070888888A8906857
:10185000050707060000F08888F0A09088050707B4
:10186000060000788080700808F005070706000071
:10187000F8202020202020050707060000888888FF
:10188000888888700507070600008888888888503F
:10189000200507070600008888888888A850050763
:1018A0000706000088885020508888050707060032
:1018B0000088888850202020050707060000F808C7
:1018C00010204080F8030707060100E08080808038
:1018D00080E0050505060001804020100803070789
:1018E000060100E02020202020E00503030600047C
:1018F000205088050101060000F8020202060205D8
:1019000080400505050600007008788878050707FF
:101910000600008080B0C88888F005050506000034
:10192000708080887005070706000008086898889E
:1019300088780505050600007088F880700507079F
:101940000600003048E0404040400506060600FF23
:101950007088887808700507070600008080B0C886
:1019600088888801070706020080008080808080C8
:101970000308080601FF200020202020A0400407C3
:1019800007060000808090A0C0A090030707060112
:1019900000C04040404040E0050505060000D0A8DA
:1019A000A8A8A8050505060000B0C8888888050510
:1019B0000506000070888888700506060600FFF09E
:1019C0008888F080800506060600FF7888887808F9
:1019D00008050505060000B0C880808005050506DD
:1019E000000070807008F00407070600004040E027
:1019F0004040403005050506000088888898680545
:101A000005050600008888885020050505060000A9
:101A10008888A8A850050505060000885020508831
:101A20000506060600FF8888887808700505050603
:101A30000000F8102040F80307070601002040408E
:101A4000804040200107070602008080808080805F
:101A500080030707060100804040204040800502C7
:101A600002060002689000000006000020204D32AF
:101A700030392053004175746F2D52657472616363
:101A8000743A20533D3020746F2064697361626C36
:101A9000652C203120746F20696E746572707265D8
:101AA0007420452D6F6E6C79206D6F7665732061A3
:101AB0007320726574726163742F7265636F7665EB
:101AC000720A0020460020570020204D3230382076
:101AD00053005265636F7665723A20533C6C656EB5
:101AE0006774683E20463C756E6974732F6D3E0ABC
:101AF00000205A0020460020570020204D32303769
:101B0000205300526574726163743A20533C6C65D3
:101B10006E6774683E20463C756E6974732F6D3E27
:101B2000205A3C6C6966743E0A002044002049003B
:101B300020204D3330342050002044002049002024
:101B4000204D3330312050002044002049002050E7
:101B50000020204D3330312045005049442073652A
:101B60007474696E67733A0A0020460020420020B0
:101B7000480020204D3134352053004D617465728A
:101B800069616C2068656174757020706172616D47
:101B900065746572733A0A002059002058002020AD
:101BA0004D323138205400486F74656E64206F6682
:101BB00066736574733A0A00205A00205900202089
:101BC0004D323036205800486F6D65206F66667361
:101BD00065743A0A00204500205A00205900205818
:101BE0000020420020540020204D32303520530088
:101BF000416476616E6365643A20533C6D696E5F43
:101C000066656564726174653E20543C6D696E5F03
:101C100074726176656C5F66656564726174653E59
:101C200020423C6D696E5F7365676D656E745F74AD
:101C3000696D655F75733E20583C6D61785F78799A
:101C40005F6A65726B3E205A3C6D61785F7A5F6AAD
:101C500065726B3E20453C6D61785F655F6A6572B9
:101C60006B3E0A0020540020520020204D323034B8
:101C7000205000416363656C65726174696F6E200A
:101C800028756E6974732F7332293A20503C707234
:101C9000696E745F616363656C3E20523C7265746B
:101CA000726163745F616363656C3E20543C74725F
:101CB0006176656C5F616363656C3E0A0020450078
:101CC00020204D323031205400205A00205900206D
:101CD000204D3230312058004D6178696D756D208E
:101CE000416363656C65726174696F6E2028756EFF
:101CF0006974732F7332293A0A0020450020204D61
:101D0000323033205400205A0020590020204D3218
:101D100030332058004D6178696D756D20666565BA
:101D20006472617465732028756E6974732F7329EA
:101D30003A0A0020450020204D3932205400205A14
:101D40000020590020204D3932205800537465700E
:101D5000732070657220756E69743A0A0020204DF8
:101D60003230302044300A0020204D3230302054B0
:101D70003120440020204D3230302044002044697E
:101D80007361626C65640A0046696C616D656E74AE
:101D90002073657474696E67733A0020204D313486
:101DA000392043203B20556E69747320696E2043AF
:101DB000656C736975730A0020204732312020203A
:101DC000203B20556E69747320696E206D6D0A008A
:101DD000507265686561742041425320416C6C000B
:101DE000507265686561742041425320456E6420DD
:101DF000453200507265686561742041425320325B
:101E000000507265686561742041425320456E64DC
:101E1000204531005072656865617420414253204D
:101E200042656400507265686561742041425320C8
:101E3000310050726570617265004D343238005067
:101E400072656865617420504C4100436F6F6C642B
:101E50006F776E005072656865617420414253006F
:101E600044697361626C6520737465707065727328
:101E7000004D38340053657420686F6D65206F66BF
:101E80006673657473004175746F20686F6D6500CB
:101E9000473238004D6F76652061786973004D6177
:101EA000696E004D6F76652058004D6F766520593C
:101EB000004D6F7665205A004578747275646572BE
:101EC0003200457874727564657231004D6F7665C5
:101ED00020302E316D6D004D6F766520316D6D00B7
:101EE0004D6F76652031306D6D004D6F76652061E8
:101EF000786973004578747275646572004D6F7609
:101F000065205A004D6F76652059004D6F7665202B
:101F10005800457874727564657232004578747241
:101F20007564657231004578747275646572004D30
:101F30006F7665205A004D6F76652059004D6F769B
:101F4000652058005072657061726500506C656163
:101F50007365207265736574005052494E54455242
:101F60002048414C544544005072696E746572209B
:101F700068616C7465642E206B696C6C2829206321
:101F8000616C6C6564210A001FFFFFFFFFFFFF60AB
:101F90000000000001FF400000000000FF80000082
:101FA0000000007F83CF00000C303F87FF80000CD3
:101FB000301F867980000C000F8C30C7838C30E78F
:101FC0008C30CFC7CC31F38C30DCECEC33B98C30B7
:101FD000D86C6C33198C30D06C0C33198C30D86CB5
:101FE0000C33198C30DC6C0E3B198C30CF7C079F86
:101FF000198C30C77C038F1940000000000002607C
:102000000000000000061FFFFFFFFFFFF820205028
:102010006C616E6E65724275666665724279746552
:10202000733A20002046726565204D656D6F7279A8
:102030003A2000436F6D70696C65643A204F637499
:1020400020323420323031380A00207C204175742F
:10205000686F723A20286E6F6E652C206465666129
:10206000756C7420636F6E666967290A00323031BF
:10207000372D31322D32352031323A303000204C7C
:1020800061737420557064617465643A2000312E68
:10209000312E380A004D61726C696E0020536F66F4
:1020A00074776172652052657365740A0020576108
:1020B000746368646F672052657365740A00204218
:1020C000726F776E206F75742052657365740A00A5
:1020D0002045787465726E616C2052657365740A70
:1020E00000506F77657255700A0073746172740ADC
:1020F000005761726E696E673A20486F6D696E674E
:102100002042756D702044697669736F72203C209F
:10211000310A000202040000A0400000A0400000BC
:1021200000400040344300006943000048434163DD
:10213000746976652045787472756465723A20001A
:1021400048617264636F6465642044656661756CA0
:10215000742053657474696E6773204C6F61646595
:10216000640A00E8030000E80300006400000010B7
:102170002700001027000000007A4400007A440085
:1021800000404000008C4200008C420000204300D0
:102190000020430000FA459A39D8448F2250444821
:1021A0006F6D6520257325732573206669727374BE
:1021B000002066697273740A005A0059005800487A
:1021C0006F6D6520006563686F3A0000004842004B
:1021D00000484200008040000000004572726F72AB
:1021E0003A005320556E5265742056005320556EA8
:1021F0005265742056005320556E52657420560067
:10220000556E526574205600556E52657420560006
:10221000556E5265742056005320556E52657420D9
:102220006D6D005320556E526574206D6D00556EB6
:10223000526574206D6D00556E526574206D6D0091
:10224000486F70206D6D00486F70206D6D00526595
:1022500074726163742020560052657472616374F5
:10226000202056005265747261637420205600531A
:102270007761702052652E6D6D005377617020522A
:10228000652E6D6D0052657472616374206D6D0012
:1022900052657472616374206D6D004F6666004F05
:1022A0006E20004175746F526574722E00436F6E1C
:1022B00074726F6C0020746F6F206C6F6E67206596
:1022C0007874727573696F6E2070726576656E745E
:1022D00065640A0020636F6C64206578747275739E
:1022E000696F6E2070726576656E7465640A0010A1
:1022F00000C90210012C014001220170011801B037
:10230000010E01F00104015002FA00B002F00030A9
:1023100003E600D003DC009004D2007005C800A0E2
:1023200006BE000008B400B009AA00D00BA00060EF
:102330000E960060118C000015820020197800C0F4
:102340001D6E00A0226400B0275A00902C5000009F
:10235000314600E0343C0010383200903A280060EA
:102360003C1E00A03D1400803E0A00203F0000708B
:10237000012C0190012701B0012201C0011D01F0D3
:102380000118011002130130020E016002090190D0
:10239000020401C002FF000003FA004003F50080C0
:1023A00003F000D003EB002004E6007004E100E03D
:1023B00004DC004005D700C005D2004006CD00D0A7
:1023C00006C8008007C3003008BE00F008B900C08E
:1023D00009B400B00AAF00B00BAA00D00CA50000F1
:1023E0000EA000500F9B00C01096005012910000EC
:1023F000148C00C0158700B0178200B0197D00D082
:102400001B7800001E730040206E0090226900F0CF
:1024100024640040275F0090295A00E02B550010EB
:102420002E500020304B0010324600E03341009027
:10243000353C001037370070383200A0392D00B01D
:102440003A2800A03B2300603C1E00103D1900907C
:102450003D1400103E0F00703E0A00C03E05000013
:102460003F0000403FFBFF803FF6FFC03FF1FF54BD
:102470004845524D414C2052554E41574159005408
:102480006865726D616C2052756E61776179004587
:1024900072723A204D494E54454D502042454400F9
:1024A0004572723A204D494E54454D50004D494EAB
:1024B00054454D50207472696767657265640045C4
:1024C00072723A204D415854454D502042454400C7
:1024D0004572723A204D415854454D50004D415877
:1024E00054454D50207472696767657265640020B9
:1024F0002F002040002042403A0020403A000006D1
:102500000900FE000000000001090008FE000005AF
:10251000080806000040F0C8888898781005080868
:10252000060000C0F88888888888F8050505060038
:10253000012030F830200508080600002070F8203F
:10254000202020E00509090600FF2070A8A8B8880F
:102550008870200509090600FFE080C0B0A8283077
:1025600028280509090600FFF8A88888888888A80F
:10257000F8050A0A0600FE205050505088A8A88886
:102580007003030306000340A0405A00590058009E
:102590000920000000000000000000000000007F93
:1025A000FFE00000000000000000000000007000DC
:1025B000E000000000000000000000000061F86082
:1025C00000000000000000000000000041F82000B2
:1025D000000000000000000000000040F0200000AB
:1025E000000000000000000000004060200000002B
:1025F0000000000000000000005801A07F80003FA4
:10260000C0000000004104005C63A0FBC00079E052
:10261000000000002082005EF7A0F3C00076E0001A
:102620000000002082005EF7A0EBC0007EE000000A
:1026300000004104005C63A07B80003DC0000000FE
:10264000008208005801A07B80003BC00000000110
:10265000041000406020FBC00077E000000001048F
:10266000100040F020FBC00070E000000000820875
:102670000041F820FFC0007FE0000000004104009E
:1026800061F8603F00001F80000000000000007043
:1026900000E01E00000F0000000001FFFF807FFF30
:1026A000E00C0000060000000001FFFF80000000B9
:1026B0000000000000000000000000007FFFE000BC
:1026C00000000000000000000000007000E00000BA
:1026D00000000000000000000000630C600000002B
:1026E000000000000000000000470E200000000075
:1026F00000000000000000004F0F2000000000005C
:10270000000000000000005F0FA0000000000000BB
:102710000000000000005E07A07F80003FC00000B6
:102720000000410400406020FBC00079E000000090
:102730000020820040F020F3C00076E0000000009E
:1027400020820040F020EBC0007EE000000000414D
:1027500004004060207B80003DC000000000820833
:10276000005E07A07B80003BC00000000104100059
:102770005F0FA0FBC00077E0000000010410004FD5
:102780000F20FBC00070E000000000820800470E30
:1027900020FFC0007FE000000000410400630C60E7
:1027A0003F00001F80000000000000007000E01EDD
:1027B00000000F0000000001FFFF807FFFE00C0021
:1027C00000060000000001FFFF8000000000002163
:1027D00000240027002A002D0030003300010100F2
:1027E00000040107010A0100002200250028002B37
:1027F000002E003100340002010000050108010B29
:1028000001000020002300260029002C002F0032A8
:102810000000010000030106010901050505050787
:102820000508080808020202020A0A08080404044B
:102830000401010101010101010303030303030377
:1028400003040707070C0C0C0C0C0C0C0C02020206
:102850000206060606060606060B0B0B0B0B0B0BF9
:102860000B01021020200808102040102040800298
:1028700001020108040201010204081020408080C6
:10288000402010080402018004020180402010084A
:102890000402010804020101020408102040800122
:1028A0000204081020408000000A0B02090C0D0EE3
:1028B0000807030401000000000000000000000001
:1028C0000000000000000000000000000000000008
:1028D00000000012111000000000000000000000C5
:1028E00000000000000000000000000000436F6EC8
:1028F00074726F6C00507265706172650054756E11
:102900006500496E666F2073637265656E00466C84
:102910006F77203200466C6F77203200466C6F77FD
:10292000203200466C6F77203100466C6F77203183
:1029300000466C6F77203100466C6F7700466C6FF5
:102940007700466C6F770046616E20737065656432
:102950000046616E2073706565640046616E207389
:1029600070656564004265640042656400426564A8
:10297000004E6F7A7A6C652032004E6F7A7A6C6501
:102980002032004E6F7A7A6C652032004E6F7A7A70
:102990006C652031004E6F7A7A6C652031004E6F85
:1029A0007A7A6C65203100537065656400537065F8
:1029B0006564005370656564004D61696E00507216
:1029C000656865617420504C4120416C6C00507208
:1029D000656865617420504C4120456E6420453225
:1029E000005072656865617420504C41203200507F
:1029F00072656865617420504C4120456E642045C5
:102A000031005072656865617420504C4120426508
:102A100064005072656865617420504C412031003B
:102A200050726570617265004B64200023646566B6
:102A3000696E65202044454641554C545F004B6902
:102A4000200023646566696E652020444546415533
:102A50004C545F004B70200023646566696E6520EE
:102A60002044454641554C545F005049442041752F
:102A7000746F74756E652066696E6973686564212C
:102A80002050757420746865206C617374204B70DD
:102A90002C204B6920616E64204B6420636F6E7341
:102AA00074616E74732066726F6D2062656C6F77EF
:102AB00020696E746F20436F6E666967757261740A
:102AC000696F6E2E680A00504944204175746F7416
:102AD000756E65206661696C6564212074696D6539
:102AE0006F75740A00544845524D414C2052554E62
:102AF0004157415900546865726D616C2052756E82
:102B0000617761790048656174696E672066616903
:102B10006C65640048656174696E67206661696C04
:102B2000656400504944204175746F74756E65206A
:102B30006661696C6564212054656D7065726174AD
:102B400075726520746F6F20686967680A00204B92
:102B5000643A2000204B693A2000204B703A200054
:102B60000A20436C617373696320504944200A0052
:102B70002054753A2000204B753A2000206D617872
:102B80003A2000206D696E3A200020643A2000202F
:102B9000626961733A20006265640A002C207379CF
:102BA0007374656D2073746F70706564212048655F
:102BB000617465725F49443A200048656174696ECA
:102BC00067206661696C65640048656174696E6759
:102BD000206661696C65640048656174696E672090
:102BE0006661696C65640048656174696E6720663A
:102BF00061696C6564007A5F6D696E3A2000795F87
:102C00006D696E3A2000785F6D696E3A20005265FA
:102C1000706F7274696E6720656E6473746F702074
:102C20007374617475730A007FBC11241FBECFEFEB
:102C3000D1E2DEBFCDBF00E00CBF13E0A0E0B2E008
:102C4000E4EEF8E901E00BBF02C007900D92A43852
:102C5000B107D9F72FE0A4E8B3E001C01D92A63A6E
:102C6000B207E1F716E1C5E1D6E100E006C0219721
:102C70000109802FFE010E9415CCC431D10780E0EC
:102C80000807A9F70E94C1A60C9470CC0C94000010
:102C90008FB7F89490918E0C20918D0C921759F06B
:102CA000E92FF0E0E35FF34F208130E09F5F9F77F3
:102CB00090938E0C02C02FEF3FEF8FBFC901089594
:102CC0000F931F93CF93DF93EC010E946BA60E81AD
:102CD0001F8128853985011511052105310559F513
:102CE0002C852223A9F13A8521502C8721E0230F3E
:102CF0002A874D85241301C01A86FE0124E0329FE5
:102D0000E00DF11D112406851785208931890A837C
:102D10001B832C833D83DC01CB01800F911FA11D00
:102D2000B11D8E839F83A887B9878C819D81892B54
:102D300079F0409A0DC0DC01CB01801B910BA20BF6
:102D4000B30BB7FD05C040981E821F8218861986F6
:102D5000DF91CF911F910F910895FF920F931F93D1
:102D6000CF93DF93FC0120812B3319F1D091890699
:102D7000D430F8F4F62EBC01C09197060C2F10E069
:102D8000F0E6CF9FC001112489519B4F0E944FCC88
:102D9000F801EB52F34FF082CF5FC43018F4C093C8
:102DA000970602C010929706DF5FD093890681E0F4
:102DB00001C080E0DF91CF911F910F91FF900895A6
:102DC000EF920F931F93E090D90C07E312E029EFE5
:102DD0003CE045EF5CE061EF7CE08DEE9CE00E9422
:102DE000CD7F1F910F91EF9008950F931F93CF9375
:102DF000DF93EC01CC0FDD1FCC0FDD1F8E010158DE
:102E00001B4FFE01EF52FB4FDE01AE55BC4F2D9123
:102E10003D914D915C9160817181828193810E948D
:102E20000EC9F8016083718382839383FE01E65F9C
:102E3000F74F85919591A591B491FE01E557FB4F10
:102E400080839183A283B383FE01EA5EF74F85916D
:102E50009591A591B491CB5FDD4F88839983AA8327
:102E6000BB83DF91CF911F910F910895CF92DF9295
:102E7000EF92FF92E091D90CE0930807C090F90C13
:102E8000D090FA0CE090FB0CF090FC0CED5F84E02D
:102E9000E89FF0011124ED51FC4F208131814281E6
:102EA0005381C701B6010E945FC50E943FCB60936A
:102EB000640D7093650D8093660D9093670DC70147
:102EC000B6010E9452CA2FB7F8946093540F7093C2
:102ED000550F8093560F9093570F2FBF1092540D9C
:102EE0001092550D1092560D1092570DFF90EF90C5
:102EF000DF90CF90089529EF3CE045EF5CE061EF73
:102F00007CE08DEE9CE00C9455324F925F926F9274
:102F10007F928F929F92BF92CF92DF92EF92FF9219
:102F20000F931F93CF93DF9300D01F92CDB7DEB7DF
:102F30002A013B01B22EF32E6C01CC0CDD1CCC0C13
:102F4000DD1CC6018351934F4C01FC01108211829C
:102F500012821382D0DFF401408251826282738236
:102F6000E090D90C20E030E0A901B8018B2D9F2D15
:102F70000E94FAC481110AC0F601E553FE4D859105
:102F80009591A591B4918C01BA2EFB2EC801AB2D61
:102F9000BF2D89839A83AB83BC838E010F5F1F4F44
:102FA00029EF3CE045EF5CE061EF7CE08DEE9CE0DA
:102FB0000E94CD7F0E946DA3109287060F900F9004
:102FC0000F900F90DF91CF911F910F91FF90EF9095
:102FD000DF90CF90BF909F908F907F906F905F9089
:102FE0004F9008958091950690919606009731F044
:102FF0004AE050E060E070E00C9441C360E070E0B3
:10300000CB0108958091950690919606009731F036
:103010004AE050E060E070E00C9416C260E070E0BE
:10302000CB010895EFDF97FD0AC0ECDF6F3F71051C
:103030008105910509F02CF4E5DF862F089580E0E5
:1030400008958FEF08958091950690919606892BAB
:1030500031F0E8DF91E0811103C090E001C091E020
:10306000892F08950F931F93CF9380919506909188
:1030700096060097F1F0FC018F01C1912C2F2F7D56
:1030800089F0C53411F0C536B9F7F801108260E057
:1030900070E00E94C3C0F801C083562F472F382F1D
:1030A000292F0BC060E070E0CF911F910F910C941D
:1030B000C3C050E040E030E020E0652F742F832F44
:1030C000922FCF911F910F91089581548A3150F51D
:1030D000482F50E0FA0193E0F595E7959A95E1F7CE
:1030E000E256FC4F208130E0877002C0359527956D
:1030F0008A95E2F7822F817020FF15C0FA01EC5704
:10310000FC4F9081992339F02091DD043091DE0449
:10311000290F311D02C020E030E030939606209345
:103120009506089580E00895D0DF882341F081E07E
:103130002091950630919606232B09F480E008959E
:103140004F925F926F927F929F92AF92BF92CF9277
:10315000DF92EF92FF920F931F93CF93DF938DE94E
:10316000A82E82E0B82E0DED1CE0CDEEDCE09FE74E
:10317000C92E94E0D92E2FEDE22E24E0F22E912CD0
:10318000F50181915F01A1DF882361F16BDF9B0174
:10319000AC01F7018081811104C08091E304882390
:1031A00029F0688179818A819B8103C060E070E0A9
:1031B000CB010E940EC9F3E09F1659F0F601208161
:1031C0003181428153812B013C01C301B2010E9434
:1031D0000DC9462F572FBC01F801408351836283EC
:1031E000738309C088819981AA81BB81F80180839A
:1031F0009183A283B38393940C5F1F4F2496F4E0D2
:10320000CF0ED11C2FEFE21AF20A84E09812B8CF49
:1032100086E48ADF8823B9F025DF20E030E0A901C9
:103220000E9434CB18167CF41DDF20E030E040E72C
:1032300052E40E94EAC96093370270933802809387
:10324000390290933A02DF91CF911F910F91FF9035
:10325000EF90DF90CF90BF90AF909F907F906F9056
:103260005F904F9008952091680D9091690D81E0D5
:10327000291301C080E0089580E1EDEEFCE0ADEDA2
:10328000BCE001900D928A95E1F708954F925F920C
:103290006F927F928F929F92AF92BF92CF92DF9266
:1032A000EF92FF92CF93DF9300D000D0CDB7DEB77F
:1032B0008D836E838091D90C90E0FC01E458FB4F24
:1032C00020813D81231709F493C1662339F0FC0165
:1032D000EF5FF84F2081321709F48AC1AD81A11147
:1032E00005C0FC01EF5FF84FB081BE8380906004A1
:1032F00090906104A0906204B090630480913702C2
:1033000090913802A0913902B0913A0289839A8350
:10331000AB83BC83B1DF0E946DA3E091D90C94E034
:10332000E99FF0011124EF5EFD4F20813181428140
:10333000538160E070E080E89FE30E94EAC96B017E
:103340007C01AD81AA2309F497C080916404909117
:103350006504A0916604B09167048093370290934E
:103360003802A0933902B0933A024090F90C509081
:10337000FA0C6090FB0C7090FC0CBE81BB2349F0F2
:1033800060915C0470915D0480915E0490915F0493
:1033900008C0609168047091690480916A049091FA
:1033A0006B04A70196010E945FC5A30192010E94D0
:1033B0000EC96093F90C7093FA0C8093FB0C9093F8
:1033C000FC0C54DD0E942E402AE037ED43E25CE322
:1033D000C501B4010E9434CB18160CF0EEC08090E9
:1033E000FD069090FE06A090FF06B090000720E03A
:1033F00030E0A901C501B4010E94FAC48111DDC009
:10340000C0906004D0906104E0906204F090630486
:10341000A7019601C501B4010E940EC96093FD0683
:103420007093FE068093FF06909300078091280416
:1034300090912904A0912A04B0912B048093370223
:1034400090933802A0933902B0933A02A7019601F3
:103450006091F50C7091F60C8091F70C9091F80C3E
:103460000E940DC96093F50C7093F60C8093F70CD5
:103470009093F80C40DD9FC020E030E0A9016091FE
:10348000FD067091FE068091FF06909100070E9454
:10349000FAC48823A9F1209160043091610440911D
:1034A0006204509163046091F50C7091F60C809168
:1034B000F70C9091F80C0E940EC96093F50C709374
:1034C000F60C8093F70C9093F80C15DD809128048E
:1034D00090912904A0912A04B0912B048093370283
:1034E00090933802A0933902B0933A020E942E4082
:1034F0001092FD061092FE061092FF061092000731
:103500002E81222349F08091700490917104A09142
:103510007204B091730408C0809174049091750492
:10352000A0917604B091770480933702909338028B
:10353000A0933902B0933A023E81332389F020915F
:103540006C0430916D0440916E0450916F04609151
:103550005C0470915D0480915E0490915F0410C0E2
:10356000209178043091790440917A0450917B0441
:10357000609168047091690480916A0490916B0471
:103580000E940EC9A70196010E945FC59B01AC0174
:103590006091F90C7091FA0C8091FB0C9091FC0CED
:1035A0000E940DC96093F90C7093FA0C8093FB0C88
:1035B0009093FC0C5BDC0E942E4089819A81AB8148
:1035C000BC818093370290933802A0933902B09364
:1035D0003A028091D90C90E0FC01E458FB4FAD8198
:1035E000A083BE81BB2321F0FC01EF5FF84FA083D5
:1035F00026960FB6F894DEBF0FBECDBFDF91CF91F8
:10360000FF90EF90DF90CF90BF90AF909F908F9002
:103610007F906F905F904F90089580E1EDEDFCE01A
:10362000ADEEBCE001900D928A95E1F708950E94FD
:103630006BA66093AE037093AF038093B003909337
:10364000B10308959091C00095FFFCCF8093C60010
:103650000895CF92DF92EF92FF920F931F93CF9333
:10366000DF9380918906843008F01EC111DBAC0124
:1036700097FD1AC1982F2091FD0C3091FE0C8A30D5
:1036800019F09D3009F0DFC01092FC0621153105BC
:1036900041F3F901E456F94F10821092FE0C10929A
:1036A000FD0CCCE9D6E0FE018191803211F4EF01EE
:1036B000FACF8E3409F07EC0209709F47BC062EF08
:1036C00077E0CE010E947AC48C01892B41F06EE430
:1036D00070E0CE0104960E943BCC009709F4CE0125
:1036E0004AE050E060E070E001960E9416C26093EC
:1036F00098067093990680939A0690939B06C090C3
:10370000FF0CD090000DE090010DF090020D2FEF16
:10371000C21AD20AE20AF20A6C157D058E059F05CF
:1037200029F0012B19F48FEB97E02AC06AE270E0D0
:10373000CE010E9465CC9C01009701F1982F9C1B43
:1037400010E0992339F09150FE01E90FF11D8081BD
:103750001827F7CF4AE050E060E070E0C901019619
:103760000E9416C2012F10E020E030E060177107C0
:103770008207930779F080EA97E002C086E797E036
:10378000DF91CF911F910F91FF90EF90DF90CF903D
:103790000C9484648091980690919906A0919A0661
:1037A000B0919B068093FF0C9093000DA093010DA8
:1037B000B093020D80911F02811121C067E470E077
:1037C000CE010E943BCC0097D1F04AE050E060E08F
:1037D00070E001960E9416C26430710580F4EFEF2C
:1037E000F6E084918F010F5F1F4F882319F02ADFC5
:1037F000F801F7CF60E085EF96E00E94C04A61EFE4
:1038000072E0CE010E9446CC892B21F41092200256
:103810001092B20366EF72E0CE010E9446CC892B73
:1038200021F48CEE96E00E94A5626BEF72E0CE016F
:103830000E9446CC892B11F40E949A4161E08CE9E8
:1038400096E08BDA0ECF2F3531050CF00ACF9C3580
:10385000B9F41EDA97FD05CF2091FC06211101CFA6
:103860002091FD0C3091FE0CA9014F5F5F4F5093EA
:10387000FE0C4093FD0CF901E456F94F8083F1CE24
:103880009B3319F481E08093FC068091FC06811142
:10389000E8CEC90101969093FE0C8093FD0CF901CE
:1038A000E456F94F4083DDCEDF91CF911F910F9108
:1038B000FF90EF90DF90CF900895BF92CF92DF926C
:1038C000EF92FF920F931F93CF93DF93CDB7DEB7A5
:1038D0006E970FB6F894DEBF0FBECDBF6091C90CD6
:1038E0007091CA0C6115710551F14DE150E0CE01A6
:1038F00001967C010E946BC41E8EF7018F010E1988
:103900001F09B190BB2021F19AE0B912F7CF20C076
:10391000B7018FED96E00E94263182E293DE8AE0C5
:1039200091DEBB2051F10F5F1F4F8091C90C909128
:10393000CA0C080F191F1093CA0C0093C90C81E020
:103940002091C90C3091CA0C232BD1F480E018C00F
:10395000F701E00FF11F108260E0C701FED9882354
:1039600071F3E5ECF1E284916F019FEFC91AD90A76
:10397000882371F267DEF601F6CF00E010E0DBCFBE
:103980006E960FB6F894DEBF0FBECDBFDF91CF911C
:103990001F910F91FF90EF90DF90CF90BF9008950F
:1039A0008F929F92AF92BF92EF92FF920F931F93CD
:1039B000CF93DF93CDB7DEB7A0970FB6F894DEBFF5
:1039C0000FBECDBF611571058105910589F100E03C
:1039D000842E912CA12CB12C102FEE24E394F12CE9
:1039E000EC0EFD1EE00EF11C07FDFA94A5019401FA
:1039F0000E94D2C8F7016083B901CA010F5F611547
:103A000071058105910541F71F3F21F1E1E0F0E0EB
:103A1000EC0FFD1FE10FF11D17FDFA9580818A3033
:103A200010F097E301C090E3890F0CDE1150ECCF4A
:103A300080E3A0960FB6F894DEBF0FBECDBFDF9136
:103A4000CF911F910F91FF90EF90BF90AF909F90FB
:103A50008F90F8CDA0960FB6F894DEBF0FBECDBF05
:103A6000DF91CF911F910F91FF90EF90BF90AF909A
:103A70009F908F900895EF92FF920F931F93CF9393
:103A8000DF937C0184E550DBD82F882321F1CADA4B
:103A9000C82F8230E4F0E5ECF1E284918F010F5FF2
:103AA0001F4F882319F0CEDDF801F7CF8DE4CADD72
:103AB000B70180E090E04AE073DF6C2FCC0F770B0A
:103AC00087EF97E00E940D318AE0BCDD08C080934B
:103AD000D004D0E004C08091D90C8093D0048D2F05
:103AE000DF91CF911F910F91FF90EF900895CF92AA
:103AF000DF92EF92FF926B017C0197FF0AC08DE28B
:103B0000A1DDF094E094D094C094C11CD11CE11CC0
:103B1000F11C4AE0C701B601FF90EF90DF90CF9013
:103B20003FCF2F923F924F925F926F927F928F92F0
:103B30009F92AF92BF92CF92DF92EF92FF920F933C
:103B40001F93CF93DF93CDB7DEB72F970FB6F894BF
:103B5000DEBF0FBECDBF8DE690E08DDF8111BBC112
:103B60008091E60483FDB7C183E5DEDA382E81114A
:103B700005C082E5D9DA882309F4ADC173DA109162
:103B8000D004E12FF0E0EE0FFF1FE554FC4FFA8365
:103B9000E9830E9452CAA981BA816D937C93812FD7
:103BA0000E945D875FDA20E030E04AEA52E40E943A
:103BB000FAC4181644F00E94176360E08BE398E0A3
:103BC0000E94C04A02C00E944F662091D004422F3A
:103BD00050E05A834983FA01EE0FFF1FE554FC4F72
:103BE00060817181072E000C880B990B0E9400C523
:103BF000E981FA81EE0FFF1FEE0FFF1FED54FC4F1E
:103C000020813181428153810E9434CB1816ACF45B
:103C100085ED92E09F938F9389819A8101969F937E
:103C20008F9384E398E09F938F931F920E94306359
:103C30000FB6F894DEBF0FBECDBF0E94B13181E058
:103C40008093200219821A821B821C821D821E828E
:103C50001F821886512C1986BCE3BA87ECE1EB87EA
:103C6000F6E4FC8710E000E050E8752E6FEB662E5E
:103C7000812C912C5401E090D004F12CF701EE0F2F
:103C8000FF1FE554FC4F60817181072E000C880BEB
:103C9000990B0E9400C56B018F879D879B01AC012A
:103CA000612F702F872D962D0E94FAC4882309F466
:103CB00046C0F701EE0FFF1FEE0FFF1FED54FC4F44
:103CC0002081318142815381B6018F859D853110DC
:103CD0000BC00E94FAC4582E551C5524551C1C2D8F
:103CE0000D2D7F846D842BC00E94FAC487FF22C0F3
:103CF00080912002882309F4EEC060E082E298E01F
:103D00002F960FB6F894DEBF0FBECDBFDF91CF91D7
:103D10001F910F91FF90EF90DF90CF90BF90AF90E9
:103D20009F908F907F906F905F904F903F902F90DB
:103D30000C94C04A1C2D0D2D7F846D84512C0E9443
:103D40006BA66B017C01DC01CB012D813E814F8193
:103D50005885821B930BA40BB50BB7FD38C0D70158
:103D6000C60188519C4FAF4FBF4F8D839E83AF8359
:103D7000B8870E943E83E0E3F8E08491DF0111966A
:103D8000BE87AD87882321F05DDCED85FE85F5CF0C
:103D900081149104A104B104B1F0D501C401805F84
:103DA000984DAF4FBF4FBC01CD016C197D098E09F5
:103DB0009F0928EE33E040E050E00E94D2C8CA01DB
:103DC000B90195DE02C08FE33DDC8AE03BDC0E9456
:103DD0007C3D2DDCE091D004B4E0EB9FF001112498
:103DE000ED54FC4F408021812F8732813D87238015
:103DF000242D3F854D85522D612F702F872D962DB7
:103E00000E940DC99F7781149104A104B10449F463
:103E100020E030E040E85FE30E94FAC487FF0BC077
:103E200008C020E030E040E450E40E9434CB181693
:103E300014F4460157015520B1F189819A81AB8173
:103E4000BC81892B8A2B8B2B61F0D701C60129817C
:103E50003A814B815C81821B930BA40BB50BB7FDA0
:103E600022C0242D3F854D85522D69857A858B850D
:103E70009C850E940DC920E030E040EC5FE30E9489
:103E8000FAC487FD35CFD701C601805A9541AF4F9F
:103E9000BF4F89839A83AB83BC8349869F859A876A
:103EA000AD85AB872C8680912002882309F420CF32
:103EB00081149104A104B10409F4DDCEB0E1CB1A60
:103EC000B7E2DB0AE108F108C818D908EA08FB08DC
:103ED000F7FE0ECFD0CE2F960FB6F894DEBF0FBEF2
:103EE000CDBFDF91CF911F910F91FF90EF90DF90A9
:103EF000CF90BF90AF909F908F907F906F905F908A
:103F00004F903F902F9008958F929F92AF92BF92C3
:103F1000CF92DF92EF92FF92CF936B017C01B42E90
:103F200020E030E0A9010E94FAC487FF06C08DE2BC
:103F300089DBF7FAF094F7F8F094C0E060E070E005
:103F400080E09FE3CB1541F02DEC3CEC4CEC5DE3C5
:103F50000E945FC5CF5FF6CF9B01AC01C701B601E0
:103F60000E940EC96B017C010E9457CA4B015C0183
:103F70004AE016DDCC2379F1C501B4010E94FEC4EC
:103F80009B01AC01C701B6010E940DC96B017C0108
:103F90008EE258DB20E030E040E251E4C701B60198
:103FA0000E945FC54B015C010E9452CA6B01770FF2
:103FB000EE08FF08C701B6019ADDC701B6010E94ED
:103FC00000C59B01AC01C501B4010E940DC96B0184
:103FD0007C01C150F9F6CF91FF90EF90DF90CF9028
:103FE000BF90AF909F908F9008951F920F920FB641
:103FF0000F9211240BB60F922F938F939F93EF93F1
:10400000FF93E0918D0C81E08E0F8F779091C60029
:1040100020918E0C821731F0F0E0E35FF34F908334
:1040200080938D0CFF91EF919F918F912F910F9025
:104030000BBE0F900FBE0F901F901895EF92FF923E
:104040000F931F93CF93DF931092B30C80912A0E9E
:1040500090912B0EA0912C0EB0912D0E8130904896
:10406000A105B10540F010922A0E10922B0E10926D
:104070002C0E10922D0EC0912A0E80910707181653
:10408000DCF4282F082E000C330B215031094C2F63
:104090000C2E000C550B4217530774F0CFEFC80FCE
:1040A0008C2F90E0A0E0B0E080932A0E90932B0E2E
:1040B000A0932C0EB0932D0E1092990D8091980D17
:1040C000C81714F4C093980D8091980D082E000C19
:1040D000990B04962C2F0C2E000C330B8217930790
:1040E00024F48CEF8C0F8093980D1091980DD0E0F4
:1040F00083E0E82EFF24F39411111DC08091B50CCC
:10410000811106C080913B02882309F442C009C096
:10411000C111F8CF0E9408898091990D882391F3ED
:10412000E6C081E0C11180E024E04DE65AE06D2F49
:104130000E94004A2EC0113061F58091B50C8111AA
:1041400005C080913B02811111C023C0C130C9F765
:1041500080910B048C2780930B04E0923B020E9419
:1041600043738091990D882361F3C1C080910B0442
:10417000811103C02CE53AE002C020E63AE081E07C
:10418000C13009F080E001E044E65AE06D2F0E9462
:104190008DBD80910B04882309F49EC01230D1F5A7
:1041A0008091B50C811106C080913B02882309F4EF
:1041B0009CC01DC0C230C1F7F092B30C1092AF0C7E
:1041C0001092B00C1092B10C1092B20C6091D90CFC
:1041D00084E0689FB00111246D5F7B4F82E59AE017
:1041E0000E9467BF8091990D8823F1F280C0809171
:1041F000D90C24E0829FC00111248D5F9B4F0E9447
:104200001B8F9C0181E0C23009F080E000E048E4AF
:104210005AE02FC0133089F58091B50C811106C08A
:1042200080913B02882309F460C017C0C330C1F7F6
:10423000F092B30C1092AF0C1092B00C1092B10C23
:104240001092B20C63E074E08CE39AE00E9467BFC6
:104250008091990D882321F34AC083E094E00E9465
:104260001B8F9C0181E0C33009F080E000E040E357
:104270005AE06D2F0E948DBD38C01430B1F5809189
:10428000B50C811105C080913B02882371F117C0E4
:10429000C430C9F7F092B30C1092AF0C1092B00C6E
:1042A0001092B10C1092B20C67E074E084E29AE0D4
:1042B0000E9467BF8091990D882329F318C087E079
:1042C00094E00E941B8F9C0181E0C43009F080E0E3
:1042D00000E048E15AE0CDCF82E0DF5F1F5FD530DC
:1042E00009F00ACF8093070702C085E0F6CFDF917F
:1042F000CF911F910F91FF90EF9008951F93CF934F
:10430000DF931092B30C80912A0E90912B0EA09106
:104310002C0EB0912D0E81309048A105B10540F0D2
:1043200010922A0E10922B0E10922C0E10922D0E1F
:10433000C0912A0E809106071816DCF4282F082E4B
:10434000000C330B215031094C2F0C2E000C550B57
:104350004217530774F0CFEFC80F8C2F90E0A0E006
:10436000B0E080932A0E90932B0EA0932C0EB09366
:104370002D0E1092990D8091980DC81714F4C093CA
:10438000980D8091980D082E000C990B04962C2FF7
:104390000C2E000C330B8217930724F48CEF8C0F38
:1043A0008093980D1091980DD0E011111AC0809152
:1043B000B50C811106C080913B02882309F462C0CC
:1043C00009C0C111F8CF0E9408898091990D8823F6
:1043D00091F389C081E0C11180E024E040E15AE01E
:1043E0004EC01130E9F48091B50C811106C0809166
:1043F0003B02882309F446C00BC0C130C1F785E7F2
:1044000093E30E94884D8091990D882381F36BC0BE
:1044100081E0C13009F080E023E047E05AE02FC09E
:104420001230E1F48091B50C811105C080913B02FE
:10443000882341F10BC0C230C9F787E792E20E949E
:10444000884D8091990D882389F34DC081E0C23059
:1044500009F080E023E04AEF59E011C0133029F55C
:104460008091B50C811116C080913B02882351F0D8
:1044700081E0C33009F080E023E045EF59E06D2F83
:104480000E94004ADF5F1F5FD53009F08ECFD093C6
:10449000060729C0C33041F789EB97E20E94884D97
:1044A0008091990D882301F31EC0143059F7809133
:1044B000B50C811105C080913B02882319F30BC014
:1044C000C430C9F785E695E20E94884D8091990D28
:1044D000882389F308C081E0C43009F080E023E03C
:1044E0004CEE59E0CCCFDF91CF911F9108952F92E0
:1044F0004F926F927F928F929F92AF92BF92CF9284
:10450000DF92EF92FF920F931F93CF93DF9310925E
:10451000B30C80912A0E90912B0EA0912C0EB0918D
:104520002D0E81309048A105B10540F010922A0E61
:1045300010922B0E10922C0E10922D0EC0912A0E5E
:10454000809103071816DCF4282F082E000C330B7B
:10455000215031094C2F0C2E000C550B42175307DC
:1045600074F0CFEFC80F8C2F90E0A0E0B0E0809304
:104570002A0E90932B0EA0932C0EB0932D0E10921A
:10458000990D8091980DC81714F4C093980D8091DF
:10459000980D082E000C990B04962C2F0C2E000C55
:1045A000330B8217930724F48CEF8C0F8093980DB4
:1045B000D091980D412C2224239482E9682E88E022
:1045C000782E97EAE92E98E0F92E2EEAC22E28E0FE
:1045D000D22E3CEBA32E38E0B32E43EC842E48E0E1
:1045E000942ED1111DC08091B50C811106C080910F
:1045F0003B02882309F48DC009C0C111F8CF0E9485
:1046000008898091990D882391F34EC281E0C111F0
:1046100080E024E043E059E0642D0E94004A79C024
:10462000D13041F58091B50C811106C080913B02DB
:10463000882309F46EC011C0C130C1F720E030E01A
:1046400040E251E46CE374E08DEF98E00E94BEBF5D
:104650008091990D882351F327C28CE394E00E9446
:10466000B8479C0181E0C13009F080E000E047EFED
:1046700058E040C0D23041F58091B50C811106C0A0
:1046800080913B02882309F444C011C0C230C1F7B5
:1046900020E030E048EC52E464E374E08DEE98E012
:1046A0000E94BEBF8091990D882351F3FDC184E320
:1046B00094E00E94B8479C0181E0C23009F080E09C
:1046C00000E043EE58E016C0D330C1F48091B50C41
:1046D000811128C080913B028823D9F088E394E0BF
:1046E0000E94B8479C0181E0C33009F080E000E0FF
:1046F00041ED58E0642D0E948DBD0BC0D43009F00F
:104700005BC08091B50C81111EC080913B0281116C
:104710002DC04394DF5F95E0491263CF8AE0809318
:104720000307C2C1C330B1F620E030E048EC52E4E8
:1047300068E374E08AED98E00E94BEBF8091990D15
:10474000882341F2B1C1C43001F703E916E324E63E
:1047500030E040E050E06CE074E08AEC98E00E94C9
:1047600091BE8091990D882381F29EC183E996E3E1
:104770009F938F931F922F9282E88F9388EB8F9352
:104780001F9284E68F938CE094E09F938F93BF9267
:10479000AF929F928F924F9281E0C43009F080E0F7
:1047A0008F930E94FDBD8DB79EB740960FB6F894CB
:1047B0009EBF0FBE8DBFADCFD53009F043C08091F5
:1047C000B50C811106C080913B02882309F4A1CF6A
:1047D00013C0C530C1F703E916E324E630E040E03A
:1047E00050E060E174E085EB98E00E9491BE80911A
:1047F000990D882341F358C183E996E39F938F93E2
:104800001F922F9282E88F9388EB8F931F9284E6FA
:104810008F9380E194E09F938F93FF92EF92DF92CA
:10482000CF924F9281E0C53009F080E08F930E94D3
:10483000FDBD8DB79EB740960FB6F8949EBF0FBED4
:104840008DBF67CFD63009F045C08091B50C81117E
:1048500006C080913B02882309F45BCF13C0C630A9
:10486000C1F703E916E32AE030E040E050E064E1FC
:1048700074E080EA98E00E9491BE8091990D8823AF
:1048800041F312C183E996E39F938F931F922F9276
:1048900082E88F9388EB8F931F928AE08F9384E155
:1048A00094E09F938F937F926F9289E998E09F9312
:1048B0008F934F9281E0C63009F080E08F930E9481
:1048C000FDBD8DB79EB740960FB6F8949EBF0FBE44
:1048D0008DBF1FCFD73009F053C08091B50C811127
:1048E00006C080913B02882309F413CF19C0C7305A
:1048F000C1F76091D90C94E0699FB0011124685E02
:104900007B4F03E916E324E630E040E050E08BE81B
:1049100098E00E9491BE8091990D882311F3C4C044
:1049200083E996E39F938F931F922F9282E88F9350
:1049300088EB8F931F9284E68F938091D90C24E0AB
:10494000829FC0011124885E9B4F9F938F938DE7B8
:1049500098E09F938F9384E898E09F938F934F9272
:1049600081E0C73009F080E08F930E94FDBD8DB7D4
:104970009EB740960FB6F8949EBF0FBE8DBFC9CEAE
:10498000D83009F047C08091B50C811106C08091E4
:104990003B02882309F4BDCE13C0C830C1F70DE82F
:1049A00016E324E630E040E050E068E174E085E79B
:1049B00098E00E9491BE8091990D882341F374C0C4
:1049C0008DE896E39F938F931F922F9282E88F93A7
:1049D00088EB8F931F9284E68F9388E194E09F93F6
:1049E0008F9385E698E09F938F938DE698E09F9351
:1049F0008F934F9281E0C83009F080E08F930E943E
:104A0000FDBD8DB79EB740960FB6F8949EBF0FBE02
:104A10008DBF7FCED93009F07CCE8091B50C81114D
:104A200006C080913B02882309F473CE13C0C930BD
:104A3000C1F707E816E324E630E040E050E06CE11F
:104A400074E08DE598E00E9491BE8091990D8823D5
:104A500041F32AC087E896E39F938F931F922F928A
:104A600082E88F9388EB8F931F9284E68F938CE17B
:104A700094E09F938F938DE498E09F938F9385E5C7
:104A800098E09F938F934F9281E0C93009F080E0C6
:104A90008F930E94FDBD8DB79EB740960FB6F894D8
:104AA0009EBF0FBE8DBF35CEDF91CF911F910F916D
:104AB000FF90EF90DF90CF90BF90AF909F908F903E
:104AC0007F906F904F902F9008954F925F926F92CA
:104AD0007F928F929F92AF92BF92CF92DF92EF928E
:104AE000FF920F931F93CF93DF931092B30C80919B
:104AF0002A0E90912B0EA0912C0EB0912D0E81308C
:104B00009048A105B10540F010922A0E10922B0E8C
:104B100010922C0E10922D0EC0912A0E8091050736
:104B20001816DCF4282F082E000C330B2150310905
:104B30004C2F0C2E000C550B4217530774F0CFEF7F
:104B4000C80F8C2F90E0A0E0B0E080932A0E9093E5
:104B50002B0EA0932C0EB0932D0E1092990D8091D8
:104B6000980DC81714F4C093980D8091980D082ED5
:104B7000000C990B04962C2F0C2E000C330B821773
:104B8000930724F48CEF8C0F8093980D5090980D20
:104B9000D0E04424439465E4C62E6EE6D62E72E837
:104BA000872E76E3972EE4E86E2EE6E37E2EF6E877
:104BB000AF2EF6E3BF2E51101DC08091B50C8111B0
:104BC00006C080913B02882309F4B6C009C0C11118
:104BD000F8CF0E9408898091990D882391F3B8C17C
:104BE00081E0C11180E024E045EE59E06D2F0E9484
:104BF000004AA2C081E0581241C08091B50C8111D9
:104C000006C080913B02882309F496C02AC0C130B7
:104C1000C1F7C093B30C1092AF0C1092B00C10926D
:104C2000B10C1092B20CE12C1CE3F12E0CE116E455
:104C300020E030E040EA50E463EE73E08BED99E071
:104C40000E9407BCD0929202C0929102B0923C0E98
:104C5000A0923B0E10923A0E8091990D882389F212
:104C600077C183EE93E00E9482469C0181E0C130CF
:104C700009F080E000E041ED59E05BC022E0521213
:104C800041C08091B50C811106C080913B02882300
:104C900009F452C02AC0C230C1F74092B30C10923E
:104CA000AF0C1092B00C1092B10C1092B20CE12C1F
:104CB0001CE3F12E0CE116E420E030E040EA50E481
:104CC00067EE73E087EC99E00E9407BCD0929202F5
:104CD000C0929102B0923C0EA0923B0E10923A0EFE
:104CE0008091990D882389F233C187EE93E00E9469
:104CF00082469C0181E0C23009F080E000E04DEB8B
:104D000059E017C083E058124BC08091B50C811157
:104D10001CC080913B02882379F08BEE93E00E94C7
:104D200082469C0181E0C33009F080E000E049EA5E
:104D300059E06D2F0E948DBDDF5F5394D53009F08F
:104D40003ACF87E08093050703C1C33011F7409243
:104D5000B30C1092AF0C1092B00C1092B10C1092D8
:104D6000B20CE12C1CE3F12E0CE116E420E030E063
:104D700040EA50E46BEE73E083EB99E00E9407BCDD
:104D8000D0929202C0929102B0923C0EA0923B0E41
:104D900010923A0E8091990D882309F4BACFD8C0A9
:104DA00024E052124DC08091B50C811106C0809153
:104DB0003B02882309F4C0CF30C0C430C1F7409211
:104DC000B30C1092AF0C1092B00C1092B10C109268
:104DD000B20C6091D90C84E0689FB001112461513C
:104DE0007C4FE12C1CE3F12E0CE116E420E030E0D6
:104DF00040EA50E48FE999E00E9407BCD092920209
:104E0000C0929102B0923C0EA0923B0E10923A0ECC
:104E10008091990D882359F29BC08091D90C24E090
:104E2000829FC001112481519C4F0E9482469C01A7
:104E300081E0C43009F080E000E045E959E079CF35
:104E400085E0581241C08091B50C811106C0809157
:104E50003B02882309F470CF2AC0C530C1F74092C5
:104E6000B30C1092AF0C1092B00C1092B10C1092C7
:104E7000B20CE12C1CE3F12E0CE116E420E030E052
:104E800040EA50E46FEE73E08AE899E00E9407BCC4
:104E9000D0929202C092910270923C0E60923B0EB0
:104EA00010923A0E8091990D882389F251C08FEEAD
:104EB00093E00E9482469C0181E0C53009F080E0C9
:104EC00000E04FE759E035CF26E0521235CF809110
:104ED000B50C811106C080913B02882309F42CCFC8
:104EE0002AC0C630C1F74092B30C1092AF0C10929A
:104EF000B00C1092B10C1092B20CE12C1CE3F12E0C
:104F00000CE116E420E030E040EA50E463EF73E0A7
:104F100084E799E00E9407BCD0929202C09291026D
:104F200090923C0E80923B0E10923A0E8091990D19
:104F3000882389F20DC083EF93E00E9482469C0192
:104F400081E0C63009F080E000E049E659E0F1CEAA
:104F5000DF91CF911F910F91FF90EF90DF90CF9055
:104F6000BF90AF909F908F907F906F905F904F9089
:104F700008952F923F924F925F926F927F928F92FD
:104F80009F92AF92BF92CF92DF92EF92FF920F93D8
:104F90001F93CF93DF931092B30C80912A0E9091C0
:104FA0002B0EA0912C0EB0912D0E81309048A105B2
:104FB000B10540F010922A0E10922B0E10922C0E7A
:104FC00010922D0EC0912A0E809104071816DCF461
:104FD000282F082E000C330B215031094C2F0C2E9A
:104FE000000C550B4217530774F0CFEFC80F8C2FEE
:104FF00090E0A0E0B0E080932A0E90932B0EA09357
:105000002C0EB0932D0E1092990D8091980DC8170B
:1050100014F4C093980D8091980D082E000C990BF4
:1050200004962C2F0C2E000C330B8217930724F4BC
:105030008CEF8C0F8093980D5090980DD0E043E04A
:10504000442E5EED352E2224239462E3C62E69E0C1
:10505000D62E7AE3A72E79E0B72EEAE48E2EE9E089
:105060009E2EF2E56F2EF9E07F2E51101DC080912B
:10507000B50C811106C080913B02882309F49FC0C2
:1050800009C0C111F8CF0E9408898091990D882329
:1050900091F30CC181E0C11180E024E042E659E0C7
:1050A0006D2F0E94004A8BC081E058123DC0809154
:1050B000B50C811106C080913B02882309F47FC0A2
:1050C00016C0C130C1F7E12C10E8F12E07E714E457
:1050D00020E030E040E85FE360E474E08AE599E0D6
:1050E0000E94CABC8091990D882329F3DFC04F929A
:1050F0003F921F922F9280E494E09F938F939F9210
:105100008F927F926F92DF9381E0C13009F080E04F
:105110008F930E9422BE8DB79EB70C960FB6F8945F
:105120009EBF0FBE8DBF4BC092E059123DC0809113
:10513000B50C811106C080913B02882309F43FC061
:1051400016C0C230C1F7E12C10E8F12E07E714E4D5
:1051500020E030E040E85FE364E474E082E499E05A
:105160000E94CABC8091990D882329F39FC04F9259
:105170003F921F922F9284E494E09F938F93DF924B
:10518000CF92BF92AF92DF9381E0C23009F080E00E
:105190008F930E9422BE8DB79EB70C960FB6F894DF
:1051A0009EBF0FBE8DBF0BC093E059123CC08091D3
:1051B000B50C81110CC080913B02811124C0DF5FCE
:1051C0005394D53009F051CFD09304076FC0C3304A
:1051D00091F7E12C10E8F12E07E714E42DEC3CECFC
:1051E0004CEC5DE368E474E08AE299E00E9407BC5D
:1051F00086EB9BE690939202809391028091990DA9
:105200008823C9F253C088E494E00E9437479C0188
:1052100081E0C33009F080E000E042E259E06D2F08
:105220000E948DBDCCCF24E05212C9CF8091B50C25
:10523000811105C080913B02882309F216C0C43059
:10524000C9F7E12C10E8F12E07E714E420E030E084
:1052500040E85FE36CE474E08AE199E00E94CABC34
:105260008091990D882331F321C04F923F921F9274
:105270002F928CE494E09F938F938AE099E09F9320
:105280008F9382E199E09F938F93DF9381E0C43005
:1052900009F080E08F930E9422BE8DB79EB70C96D6
:1052A0000FB6F8949EBF0FBE8DBF89CFDF91CF910F
:1052B0001F910F91FF90EF90DF90CF90BF90AF9034
:1052C0009F908F907F906F905F904F903F902F9026
:1052D000089580910D0780FF03C0899A8FEF02C067
:1052E000899881E08093210280910D0781FF03C09E
:1052F0008F988FEF02C08F9A81E080932202809175
:105300000D079FB782FF09C0F89480910B0182605E
:1053100080930B019FBF8FEF08C0F89480910B0121
:105320008D7F80930B019FBF81E08093230280914A
:105330000D07E091440FF091450F83FF08C0818174
:10534000811102C0169A01C043988FEF07C0818176
:10535000811102C0169801C0439A81E08093240213
:1053600008951F920F920FB60F9211240BB60F9251
:10537000BF92CF92DF92EF92FF920F931F932F93E2
:105380003F934F935F936F937F938F939F93AF93CD
:10539000BF93EF93FF93CF93DF9300D000D0CDB7AF
:1053A000DEB780916E008B7F80936E0080916F00DE
:1053B0008D7F80936F007894C090FC0BD090FD0B94
:1053C000E090FE0BF090FF0BC114D104E104F10456
:1053D000B1F180916B0D882391F10E944AA5D7010C
:1053E000C60109EBC0160BE0D006E104F10420F081
:1053F00088EB9BE0A0E0B0E0C81AD90AEA0AFB0AF1
:10540000C092FC0BD092FD0BE092FE0BF092FF0BD2
:1054100090938900809388002091880030918900C2
:10542000809184009091850040962817390708F0F4
:1054300074C6809184009091850040960BC2809143
:10544000460F9091470F0097E9F197FF21C0809197
:10545000440F9091450F892B51F00E9433198823F6
:1054600031F08091690D8F5F8F708093690D0E947C
:105470003319882309F492C6E091690D1DE4E19F78
:10548000F0011124E25FF84F808184FD7BC686C65F
:105490000E943319882331F08091690D8F5F8F70DE
:1054A0008093690D8091460F9091470F01979093DB
:1054B000470F8093460F1092450F1092440F88ECCF
:1054C00090E0C8C10091440F1091450F1A830983E1
:1054D000012B09F0C4C10E943319882351F11091A6
:1054E000690D4DE4149F90011124225F384F3A83D7
:1054F00029838091AA0C9091AB0CA091AC0CB09137
:10550000AD0CF901E75BFF4F4081518162817381EE
:10551000841B950BA60BB70B8093AA0C9093AB0C36
:10552000A093AC0CB093AD0CD9018C9188608C9396
:105530000BC08FB7F8941092AA0C1092AB0C10927B
:10554000AC0C1092AD0C8FBF09811A811093450FDE
:105550000093440F0115110509F47AC1D801929600
:105560005C91929780910D0711964C9158130AC047
:10557000242F30E080912502082E000C990B28176B
:10558000390729F050930D0740932502A2DE1092AF
:10559000F80B1092F90B1092FA0B1092FB0BE091A2
:1055A000440FF091450F87A990AD8134BCE99B076A
:1055B00028F48132EEE49E0748F002C080E49CE9C2
:1055C000969587959695879524E007C08131F7E2F7
:1055D0009F0730F09695879522E02093F70B08C03F
:1055E00021E02093F70B8032910510F480E290E0E7
:1055F0008C01005211091A830983011528E0120752
:10560000D8F0E12FFF27EE0FFF1FEE0FFF1FCF0196
:105610008B58914FFC01329645915491AA27059FD2
:105620009001049F210D3A1F06942A1F3A1F11244E
:10563000FC01859194911FC089819A8196958795E7
:105640008C7F8B58954FFC0145915491FC0132960B
:105650008591949169817A8167707727689F90011D
:10566000699F300D789F300D112483E03695279582
:105670008A95E1F7CA01821B930B8436910580F469
:1056800000E013E0D8018D918D01882319F00E946C
:10569000221BF8CF89819A810E940B6384E690E0F7
:1056A0009093F60B8093F50B8091F70B8093F40B9E
:1056B000E091440FF091450F83AD94AD9093F30BBF
:1056C0008093F20B8134BCE99B0728F48132EEE42D
:1056D0009E0748F002C080E49CE9969587959695D0
:1056E000879524E007C08131F7E29F0730F0969557
:1056F000879522E02093F70B08C021E02093F70B59
:105700008032910510F480E290E08C010052110982
:105710001A830983011528E01207D8F0E12FFF272B
:10572000EE0FFF1FEE0FFF1FCF018B58914FFC01B3
:10573000329645915491AA27059F9001049F210D0F
:105740003A1F06942A1F3A1F1124FC018591949157
:105750001FC089819A81969587958C7F8B58954F2C
:10576000FC0145915491FC01329685919491698197
:105770007A8167707727689F9001699F300D789FC5
:10578000300D112463E0369527956A95E1F7CA013B
:10579000821B930B8436910580F400E013E0D8015E
:1057A0008D918D01882319F00E94221BF8CF8981E9
:1057B0009A810E940B6384E690E0AC0160E070E0A7
:1057C0004093EE0B5093EF0B6093F00B7093F10B43
:1057D0009093890080938800E091440FF091450FE9
:1057E00082899389A489B589B695A7959795879558
:1057F000B095A095909581959F4FAF4FBF4F8093E7
:10580000EA0B9093EB0BA093EC0BB093ED0B809312
:10581000E60B9093E70BA093E80BB093E90B809312
:10582000E20B9093E30BA093E40BB093E50B809312
:10583000DE0B9093DF0BA093E00BB093E10B109283
:10584000400F1092410F1092420F1092430F07C069
:1058500080ED97E090938900809388005EC48091EA
:105860006B0D81110E944AA52091F70B222309F4A8
:10587000B9C1E091440FF091450F42815381648199
:1058800075818091DE0B9091DF0BA091E00BB091C0
:10589000E10B840F951FA61FB71F8093DE0B90931B
:1058A000DF0BA093E00BB093E10B181619061A0654
:1058B0001B060CF4889AE091440FF091450F468145
:1058C0005781608571858091E20B9091E30BA091E7
:1058D000E40BB091E50B840F951FA61FB71F8093B3
:1058E000E20B9093E30BA093E40BB093E50B181637
:1058F00019061A061B060CF48E9AE091440FF091DB
:10590000450F42855385648575858091E60B90919E
:10591000E70BA091E80BB091E90B840F951FA61F30
:10592000B71F8093E60B9093E70BA093E80BB0931F
:10593000E90B181619061A061B0644F49FB7F894CB
:1059400080910B01886080930B019FBFE091440F11
:10595000F091450F46855785608971898091EA0BE2
:105960009091EB0BA091EC0BB091ED0B840F951F78
:10597000A61FB71F8093EA0B9093EB0BA093EC0B41
:10598000B093ED0B181619061A061B0634F4818124
:10599000811102C0149A01C0419A8091DE0B90914E
:1059A000DF0BA091E00BB091E10B181619061A0657
:1059B0001B0684F5E091440FF091450F428953890D
:1059C00064897589841B950BA60BB70B8093DE0B3E
:1059D0009093DF0BA093E00BB093E10B8091210239
:1059E0004091480F5091490F60914A0F70914B0FB1
:1059F000082E000C990BAA0BBB0B840F951FA61F3A
:105A0000B71F8093480F9093490FA0934A0FB0930C
:105A10004B0F88988091E20B9091E30BA091E40BDF
:105A2000B091E50B181619061A061B0684F5E091CD
:105A3000440FF091450F4289538964897589841B0D
:105A4000950BA60BB70B8093E20B9093E30BA093FF
:105A5000E40BB093E50B8091220240914C0F5091E2
:105A60004D0F60914E0F70914F0F082E000C990B47
:105A7000AA0BBB0B840F951FA61FB71F80934C0F5B
:105A800090934D0FA0934E0FB0934F0F8E9880912F
:105A9000E60B9091E70BA091E80BB091E90B18167B
:105AA00019061A061B06BCF5E091440FF091450F4C
:105AB0004289538964897589841B950BA60BB70BA2
:105AC0008093E60B9093E70BA093E80BB093E90B60
:105AD000809123024091500F5091510F6091520FCD
